{
  "contractName": "NFT",
  "abi": [
    {
      "inputs": [],
      "stateMutability": "nonpayable",
      "type": "constructor"
    },
    {
      "anonymous": false,
      "inputs": [
        {
          "indexed": true,
          "internalType": "address",
          "name": "owner",
          "type": "address"
        },
        {
          "indexed": true,
          "internalType": "address",
          "name": "approved",
          "type": "address"
        },
        {
          "indexed": true,
          "internalType": "uint256",
          "name": "tokenId",
          "type": "uint256"
        }
      ],
      "name": "Approval",
      "type": "event"
    },
    {
      "anonymous": false,
      "inputs": [
        {
          "indexed": true,
          "internalType": "address",
          "name": "owner",
          "type": "address"
        },
        {
          "indexed": true,
          "internalType": "address",
          "name": "operator",
          "type": "address"
        },
        {
          "indexed": false,
          "internalType": "bool",
          "name": "approved",
          "type": "bool"
        }
      ],
      "name": "ApprovalForAll",
      "type": "event"
    },
    {
      "anonymous": false,
      "inputs": [
        {
          "indexed": true,
          "internalType": "address",
          "name": "previousOwner",
          "type": "address"
        },
        {
          "indexed": true,
          "internalType": "address",
          "name": "newOwner",
          "type": "address"
        }
      ],
      "name": "OwnershipTransferred",
      "type": "event"
    },
    {
      "anonymous": false,
      "inputs": [
        {
          "indexed": true,
          "internalType": "address",
          "name": "from",
          "type": "address"
        },
        {
          "indexed": true,
          "internalType": "address",
          "name": "to",
          "type": "address"
        },
        {
          "indexed": true,
          "internalType": "uint256",
          "name": "tokenId",
          "type": "uint256"
        }
      ],
      "name": "Transfer",
      "type": "event"
    },
    {
      "inputs": [
        {
          "internalType": "address",
          "name": "to",
          "type": "address"
        },
        {
          "internalType": "uint256",
          "name": "tokenId",
          "type": "uint256"
        }
      ],
      "name": "approve",
      "outputs": [],
      "stateMutability": "nonpayable",
      "type": "function"
    },
    {
      "inputs": [
        {
          "internalType": "address",
          "name": "owner",
          "type": "address"
        }
      ],
      "name": "balanceOf",
      "outputs": [
        {
          "internalType": "uint256",
          "name": "",
          "type": "uint256"
        }
      ],
      "stateMutability": "view",
      "type": "function",
      "constant": true
    },
    {
      "inputs": [
        {
          "internalType": "uint256",
          "name": "tokenId",
          "type": "uint256"
        }
      ],
      "name": "getApproved",
      "outputs": [
        {
          "internalType": "address",
          "name": "",
          "type": "address"
        }
      ],
      "stateMutability": "view",
      "type": "function",
      "constant": true
    },
    {
      "inputs": [
        {
          "internalType": "address",
          "name": "owner",
          "type": "address"
        },
        {
          "internalType": "address",
          "name": "operator",
          "type": "address"
        }
      ],
      "name": "isApprovedForAll",
      "outputs": [
        {
          "internalType": "bool",
          "name": "",
          "type": "bool"
        }
      ],
      "stateMutability": "view",
      "type": "function",
      "constant": true
    },
    {
      "inputs": [],
      "name": "name",
      "outputs": [
        {
          "internalType": "string",
          "name": "",
          "type": "string"
        }
      ],
      "stateMutability": "view",
      "type": "function",
      "constant": true
    },
    {
      "inputs": [],
      "name": "owner",
      "outputs": [
        {
          "internalType": "address",
          "name": "",
          "type": "address"
        }
      ],
      "stateMutability": "view",
      "type": "function",
      "constant": true
    },
    {
      "inputs": [
        {
          "internalType": "uint256",
          "name": "tokenId",
          "type": "uint256"
        }
      ],
      "name": "ownerOf",
      "outputs": [
        {
          "internalType": "address",
          "name": "",
          "type": "address"
        }
      ],
      "stateMutability": "view",
      "type": "function",
      "constant": true
    },
    {
      "inputs": [],
      "name": "renounceOwnership",
      "outputs": [],
      "stateMutability": "nonpayable",
      "type": "function"
    },
    {
      "inputs": [
        {
          "internalType": "address",
          "name": "from",
          "type": "address"
        },
        {
          "internalType": "address",
          "name": "to",
          "type": "address"
        },
        {
          "internalType": "uint256",
          "name": "tokenId",
          "type": "uint256"
        }
      ],
      "name": "safeTransferFrom",
      "outputs": [],
      "stateMutability": "nonpayable",
      "type": "function"
    },
    {
      "inputs": [
        {
          "internalType": "address",
          "name": "from",
          "type": "address"
        },
        {
          "internalType": "address",
          "name": "to",
          "type": "address"
        },
        {
          "internalType": "uint256",
          "name": "tokenId",
          "type": "uint256"
        },
        {
          "internalType": "bytes",
          "name": "_data",
          "type": "bytes"
        }
      ],
      "name": "safeTransferFrom",
      "outputs": [],
      "stateMutability": "nonpayable",
      "type": "function"
    },
    {
      "inputs": [
        {
          "internalType": "address",
          "name": "operator",
          "type": "address"
        },
        {
          "internalType": "bool",
          "name": "approved",
          "type": "bool"
        }
      ],
      "name": "setApprovalForAll",
      "outputs": [],
      "stateMutability": "nonpayable",
      "type": "function"
    },
    {
      "inputs": [],
      "name": "symbol",
      "outputs": [
        {
          "internalType": "string",
          "name": "",
          "type": "string"
        }
      ],
      "stateMutability": "view",
      "type": "function",
      "constant": true
    },
    {
      "inputs": [
        {
          "internalType": "uint256",
          "name": "index",
          "type": "uint256"
        }
      ],
      "name": "tokenByIndex",
      "outputs": [
        {
          "internalType": "uint256",
          "name": "",
          "type": "uint256"
        }
      ],
      "stateMutability": "view",
      "type": "function",
      "constant": true
    },
    {
      "inputs": [
        {
          "internalType": "address",
          "name": "owner",
          "type": "address"
        },
        {
          "internalType": "uint256",
          "name": "index",
          "type": "uint256"
        }
      ],
      "name": "tokenOfOwnerByIndex",
      "outputs": [
        {
          "internalType": "uint256",
          "name": "",
          "type": "uint256"
        }
      ],
      "stateMutability": "view",
      "type": "function",
      "constant": true
    },
    {
      "inputs": [],
      "name": "totalSupply",
      "outputs": [
        {
          "internalType": "uint256",
          "name": "",
          "type": "uint256"
        }
      ],
      "stateMutability": "view",
      "type": "function",
      "constant": true
    },
    {
      "inputs": [
        {
          "internalType": "address",
          "name": "from",
          "type": "address"
        },
        {
          "internalType": "address",
          "name": "to",
          "type": "address"
        },
        {
          "internalType": "uint256",
          "name": "tokenId",
          "type": "uint256"
        }
      ],
      "name": "transferFrom",
      "outputs": [],
      "stateMutability": "nonpayable",
      "type": "function"
    },
    {
      "inputs": [
        {
          "internalType": "address",
          "name": "newOwner",
          "type": "address"
        }
      ],
      "name": "transferOwnership",
      "outputs": [],
      "stateMutability": "nonpayable",
      "type": "function"
    },
    {
      "inputs": [
        {
          "internalType": "address",
          "name": "_address",
          "type": "address"
        }
      ],
      "name": "viewChallengesByAddress",
      "outputs": [
        {
          "internalType": "uint8[7]",
          "name": "",
          "type": "uint8[7]"
        }
      ],
      "stateMutability": "view",
      "type": "function",
      "constant": true
    },
    {
      "inputs": [
        {
          "internalType": "address",
          "name": "_address",
          "type": "address"
        }
      ],
      "name": "checkChallenges",
      "outputs": [
        {
          "internalType": "bool",
          "name": "",
          "type": "bool"
        }
      ],
      "stateMutability": "view",
      "type": "function",
      "constant": true
    },
    {
      "inputs": [
        {
          "internalType": "address",
          "name": "to",
          "type": "address"
        }
      ],
      "name": "safeMint",
      "outputs": [],
      "stateMutability": "payable",
      "type": "function",
      "payable": true
    },
    {
      "inputs": [
        {
          "internalType": "uint256",
          "name": "_idToken1",
          "type": "uint256"
        },
        {
          "internalType": "uint256",
          "name": "_idToken2",
          "type": "uint256"
        }
      ],
      "name": "breed",
      "outputs": [],
      "stateMutability": "payable",
      "type": "function",
      "payable": true
    },
    {
      "inputs": [
        {
          "internalType": "uint256",
          "name": "_tokenId",
          "type": "uint256"
        }
      ],
      "name": "claimNFT",
      "outputs": [],
      "stateMutability": "payable",
      "type": "function",
      "payable": true
    },
    {
      "inputs": [
        {
          "internalType": "uint256",
          "name": "_idToken1",
          "type": "uint256"
        },
        {
          "internalType": "uint256",
          "name": "_idToken2",
          "type": "uint256"
        }
      ],
      "name": "craft",
      "outputs": [],
      "stateMutability": "payable",
      "type": "function",
      "payable": true
    },
    {
      "inputs": [],
      "name": "withdraw",
      "outputs": [],
      "stateMutability": "nonpayable",
      "type": "function"
    },
    {
      "inputs": [
        {
          "internalType": "uint256",
          "name": "tokenId",
          "type": "uint256"
        }
      ],
      "name": "tokenURI",
      "outputs": [
        {
          "internalType": "string",
          "name": "",
          "type": "string"
        }
      ],
      "stateMutability": "view",
      "type": "function",
      "constant": true
    },
    {
      "inputs": [
        {
          "internalType": "bytes4",
          "name": "interfaceId",
          "type": "bytes4"
        }
      ],
      "name": "supportsInterface",
      "outputs": [
        {
          "internalType": "bool",
          "name": "",
          "type": "bool"
        }
      ],
      "stateMutability": "view",
      "type": "function",
      "constant": true
    },
    {
      "inputs": [
        {
          "internalType": "address",
          "name": "_wallet",
          "type": "address"
        }
      ],
      "name": "getWinnersPosition",
      "outputs": [
        {
          "internalType": "uint256",
          "name": "",
          "type": "uint256"
        }
      ],
      "stateMutability": "view",
      "type": "function",
      "constant": true
    },
    {
      "inputs": [],
      "name": "getNumberOfWinners",
      "outputs": [
        {
          "internalType": "uint256",
          "name": "",
          "type": "uint256"
        }
      ],
      "stateMutability": "view",
      "type": "function",
      "constant": true
    },
    {
      "inputs": [],
      "name": "getNumberOfPlayers",
      "outputs": [
        {
          "internalType": "uint256",
          "name": "",
          "type": "uint256"
        }
      ],
      "stateMutability": "view",
      "type": "function",
      "constant": true
    },
    {
      "inputs": [
        {
          "internalType": "uint256",
          "name": "_tokenId",
          "type": "uint256"
        }
      ],
      "name": "getTokenTimeToClaim",
      "outputs": [
        {
          "internalType": "uint256",
          "name": "",
          "type": "uint256"
        }
      ],
      "stateMutability": "view",
      "type": "function",
      "constant": true
    },
    {
      "inputs": [
        {
          "internalType": "uint256",
          "name": "_tokenId",
          "type": "uint256"
        }
      ],
      "name": "getTokenName",
      "outputs": [
        {
          "internalType": "string",
          "name": "",
          "type": "string"
        }
      ],
      "stateMutability": "view",
      "type": "function",
      "constant": true
    },
    {
      "inputs": [
        {
          "internalType": "uint256",
          "name": "_tokenId",
          "type": "uint256"
        }
      ],
      "name": "getMinPurity",
      "outputs": [
        {
          "internalType": "uint256",
          "name": "",
          "type": "uint256"
        }
      ],
      "stateMutability": "view",
      "type": "function",
      "constant": true
    },
    {
      "inputs": [
        {
          "internalType": "uint256",
          "name": "_tokenId",
          "type": "uint256"
        }
      ],
      "name": "getTokenBreeding",
      "outputs": [
        {
          "internalType": "uint256",
          "name": "",
          "type": "uint256"
        }
      ],
      "stateMutability": "view",
      "type": "function",
      "constant": true
    },
    {
      "inputs": [
        {
          "internalType": "uint256",
          "name": "_tokenId",
          "type": "uint256"
        }
      ],
      "name": "getTokenBackground",
      "outputs": [
        {
          "internalType": "uint256",
          "name": "",
          "type": "uint256"
        }
      ],
      "stateMutability": "view",
      "type": "function",
      "constant": true
    },
    {
      "inputs": [
        {
          "internalType": "uint256",
          "name": "_tokenId",
          "type": "uint256"
        }
      ],
      "name": "getTokenColor",
      "outputs": [
        {
          "internalType": "string",
          "name": "",
          "type": "string"
        }
      ],
      "stateMutability": "view",
      "type": "function",
      "constant": true
    },
    {
      "inputs": [
        {
          "internalType": "uint256",
          "name": "_tokenId",
          "type": "uint256"
        }
      ],
      "name": "getTokenNumber",
      "outputs": [
        {
          "internalType": "uint256",
          "name": "",
          "type": "uint256"
        }
      ],
      "stateMutability": "view",
      "type": "function",
      "constant": true
    },
    {
      "inputs": [
        {
          "internalType": "uint256",
          "name": "_tokenId",
          "type": "uint256"
        }
      ],
      "name": "getTokenPurity",
      "outputs": [
        {
          "internalType": "uint256",
          "name": "",
          "type": "uint256"
        }
      ],
      "stateMutability": "view",
      "type": "function",
      "constant": true
    }
  ],
  "bytecode": "0x60806040526702c68af0bb140000600d5560405180608001604052806040518060400160405280600481526020017f617a756c0000000000000000000000000000000000000000000000000000000081525081526020016040518060400160405280600581526020017f766572646500000000000000000000000000000000000000000000000000000081525081526020016040518060400160405280600481526020017f726f73610000000000000000000000000000000000000000000000000000000081525081526020016040518060400160405280600681526020017f6d6172726f6e0000000000000000000000000000000000000000000000000000815250815250600e906004620001179291906200081e565b506040518061014001604052806040518060400160405280600181526020017f300000000000000000000000000000000000000000000000000000000000000081525081526020016040518060400160405280600181526020017f310000000000000000000000000000000000000000000000000000000000000081525081526020016040518060400160405280600181526020017f320000000000000000000000000000000000000000000000000000000000000081525081526020016040518060400160405280600181526020017f330000000000000000000000000000000000000000000000000000000000000081525081526020016040518060400160405280600181526020017f340000000000000000000000000000000000000000000000000000000000000081525081526020016040518060400160405280600181526020017f350000000000000000000000000000000000000000000000000000000000000081525081526020016040518060400160405280600181526020017f360000000000000000000000000000000000000000000000000000000000000081525081526020016040518060400160405280600181526020017f370000000000000000000000000000000000000000000000000000000000000081525081526020016040518060400160405280600181526020017f380000000000000000000000000000000000000000000000000000000000000081525081526020016040518060400160405280600181526020017f3900000000000000000000000000000000000000000000000000000000000000815250815250601290600a6200038292919062000878565b506040518060c001604052806040518060400160405280600181526020017f310000000000000000000000000000000000000000000000000000000000000081525081526020016040518060400160405280600181526020017f320000000000000000000000000000000000000000000000000000000000000081525081526020016040518060400160405280600181526020017f330000000000000000000000000000000000000000000000000000000000000081525081526020016040518060400160405280600181526020017f340000000000000000000000000000000000000000000000000000000000000081525081526020016040518060400160405280600181526020017f350000000000000000000000000000000000000000000000000000000000000081525081526020016040518060400160405280600181526020017f3600000000000000000000000000000000000000000000000000000000000000815250815250601c90600662000500929190620008d2565b50600060245560006028556000602a553480156200051d57600080fd5b506040518060400160405280600781526020017f4d79546f6b656e000000000000000000000000000000000000000000000000008152506040518060400160405280600381526020017f4d544b00000000000000000000000000000000000000000000000000000000008152508160009080519060200190620005a29291906200092c565b508060019080519060200190620005bb9291906200092c565b505050620005de620005d26200075060201b60201c565b6200075860201b60201c565b600a60256000600160ff16815260200190815260200160002060020160006101000a81548160ff021916908360ff160217905550600560256000600260ff16815260200190815260200160002060020160006101000a81548160ff021916908360ff160217905550601960256000600360ff16815260200190815260200160002060020160006101000a81548160ff021916908360ff160217905550601960256000600460ff16815260200190815260200160002060020160006101000a81548160ff021916908360ff160217905550600160256000600560ff16815260200190815260200160002060020160006101000a81548160ff021916908360ff160217905550602860256000600660ff16815260200190815260200160002060020160006101000a81548160ff021916908360ff160217905550600160256000600760ff16815260200190815260200160002060020160006101000a81548160ff021916908360ff16021790555062000aaf565b600033905090565b6000600660009054906101000a900473ffffffffffffffffffffffffffffffffffffffff16905081600660006101000a81548173ffffffffffffffffffffffffffffffffffffffff021916908373ffffffffffffffffffffffffffffffffffffffff1602179055508173ffffffffffffffffffffffffffffffffffffffff168173ffffffffffffffffffffffffffffffffffffffff167f8be0079c531659141344cd1fd0a4f28419497f9722a3daafe3b4186f6b6457e060405160405180910390a35050565b826004810192821562000865579160200282015b8281111562000864578251829080519060200190620008539291906200092c565b509160200191906001019062000832565b5b509050620008749190620009bd565b5090565b82600a8101928215620008bf579160200282015b82811115620008be578251829080519060200190620008ad9291906200092c565b50916020019190600101906200088c565b5b509050620008ce9190620009bd565b5090565b826006810192821562000919579160200282015b8281111562000918578251829080519060200190620009079291906200092c565b5091602001919060010190620008e6565b5b509050620009289190620009bd565b5090565b8280546200093a9062000a79565b90600052602060002090601f0160209004810192826200095e5760008555620009aa565b82601f106200097957805160ff1916838001178555620009aa565b82800160010185558215620009aa579182015b82811115620009a95782518255916020019190600101906200098c565b5b509050620009b99190620009e5565b5090565b5b80821115620009e15760008181620009d7919062000a04565b50600101620009be565b5090565b5b8082111562000a00576000816000905550600101620009e6565b5090565b50805462000a129062000a79565b6000825580601f1062000a26575062000a47565b601f01602090049060005260206000209081019062000a469190620009e5565b5b50565b7f4e487b7100000000000000000000000000000000000000000000000000000000600052602260045260246000fd5b6000600282049050600182168062000a9257607f821691505b6020821081141562000aa95762000aa862000a4a565b5b50919050565b615f438062000abf6000396000f3fe60806040526004361061021a5760003560e01c80638cfe966511610123578063d52f0904116100ab578063e985e9c51161006f578063e985e9c514610852578063f1c53ac51461088f578063f2fde38b146108cc578063fd6673f5146108f5578063fe5c873a146109205761021a565b8063d52f090414610742578063d9ecad7b1461077f578063dbe16c071461079b578063e6c08dc8146107d8578063e8952fad146108155761021a565b806395d89b41116100f257806395d89b411461064b57806398f9000614610676578063a22cb465146106b3578063b88d4fde146106dc578063c87b56dd146107055761021a565b80638cfe96651461057b5780638da5cb5b146105b85780638e33cffc146105e3578063934f30d31461060e5761021a565b806332c70db7116101a65780634f6ccce7116101755780634f6ccce7146104705780636352211e146104ad57806370a08231146104ea578063715018a6146105275780638155c8061461053e5761021a565b806332c70db7146103d75780633ccfd60b1461041457806340d097c31461042b57806342842e0e146104475761021a565b806318160ddd116101ed57806318160ddd146102ed578063191e27241461031857806323b872dd14610355578063289137a11461037e5780632f745c591461039a5761021a565b806301ffc9a71461021f57806306fdde031461025c578063081812fc14610287578063095ea7b3146102c4575b600080fd5b34801561022b57600080fd5b50610246600480360381019061024191906143cb565b61093c565b6040516102539190614413565b60405180910390f35b34801561026857600080fd5b5061027161094e565b60405161027e91906144c7565b60405180910390f35b34801561029357600080fd5b506102ae60048036038101906102a9919061451f565b6109e0565b6040516102bb919061458d565b60405180910390f35b3480156102d057600080fd5b506102eb60048036038101906102e691906145d4565b610a65565b005b3480156102f957600080fd5b50610302610b7d565b60405161030f9190614623565b60405180910390f35b34801561032457600080fd5b5061033f600480360381019061033a919061451f565b610b8a565b60405161034c9190614623565b60405180910390f35b34801561036157600080fd5b5061037c6004803603810190610377919061463e565b610baa565b005b61039860048036038101906103939190614691565b610c0a565b005b3480156103a657600080fd5b506103c160048036038101906103bc91906145d4565b611214565b6040516103ce9190614623565b60405180910390f35b3480156103e357600080fd5b506103fe60048036038101906103f9919061451f565b6112b9565b60405161040b9190614623565b60405180910390f35b34801561042057600080fd5b506104296112d6565b005b610445600480360381019061044091906146d1565b6113e5565b005b34801561045357600080fd5b5061046e6004803603810190610469919061463e565b6116c7565b005b34801561047c57600080fd5b506104976004803603810190610492919061451f565b6116e7565b6040516104a49190614623565b60405180910390f35b3480156104b957600080fd5b506104d460048036038101906104cf919061451f565b611758565b6040516104e1919061458d565b60405180910390f35b3480156104f657600080fd5b50610511600480360381019061050c91906146d1565b61180a565b60405161051e9190614623565b60405180910390f35b34801561053357600080fd5b5061053c6118c2565b005b34801561054a57600080fd5b50610565600480360381019061056091906146d1565b61194a565b6040516105729190614413565b60405180910390f35b34801561058757600080fd5b506105a2600480360381019061059d919061451f565b6119f7565b6040516105af91906144c7565b60405180910390f35b3480156105c457600080fd5b506105cd611a9f565b6040516105da919061458d565b60405180910390f35b3480156105ef57600080fd5b506105f8611ac9565b6040516106059190614623565b60405180910390f35b34801561061a57600080fd5b506106356004803603810190610630919061451f565b611ad3565b6040516106429190614623565b60405180910390f35b34801561065757600080fd5b50610660611af3565b60405161066d91906144c7565b60405180910390f35b34801561068257600080fd5b5061069d600480360381019061069891906146d1565b611b85565b6040516106aa9190614623565b60405180910390f35b3480156106bf57600080fd5b506106da60048036038101906106d5919061472a565b611bce565b005b3480156106e857600080fd5b5061070360048036038101906106fe919061489f565b611be4565b005b34801561071157600080fd5b5061072c6004803603810190610727919061451f565b611c46565b60405161073991906144c7565b60405180910390f35b34801561074e57600080fd5b506107696004803603810190610764919061451f565b611c93565b6040516107769190614623565b60405180910390f35b61079960048036038101906107949190614691565b611cb3565b005b3480156107a757600080fd5b506107c260048036038101906107bd919061451f565b6121e1565b6040516107cf91906144c7565b60405180910390f35b3480156107e457600080fd5b506107ff60048036038101906107fa919061451f565b612289565b60405161080c9190614623565b60405180910390f35b34801561082157600080fd5b5061083c6004803603810190610837919061451f565b6122a9565b6040516108499190614623565b60405180910390f35b34801561085e57600080fd5b5061087960048036038101906108749190614922565b6122c9565b6040516108869190614413565b60405180910390f35b34801561089b57600080fd5b506108b660048036038101906108b191906146d1565b61235d565b6040516108c39190614a1a565b60405180910390f35b3480156108d857600080fd5b506108f360048036038101906108ee91906146d1565b612481565b005b34801561090157600080fd5b5061090a612579565b6040516109179190614623565b60405180910390f35b61093a6004803603810190610935919061451f565b612583565b005b600061094782612937565b9050919050565b60606000805461095d90614a64565b80601f016020809104026020016040519081016040528092919081815260200182805461098990614a64565b80156109d65780601f106109ab576101008083540402835291602001916109d6565b820191906000526020600020905b8154815290600101906020018083116109b957829003601f168201915b5050505050905090565b60006109eb826129b1565b610a2a576040517f08c379a0000000000000000000000000000000000000000000000000000000008152600401610a2190614b08565b60405180910390fd5b6004600083815260200190815260200160002060009054906101000a900473ffffffffffffffffffffffffffffffffffffffff169050919050565b6000610a7082611758565b90508073ffffffffffffffffffffffffffffffffffffffff168373ffffffffffffffffffffffffffffffffffffffff161415610ae1576040517f08c379a0000000000000000000000000000000000000000000000000000000008152600401610ad890614b9a565b60405180910390fd5b8073ffffffffffffffffffffffffffffffffffffffff16610b00612a1d565b73ffffffffffffffffffffffffffffffffffffffff161480610b2f5750610b2e81610b29612a1d565b6122c9565b5b610b6e576040517f08c379a0000000000000000000000000000000000000000000000000000000008152600401610b6590614c2c565b60405180910390fd5b610b788383612a25565b505050565b6000600a80549050905090565b600060226000838152602001908152602001600020600501549050919050565b610bbb610bb5612a1d565b82612ade565b610bfa576040517f08c379a0000000000000000000000000000000000000000000000000000000008152600401610bf190614cbe565b60405180910390fd5b610c05838383612bbc565b505050565b600d54341015610c4f576040517f08c379a0000000000000000000000000000000000000000000000000000000008152600401610c4690614d2a565b60405180910390fd5b80821415610c92576040517f08c379a0000000000000000000000000000000000000000000000000000000008152600401610c8990614d96565b60405180910390fd5b3373ffffffffffffffffffffffffffffffffffffffff16610cb283611758565b73ffffffffffffffffffffffffffffffffffffffff1614610d08576040517f08c379a0000000000000000000000000000000000000000000000000000000008152600401610cff90614e02565b60405180910390fd5b3373ffffffffffffffffffffffffffffffffffffffff16610d2882611758565b73ffffffffffffffffffffffffffffffffffffffff1614610d7e576040517f08c379a0000000000000000000000000000000000000000000000000000000008152600401610d7590614e02565b60405180910390fd5b604051602001610d8d90614e79565b6040516020818303038152906040528051906020012060226000848152602001908152602001600020600001604051602001610dc99190614f22565b604051602081830303815290604052805190602001201415610e20576040517f08c379a0000000000000000000000000000000000000000000000000000000008152600401610e1790614f85565b60405180910390fd5b604051602001610e2f90614e79565b6040516020818303038152906040528051906020012060226000838152602001908152602001600020600001604051602001610e6b9190614f22565b604051602081830303815290604052805190602001201415610ec2576040517f08c379a0000000000000000000000000000000000000000000000000000000008152600401610eb990614f85565b60405180910390fd5b600060226000838152602001908152602001600020600101546022600085815260200190815260200160002060010154610efc9190614fd4565b905060048110610f275760046022600085815260200190815260200160002060010181905550610f43565b8060226000858152602001908152602001600020600101819055505b6022600083815260200190815260200160002060020160226000858152602001908152602001600020600201908054610f7b90614a64565b610f869291906141cd565b5060226000838152602001908152602001600020600401546022600085815260200190815260200160002060040154111561101057610ff160226000848152602001908152602001600020600401546022600086815260200190815260200160002060040154612e23565b6022600085815260200190815260200160002060040181905550611096565b6022600083815260200190815260200160002060040154602260008581526020019081526020016000206004015410156110955761107a60226000858152602001908152602001600020600401546022600085815260200190815260200160002060040154612e23565b60226000858152602001908152602001600020600401819055505b5b6000601c6022600086815260200190815260200160002060050154600681106110c2576110c161502a565b5b01602260008681526020019081526020016000206002016012606460226000898152602001908152602001600020600401546110fe9190615088565b600a811061110f5761110e61502a565b5b016012600a602260008a8152602001908152602001600020600401546111359190615088565b600a81106111465761114561502a565b5b016012600a80602260008c81526020019081526020016000206004015461116d9190615088565b61117791906150b9565b602260008b8152602001908152602001600020600401546111989190615113565b600a81106111a9576111a861502a565b5b016040516020016111be95949392919061522b565b60405160208183030381529060405290506111da336001612e81565b8060226000868152602001908152602001600020600001908051906020019061120492919061425a565b5061120e83613104565b50505050565b600061121f8361180a565b8210611260576040517f08c379a000000000000000000000000000000000000000000000000000000000815260040161125790615309565b60405180910390fd5b600860008473ffffffffffffffffffffffffffffffffffffffff1673ffffffffffffffffffffffffffffffffffffffff168152602001908152602001600020600083815260200190815260200160002054905092915050565b600060236000838152602001908152602001600020549050919050565b6112de612a1d565b73ffffffffffffffffffffffffffffffffffffffff166112fc611a9f565b73ffffffffffffffffffffffffffffffffffffffff1614611352576040517f08c379a000000000000000000000000000000000000000000000000000000000815260040161134990615375565b60405180910390fd5b60004711611395576040517f08c379a000000000000000000000000000000000000000000000000000000000815260040161138c906153e1565b60405180910390fd5b61139d611a9f565b73ffffffffffffffffffffffffffffffffffffffff166108fc479081150290604051600060405180830381858888f193505050501580156113e2573d6000803e3d6000fd5b50565b600d5434101561142a576040517f08c379a000000000000000000000000000000000000000000000000000000000815260040161142190614d2a565b60405180910390fd5b6000611436600c613110565b905060006114466001600a612e23565b9050600061145660006006612e23565b90506000600e61146860006004612e23565b600481106114795761147861502a565b5b01805461148590614a64565b80601f01602080910402602001604051908101604052809291908181526020018280546114b190614a64565b80156114fe5780601f106114d3576101008083540402835291602001916114fe565b820191906000526020600020905b8154815290600101906020018083116114e157829003601f168201915b505050505090506000601c836006811061151b5761151a61502a565b5b0182601260648761152c9190615088565b600a811061153d5761153c61502a565b5b016012600a8861154d9190615088565b600a811061155e5761155d61502a565b5b016012600a808a61156f9190615088565b61157991906150b9565b896115849190615113565b600a81106115955761159461502a565b5b016040516020016115aa959493929190615432565b6040516020818303038152906040529050806022600087815260200190815260200160002060000190805190602001906115e592919061425a565b50600460226000878152602001908152602001600020600101819055508360226000878152602001908152602001600020600401819055508160226000878152602001908152602001600020600201908051906020019061164792919061425a565b5082602260008781526020019081526020016000206005018190555060016024546116729190614fd4565b602481905550602454602260008781526020019081526020016000206003018190555061169f600c61311e565b6116aa336002612e81565b6116b5336006612e81565b6116bf8686613134565b505050505050565b6116e283838360405180602001604052806000815250611be4565b505050565b60006116f1610b7d565b8210611732576040517f08c379a000000000000000000000000000000000000000000000000000000000815260040161172990615510565b60405180910390fd5b600a82815481106117465761174561502a565b5b90600052602060002001549050919050565b6000806002600084815260200190815260200160002060009054906101000a900473ffffffffffffffffffffffffffffffffffffffff169050600073ffffffffffffffffffffffffffffffffffffffff168173ffffffffffffffffffffffffffffffffffffffff161415611801576040517f08c379a00000000000000000000000000000000000000000000000000000000081526004016117f8906155a2565b60405180910390fd5b80915050919050565b60008073ffffffffffffffffffffffffffffffffffffffff168273ffffffffffffffffffffffffffffffffffffffff16141561187b576040517f08c379a000000000000000000000000000000000000000000000000000000000815260040161187290615634565b60405180910390fd5b600360008373ffffffffffffffffffffffffffffffffffffffff1673ffffffffffffffffffffffffffffffffffffffff168152602001908152602001600020549050919050565b6118ca612a1d565b73ffffffffffffffffffffffffffffffffffffffff166118e8611a9f565b73ffffffffffffffffffffffffffffffffffffffff161461193e576040517f08c379a000000000000000000000000000000000000000000000000000000000815260040161193590615375565b60405180910390fd5b6119486000613152565b565b600080600190505b60078160ff16116119ec5760011515602660008573ffffffffffffffffffffffffffffffffffffffff1673ffffffffffffffffffffffffffffffffffffffff16815260200190815260200160002060008360ff1660ff16815260200190815260200160002060000160009054906101000a900460ff161515146119d95760009150506119f2565b80806119e490615654565b915050611952565b50600190505b919050565b6060602260008381526020019081526020016000206002018054611a1a90614a64565b80601f0160208091040260200160405190810160405280929190818152602001828054611a4690614a64565b8015611a935780601f10611a6857610100808354040283529160200191611a93565b820191906000526020600020905b815481529060010190602001808311611a7657829003601f168201915b50505050509050919050565b6000600660009054906101000a900473ffffffffffffffffffffffffffffffffffffffff16905090565b6000602854905090565b600060226000838152602001908152602001600020600601549050919050565b606060018054611b0290614a64565b80601f0160208091040260200160405190810160405280929190818152602001828054611b2e90614a64565b8015611b7b5780601f10611b5057610100808354040283529160200191611b7b565b820191906000526020600020905b815481529060010190602001808311611b5e57829003601f168201915b5050505050905090565b6000602760008373ffffffffffffffffffffffffffffffffffffffff1673ffffffffffffffffffffffffffffffffffffffff168152602001908152602001600020549050919050565b611be0611bd9612a1d565b8383613218565b5050565b611bf5611bef612a1d565b83612ade565b611c34576040517f08c379a0000000000000000000000000000000000000000000000000000000008152600401611c2b90614cbe565b60405180910390fd5b611c4084848484613385565b50505050565b60606000611c526133e1565b90508060226000858152602001908152602001600020600001604051602001611c7c9291906156ca565b604051602081830303815290604052915050919050565b600060226000838152602001908152602001600020600401549050919050565b600d54341015611cf8576040517f08c379a0000000000000000000000000000000000000000000000000000000008152600401611cef90614d2a565b60405180910390fd5b80821415611d3b576040517f08c379a0000000000000000000000000000000000000000000000000000000008152600401611d3290614d96565b60405180910390fd5b3373ffffffffffffffffffffffffffffffffffffffff16611d5b83611758565b73ffffffffffffffffffffffffffffffffffffffff1614611db1576040517f08c379a0000000000000000000000000000000000000000000000000000000008152600401611da890614e02565b60405180910390fd5b3373ffffffffffffffffffffffffffffffffffffffff16611dd182611758565b73ffffffffffffffffffffffffffffffffffffffff1614611e27576040517f08c379a0000000000000000000000000000000000000000000000000000000008152600401611e1e90614e02565b60405180910390fd5b60226000828152602001908152602001600020600201604051602001611e4d9190614f22565b6040516020818303038152906040528051906020012060226000848152602001908152602001600020600201604051602001611e899190614f22565b6040516020818303038152906040528051906020012014611edf576040517f08c379a0000000000000000000000000000000000000000000000000000000008152600401611ed69061576b565b60405180910390fd5b6000602260008481526020019081526020016000206001015411611f38576040517f08c379a0000000000000000000000000000000000000000000000000000000008152600401611f2f906157fd565b60405180910390fd5b6000602260008381526020019081526020016000206001015411611f91576040517f08c379a0000000000000000000000000000000000000000000000000000000008152600401611f88906157fd565b60405180910390fd5b604051602001611fa090614e79565b6040516020818303038152906040528051906020012060226000848152602001908152602001600020600001604051602001611fdc9190614f22565b604051602081830303815290604052805190602001201415612033576040517f08c379a000000000000000000000000000000000000000000000000000000000815260040161202a90614f85565b60405180910390fd5b60405160200161204290614e79565b604051602081830303815290604052805190602001206022600083815260200190815260200160002060000160405160200161207e9190614f22565b6040516020818303038152906040528051906020012014156120d5576040517f08c379a00000000000000000000000000000000000000000000000000000000081526004016120cc90614f85565b60405180910390fd5b600160226000848152602001908152602001600020600101546120f89190615113565b6022600084815260200190815260200160002060010181905550600160226000838152602001908152602001600020600101546121359190615113565b6022600083815260200190815260200160002060010181905550612186336022600085815260200190815260200160002060040154602260008581526020019081526020016000206004015461341e565b6000602260008481526020019081526020016000206001015414806121c1575060006022600083815260200190815260200160002060010154145b156121d2576121d1336005612e81565b5b6121dd336003612e81565b5050565b606060226000838152602001908152602001600020600001805461220490614a64565b80601f016020809104026020016040519081016040528092919081815260200182805461223090614a64565b801561227d5780601f106122525761010080835404028352916020019161227d565b820191906000526020600020905b81548152906001019060200180831161226057829003601f168201915b50505050509050919050565b600060226000838152602001908152602001600020600101549050919050565b600060226000838152602001908152602001600020600301549050919050565b6000600560008473ffffffffffffffffffffffffffffffffffffffff1673ffffffffffffffffffffffffffffffffffffffff16815260200190815260200160002060008373ffffffffffffffffffffffffffffffffffffffff1673ffffffffffffffffffffffffffffffffffffffff16815260200190815260200160002060009054906101000a900460ff16905092915050565b6123656142e0565b60006040518060e00160405280600160ff168152602001600260ff168152602001600360ff168152602001600460ff168152602001600560ff168152602001600660ff168152602001600760ff1681525090506000600190505b60078160ff161161247757602660008573ffffffffffffffffffffffffffffffffffffffff1673ffffffffffffffffffffffffffffffffffffffff16815260200190815260200160002060008260ff1660ff16815260200190815260200160002060000160019054906101000a900460ff168260018361243f919061581d565b60ff16600781106124535761245261502a565b5b602002019060ff16908160ff1681525050808061246f90615654565b9150506123bf565b5080915050919050565b612489612a1d565b73ffffffffffffffffffffffffffffffffffffffff166124a7611a9f565b73ffffffffffffffffffffffffffffffffffffffff16146124fd576040517f08c379a00000000000000000000000000000000000000000000000000000000081526004016124f490615375565b60405180910390fd5b600073ffffffffffffffffffffffffffffffffffffffff168173ffffffffffffffffffffffffffffffffffffffff16141561256d576040517f08c379a0000000000000000000000000000000000000000000000000000000008152600401612564906158c3565b60405180910390fd5b61257681613152565b50565b6000602a54905090565b600d543410156125c8576040517f08c379a00000000000000000000000000000000000000000000000000000000081526004016125bf90614d2a565b60405180910390fd5b6040516020016125d790614e79565b60405160208183030381529060405280519060200120602260008381526020019081526020016000206000016040516020016126139190614f22565b6040516020818303038152906040528051906020012014612669576040517f08c379a00000000000000000000000000000000000000000000000000000000081526004016126609061592f565b60405180910390fd5b602360226000838152602001908152602001600020600401541061272f576000602960003373ffffffffffffffffffffffffffffffffffffffff1673ffffffffffffffffffffffffffffffffffffffff16815260200190815260200160002054141561272e57602a60008154809291906126e29061594f565b9190505550602a54602960003373ffffffffffffffffffffffffffffffffffffffff1673ffffffffffffffffffffffffffffffffffffffff168152602001908152602001600020819055505b5b6064602260008381526020019081526020016000206004015414156127be576040518060400160405280600681526020017f70757231303000000000000000000000000000000000000000000000000000008152506022600083815260200190815260200160002060000190805190602001906127ad92919061425a565b506127b9336007612e81565b61291e565b601c6022600083815260200190815260200160002060050154600681106127e8576127e761502a565b5b01602260008381526020019081526020016000206002016012606460226000868152602001908152602001600020600401546128249190615088565b600a81106128355761283461502a565b5b016012600a602260008781526020019081526020016000206004015461285b9190615088565b600a811061286c5761286b61502a565b5b016012600a8060226000898152602001908152602001600020600401546128939190615088565b61289d91906150b9565b60226000888152602001908152602001600020600401546128be9190615113565b600a81106128cf576128ce61502a565b5b016040516020016128e495949392919061522b565b60405160208183030381529060405260226000838152602001908152602001600020600001908051906020019061291c92919061425a565b505b612929336004612e81565b612934336006612e81565b50565b60007f780e9d63000000000000000000000000000000000000000000000000000000007bffffffffffffffffffffffffffffffffffffffffffffffffffffffff1916827bffffffffffffffffffffffffffffffffffffffffffffffffffffffff191614806129aa57506129a9826136fd565b5b9050919050565b60008073ffffffffffffffffffffffffffffffffffffffff166002600084815260200190815260200160002060009054906101000a900473ffffffffffffffffffffffffffffffffffffffff1673ffffffffffffffffffffffffffffffffffffffff1614159050919050565b600033905090565b816004600083815260200190815260200160002060006101000a81548173ffffffffffffffffffffffffffffffffffffffff021916908373ffffffffffffffffffffffffffffffffffffffff160217905550808273ffffffffffffffffffffffffffffffffffffffff16612a9883611758565b73ffffffffffffffffffffffffffffffffffffffff167f8c5be1e5ebec7d5bd14f71427d1e84f3dd0314c0f7b2291e5b200ac8c7c3b92560405160405180910390a45050565b6000612ae9826129b1565b612b28576040517f08c379a0000000000000000000000000000000000000000000000000000000008152600401612b1f90615a0a565b60405180910390fd5b6000612b3383611758565b90508073ffffffffffffffffffffffffffffffffffffffff168473ffffffffffffffffffffffffffffffffffffffff161480612ba257508373ffffffffffffffffffffffffffffffffffffffff16612b8a846109e0565b73ffffffffffffffffffffffffffffffffffffffff16145b80612bb35750612bb281856122c9565b5b91505092915050565b8273ffffffffffffffffffffffffffffffffffffffff16612bdc82611758565b73ffffffffffffffffffffffffffffffffffffffff1614612c32576040517f08c379a0000000000000000000000000000000000000000000000000000000008152600401612c2990615a9c565b60405180910390fd5b600073ffffffffffffffffffffffffffffffffffffffff168273ffffffffffffffffffffffffffffffffffffffff161415612ca2576040517f08c379a0000000000000000000000000000000000000000000000000000000008152600401612c9990615b2e565b60405180910390fd5b612cad8383836137df565b612cb8600082612a25565b6001600360008573ffffffffffffffffffffffffffffffffffffffff1673ffffffffffffffffffffffffffffffffffffffff1681526020019081526020016000206000828254612d089190615113565b925050819055506001600360008473ffffffffffffffffffffffffffffffffffffffff1673ffffffffffffffffffffffffffffffffffffffff1681526020019081526020016000206000828254612d5f9190614fd4565b92505081905550816002600083815260200190815260200160002060006101000a81548173ffffffffffffffffffffffffffffffffffffffff021916908373ffffffffffffffffffffffffffffffffffffffff160217905550808273ffffffffffffffffffffffffffffffffffffffff168473ffffffffffffffffffffffffffffffffffffffff167fddf252ad1be2c89b69c2b068fc378daa952ba7f163c4a11628f55a4df523b3ef60405160405180910390a4612e1e8383836137ef565b505050565b6000808383612e329190615113565b424433604051602001612e4793929190615bb7565b6040516020818303038152906040528051906020012060001c612e6a9190615bf4565b90508381612e789190614fd4565b91505092915050565b60001515602660008473ffffffffffffffffffffffffffffffffffffffff1673ffffffffffffffffffffffffffffffffffffffff16815260200190815260200160002060008360ff1660ff16815260200190815260200160002060000160009054906101000a900460ff161515141561310057602660008373ffffffffffffffffffffffffffffffffffffffff1673ffffffffffffffffffffffffffffffffffffffff16815260200190815260200160002060008260ff1660ff168152602001908152602001600020600001600181819054906101000a900460ff1680929190612f6a90615654565b91906101000a81548160ff021916908360ff16021790555050602560008260ff1660ff16815260200190815260200160002060020160009054906101000a900460ff1660ff16602660008473ffffffffffffffffffffffffffffffffffffffff1673ffffffffffffffffffffffffffffffffffffffff16815260200190815260200160002060008360ff1660ff16815260200190815260200160002060000160019054906101000a900460ff1660ff16106130ff576001602660008473ffffffffffffffffffffffffffffffffffffffff1673ffffffffffffffffffffffffffffffffffffffff16815260200190815260200160002060008360ff1660ff16815260200190815260200160002060000160006101000a81548160ff02191690831515021790555061309a8261194a565b156130fe57602860008154809291906130b29061594f565b9190505550602854602760008473ffffffffffffffffffffffffffffffffffffffff1673ffffffffffffffffffffffffffffffffffffffff168152602001908152602001600020819055505b5b5b5050565b61310d816137f4565b50565b600081600001549050919050565b6001816000016000828254019250508190555050565b61314e828260405180602001604052806000815250613847565b5050565b6000600660009054906101000a900473ffffffffffffffffffffffffffffffffffffffff16905081600660006101000a81548173ffffffffffffffffffffffffffffffffffffffff021916908373ffffffffffffffffffffffffffffffffffffffff1602179055508173ffffffffffffffffffffffffffffffffffffffff168173ffffffffffffffffffffffffffffffffffffffff167f8be0079c531659141344cd1fd0a4f28419497f9722a3daafe3b4186f6b6457e060405160405180910390a35050565b8173ffffffffffffffffffffffffffffffffffffffff168373ffffffffffffffffffffffffffffffffffffffff161415613287576040517f08c379a000000000000000000000000000000000000000000000000000000000815260040161327e90615c71565b60405180910390fd5b80600560008573ffffffffffffffffffffffffffffffffffffffff1673ffffffffffffffffffffffffffffffffffffffff16815260200190815260200160002060008473ffffffffffffffffffffffffffffffffffffffff1673ffffffffffffffffffffffffffffffffffffffff16815260200190815260200160002060006101000a81548160ff0219169083151502179055508173ffffffffffffffffffffffffffffffffffffffff168373ffffffffffffffffffffffffffffffffffffffff167f17307eab39ab6107e8899845ad3d59bd9653f200f220920489ca2b5937696c31836040516133789190614413565b60405180910390a3505050565b613390848484612bbc565b61339c848484846138a2565b6133db576040517f08c379a00000000000000000000000000000000000000000000000000000000081526004016133d290615d03565b60405180910390fd5b50505050565b60606040518060400160405280600781526020017f2e2f4e4654732f00000000000000000000000000000000000000000000000000815250905090565b60006002828461342e9190614fd4565b6134389190615088565b9050600061345282600a8461344d9190614fd4565b612e23565b90506000613460600c613110565b90506000600a426134719190614fd4565b905060006040518060400160405280600981526020017f496e50726f636573730000000000000000000000000000000000000000000000815250905060006134bb60006006612e23565b905060606064861061352457606495506040518060400160405280600681526020017f646f7261646f00000000000000000000000000000000000000000000000000008152509050600060226000878152602001908152602001600020600101819055506135ec565b600e61353260006004612e23565b600481106135435761354261502a565b5b01805461354f90614a64565b80601f016020809104026020016040519081016040528092919081815260200182805461357b90614a64565b80156135c85780601f1061359d576101008083540402835291602001916135c8565b820191906000526020600020905b8154815290600101906020018083116135ab57829003601f168201915b50505050509050600460226000878152602001908152602001600020600101819055505b8660236000878152602001908152602001600020819055508360226000878152602001908152602001600020600601819055508260226000878152602001908152602001600020600001908051906020019061364992919061425a565b508560226000878152602001908152602001600020600401819055508060226000878152602001908152602001600020600201908051906020019061368f92919061425a565b5081602260008781526020019081526020016000206005018190555060016024546136ba9190614fd4565b60248190555060245460226000878152602001908152602001600020600301819055506136e7600c61311e565b6136f18a86613134565b50505050505050505050565b60007f80ac58cd000000000000000000000000000000000000000000000000000000007bffffffffffffffffffffffffffffffffffffffffffffffffffffffff1916827bffffffffffffffffffffffffffffffffffffffffffffffffffffffff191614806137c857507f5b5e139f000000000000000000000000000000000000000000000000000000007bffffffffffffffffffffffffffffffffffffffffffffffffffffffff1916827bffffffffffffffffffffffffffffffffffffffffffffffffffffffff1916145b806137d857506137d782613a2a565b5b9050919050565b6137ea838383613a94565b505050565b505050565b6137fd81613ba8565b600060076000838152602001908152602001600020805461381d90614a64565b905014613844576007600082815260200190815260200160002060006138439190614302565b5b50565b6138518383613cc5565b61385e60008484846138a2565b61389d576040517f08c379a000000000000000000000000000000000000000000000000000000000815260040161389490615d03565b60405180910390fd5b505050565b60006138c38473ffffffffffffffffffffffffffffffffffffffff16613e9f565b15613a1d578373ffffffffffffffffffffffffffffffffffffffff1663150b7a026138ec612a1d565b8786866040518563ffffffff1660e01b815260040161390e9493929190615d78565b6020604051808303816000875af192505050801561394a57506040513d601f19601f820116820180604052508101906139479190615dd9565b60015b6139cd573d806000811461397a576040519150601f19603f3d011682016040523d82523d6000602084013e61397f565b606091505b506000815114156139c5576040517f08c379a00000000000000000000000000000000000000000000000000000000081526004016139bc90615d03565b60405180910390fd5b805181602001fd5b63150b7a0260e01b7bffffffffffffffffffffffffffffffffffffffffffffffffffffffff1916817bffffffffffffffffffffffffffffffffffffffffffffffffffffffff191614915050613a22565b600190505b949350505050565b60007f01ffc9a7000000000000000000000000000000000000000000000000000000007bffffffffffffffffffffffffffffffffffffffffffffffffffffffff1916827bffffffffffffffffffffffffffffffffffffffffffffffffffffffff1916149050919050565b613a9f838383613ec2565b600073ffffffffffffffffffffffffffffffffffffffff168373ffffffffffffffffffffffffffffffffffffffff161415613ae257613add81613ec7565b613b21565b8173ffffffffffffffffffffffffffffffffffffffff168373ffffffffffffffffffffffffffffffffffffffff1614613b2057613b1f8382613f10565b5b5b600073ffffffffffffffffffffffffffffffffffffffff168273ffffffffffffffffffffffffffffffffffffffff161415613b6457613b5f8161407d565b613ba3565b8273ffffffffffffffffffffffffffffffffffffffff168273ffffffffffffffffffffffffffffffffffffffff1614613ba257613ba1828261414e565b5b5b505050565b6000613bb382611758565b9050613bc1816000846137df565b613bcc600083612a25565b6001600360008373ffffffffffffffffffffffffffffffffffffffff1673ffffffffffffffffffffffffffffffffffffffff1681526020019081526020016000206000828254613c1c9190615113565b925050819055506002600083815260200190815260200160002060006101000a81549073ffffffffffffffffffffffffffffffffffffffff021916905581600073ffffffffffffffffffffffffffffffffffffffff168273ffffffffffffffffffffffffffffffffffffffff167fddf252ad1be2c89b69c2b068fc378daa952ba7f163c4a11628f55a4df523b3ef60405160405180910390a4613cc1816000846137ef565b5050565b600073ffffffffffffffffffffffffffffffffffffffff168273ffffffffffffffffffffffffffffffffffffffff161415613d35576040517f08c379a0000000000000000000000000000000000000000000000000000000008152600401613d2c90615e52565b60405180910390fd5b613d3e816129b1565b15613d7e576040517f08c379a0000000000000000000000000000000000000000000000000000000008152600401613d7590615ebe565b60405180910390fd5b613d8a600083836137df565b6001600360008473ffffffffffffffffffffffffffffffffffffffff1673ffffffffffffffffffffffffffffffffffffffff1681526020019081526020016000206000828254613dda9190614fd4565b92505081905550816002600083815260200190815260200160002060006101000a81548173ffffffffffffffffffffffffffffffffffffffff021916908373ffffffffffffffffffffffffffffffffffffffff160217905550808273ffffffffffffffffffffffffffffffffffffffff16600073ffffffffffffffffffffffffffffffffffffffff167fddf252ad1be2c89b69c2b068fc378daa952ba7f163c4a11628f55a4df523b3ef60405160405180910390a4613e9b600083836137ef565b5050565b6000808273ffffffffffffffffffffffffffffffffffffffff163b119050919050565b505050565b600a80549050600b600083815260200190815260200160002081905550600a81908060018154018082558091505060019003906000526020600020016000909190919091505550565b60006001613f1d8461180a565b613f279190615113565b905060006009600084815260200190815260200160002054905081811461400c576000600860008673ffffffffffffffffffffffffffffffffffffffff1673ffffffffffffffffffffffffffffffffffffffff168152602001908152602001600020600084815260200190815260200160002054905080600860008773ffffffffffffffffffffffffffffffffffffffff1673ffffffffffffffffffffffffffffffffffffffff168152602001908152602001600020600084815260200190815260200160002081905550816009600083815260200190815260200160002081905550505b6009600084815260200190815260200160002060009055600860008573ffffffffffffffffffffffffffffffffffffffff1673ffffffffffffffffffffffffffffffffffffffff16815260200190815260200160002060008381526020019081526020016000206000905550505050565b60006001600a805490506140919190615113565b90506000600b60008481526020019081526020016000205490506000600a83815481106140c1576140c061502a565b5b9060005260206000200154905080600a83815481106140e3576140e261502a565b5b906000526020600020018190555081600b600083815260200190815260200160002081905550600b600085815260200190815260200160002060009055600a80548061413257614131615ede565b5b6001900381819060005260206000200160009055905550505050565b60006141598361180a565b905081600860008573ffffffffffffffffffffffffffffffffffffffff1673ffffffffffffffffffffffffffffffffffffffff168152602001908152602001600020600083815260200190815260200160002081905550806009600084815260200190815260200160002081905550505050565b8280546141d990614a64565b90600052602060002090601f0160209004810192826141fb5760008555614249565b82601f1061420c5780548555614249565b8280016001018555821561424957600052602060002091601f016020900482015b8281111561424857825482559160010191906001019061422d565b5b5090506142569190614342565b5090565b82805461426690614a64565b90600052602060002090601f01602090048101928261428857600085556142cf565b82601f106142a157805160ff19168380011785556142cf565b828001600101855582156142cf579182015b828111156142ce5782518255916020019190600101906142b3565b5b5090506142dc9190614342565b5090565b6040518060e00160405280600790602082028036833780820191505090505090565b50805461430e90614a64565b6000825580601f10614320575061433f565b601f01602090049060005260206000209081019061433e9190614342565b5b50565b5b8082111561435b576000816000905550600101614343565b5090565b6000604051905090565b600080fd5b600080fd5b60007fffffffff0000000000000000000000000000000000000000000000000000000082169050919050565b6143a881614373565b81146143b357600080fd5b50565b6000813590506143c58161439f565b92915050565b6000602082840312156143e1576143e0614369565b5b60006143ef848285016143b6565b91505092915050565b60008115159050919050565b61440d816143f8565b82525050565b60006020820190506144286000830184614404565b92915050565b600081519050919050565b600082825260208201905092915050565b60005b8381101561446857808201518184015260208101905061444d565b83811115614477576000848401525b50505050565b6000601f19601f8301169050919050565b60006144998261442e565b6144a38185614439565b93506144b381856020860161444a565b6144bc8161447d565b840191505092915050565b600060208201905081810360008301526144e1818461448e565b905092915050565b6000819050919050565b6144fc816144e9565b811461450757600080fd5b50565b600081359050614519816144f3565b92915050565b60006020828403121561453557614534614369565b5b60006145438482850161450a565b91505092915050565b600073ffffffffffffffffffffffffffffffffffffffff82169050919050565b60006145778261454c565b9050919050565b6145878161456c565b82525050565b60006020820190506145a2600083018461457e565b92915050565b6145b18161456c565b81146145bc57600080fd5b50565b6000813590506145ce816145a8565b92915050565b600080604083850312156145eb576145ea614369565b5b60006145f9858286016145bf565b925050602061460a8582860161450a565b9150509250929050565b61461d816144e9565b82525050565b60006020820190506146386000830184614614565b92915050565b60008060006060848603121561465757614656614369565b5b6000614665868287016145bf565b9350506020614676868287016145bf565b92505060406146878682870161450a565b9150509250925092565b600080604083850312156146a8576146a7614369565b5b60006146b68582860161450a565b92505060206146c78582860161450a565b9150509250929050565b6000602082840312156146e7576146e6614369565b5b60006146f5848285016145bf565b91505092915050565b614707816143f8565b811461471257600080fd5b50565b600081359050614724816146fe565b92915050565b6000806040838503121561474157614740614369565b5b600061474f858286016145bf565b925050602061476085828601614715565b9150509250929050565b600080fd5b600080fd5b7f4e487b7100000000000000000000000000000000000000000000000000000000600052604160045260246000fd5b6147ac8261447d565b810181811067ffffffffffffffff821117156147cb576147ca614774565b5b80604052505050565b60006147de61435f565b90506147ea82826147a3565b919050565b600067ffffffffffffffff82111561480a57614809614774565b5b6148138261447d565b9050602081019050919050565b82818337600083830152505050565b600061484261483d846147ef565b6147d4565b90508281526020810184848401111561485e5761485d61476f565b5b614869848285614820565b509392505050565b600082601f8301126148865761488561476a565b5b813561489684826020860161482f565b91505092915050565b600080600080608085870312156148b9576148b8614369565b5b60006148c7878288016145bf565b94505060206148d8878288016145bf565b93505060406148e98782880161450a565b925050606085013567ffffffffffffffff81111561490a5761490961436e565b5b61491687828801614871565b91505092959194509250565b6000806040838503121561493957614938614369565b5b6000614947858286016145bf565b9250506020614958858286016145bf565b9150509250929050565b600060079050919050565b600081905092915050565b6000819050919050565b600060ff82169050919050565b61499881614982565b82525050565b60006149aa838361498f565b60208301905092915050565b6000602082019050919050565b6149cc81614962565b6149d6818461496d565b92506149e182614978565b8060005b83811015614a125781516149f9878261499e565b9650614a04836149b6565b9250506001810190506149e5565b505050505050565b600060e082019050614a2f60008301846149c3565b92915050565b7f4e487b7100000000000000000000000000000000000000000000000000000000600052602260045260246000fd5b60006002820490506001821680614a7c57607f821691505b60208210811415614a9057614a8f614a35565b5b50919050565b7f4552433732313a20617070726f76656420717565727920666f72206e6f6e657860008201527f697374656e7420746f6b656e0000000000000000000000000000000000000000602082015250565b6000614af2602c83614439565b9150614afd82614a96565b604082019050919050565b60006020820190508181036000830152614b2181614ae5565b9050919050565b7f4552433732313a20617070726f76616c20746f2063757272656e74206f776e6560008201527f7200000000000000000000000000000000000000000000000000000000000000602082015250565b6000614b84602183614439565b9150614b8f82614b28565b604082019050919050565b60006020820190508181036000830152614bb381614b77565b9050919050565b7f4552433732313a20617070726f76652063616c6c6572206973206e6f74206f7760008201527f6e6572206e6f7220617070726f76656420666f7220616c6c0000000000000000602082015250565b6000614c16603883614439565b9150614c2182614bba565b604082019050919050565b60006020820190508181036000830152614c4581614c09565b9050919050565b7f4552433732313a207472616e736665722063616c6c6572206973206e6f74206f60008201527f776e6572206e6f7220617070726f766564000000000000000000000000000000602082015250565b6000614ca8603183614439565b9150614cb382614c4c565b604082019050919050565b60006020820190508181036000830152614cd781614c9b565b9050919050565b7f4e6f7420656e6f7567682065746865722073656e742e00000000000000000000600082015250565b6000614d14601683614439565b9150614d1f82614cde565b602082019050919050565b60006020820190508181036000830152614d4381614d07565b9050919050565b7f4e46547320617265207468652073616d65000000000000000000000000000000600082015250565b6000614d80601183614439565b9150614d8b82614d4a565b602082019050919050565b60006020820190508181036000830152614daf81614d73565b9050919050565b7f54686520746f6b656e206973206e6f7420796f75727300000000000000000000600082015250565b6000614dec601683614439565b9150614df782614db6565b602082019050919050565b60006020820190508181036000830152614e1b81614ddf565b9050919050565b600081905092915050565b7f496e50726f636573730000000000000000000000000000000000000000000000600082015250565b6000614e63600983614e22565b9150614e6e82614e2d565b600982019050919050565b6000614e8482614e56565b9150819050919050565b60008190508160005260206000209050919050565b60008154614eb081614a64565b614eba8186614e22565b94506001821660008114614ed55760018114614ee657614f19565b60ff19831686528186019350614f19565b614eef85614e8e565b60005b83811015614f1157815481890152600182019150602081019050614ef2565b838801955050505b50505092915050565b6000614f2e8284614ea3565b915081905092915050565b7f4e4654206973206e6f7420726561647900000000000000000000000000000000600082015250565b6000614f6f601083614439565b9150614f7a82614f39565b602082019050919050565b60006020820190508181036000830152614f9e81614f62565b9050919050565b7f4e487b7100000000000000000000000000000000000000000000000000000000600052601160045260246000fd5b6000614fdf826144e9565b9150614fea836144e9565b9250827fffffffffffffffffffffffffffffffffffffffffffffffffffffffffffffffff0382111561501f5761501e614fa5565b5b828201905092915050565b7f4e487b7100000000000000000000000000000000000000000000000000000000600052603260045260246000fd5b7f4e487b7100000000000000000000000000000000000000000000000000000000600052601260045260246000fd5b6000615093826144e9565b915061509e836144e9565b9250826150ae576150ad615059565b5b828204905092915050565b60006150c4826144e9565b91506150cf836144e9565b9250817fffffffffffffffffffffffffffffffffffffffffffffffffffffffffffffffff048311821515161561510857615107614fa5565b5b828202905092915050565b600061511e826144e9565b9150615129836144e9565b92508282101561513c5761513b614fa5565b5b828203905092915050565b7f6600000000000000000000000000000000000000000000000000000000000000600082015250565b600061517d600183614e22565b915061518882615147565b600182019050919050565b7f7065720000000000000000000000000000000000000000000000000000000000600082015250565b60006151c9600383614e22565b91506151d482615193565b600382019050919050565b7f7075720000000000000000000000000000000000000000000000000000000000600082015250565b6000615215600383614e22565b9150615220826151df565b600382019050919050565b600061523682615170565b91506152428288614ea3565b915061524d826151bc565b91506152598287614ea3565b915061526482615208565b91506152708286614ea3565b915061527c8285614ea3565b91506152888284614ea3565b91508190509695505050505050565b7f455243373231456e756d657261626c653a206f776e657220696e646578206f7560008201527f74206f6620626f756e6473000000000000000000000000000000000000000000602082015250565b60006152f3602b83614439565b91506152fe82615297565b604082019050919050565b60006020820190508181036000830152615322816152e6565b9050919050565b7f4f776e61626c653a2063616c6c6572206973206e6f7420746865206f776e6572600082015250565b600061535f602083614439565b915061536a82615329565b602082019050919050565b6000602082019050818103600083015261538e81615352565b9050919050565b7f42616c616e6365206973207a65726f0000000000000000000000000000000000600082015250565b60006153cb600f83614439565b91506153d682615395565b602082019050919050565b600060208201905081810360008301526153fa816153be565b9050919050565b600061540c8261442e565b6154168185614e22565b935061542681856020860161444a565b80840191505092915050565b600061543d82615170565b91506154498288614ea3565b9150615454826151bc565b91506154608287615401565b915061546b82615208565b91506154778286614ea3565b91506154838285614ea3565b915061548f8284614ea3565b91508190509695505050505050565b7f455243373231456e756d657261626c653a20676c6f62616c20696e646578206f60008201527f7574206f6620626f756e64730000000000000000000000000000000000000000602082015250565b60006154fa602c83614439565b91506155058261549e565b604082019050919050565b60006020820190508181036000830152615529816154ed565b9050919050565b7f4552433732313a206f776e657220717565727920666f72206e6f6e657869737460008201527f656e7420746f6b656e0000000000000000000000000000000000000000000000602082015250565b600061558c602983614439565b915061559782615530565b604082019050919050565b600060208201905081810360008301526155bb8161557f565b9050919050565b7f4552433732313a2062616c616e636520717565727920666f7220746865207a6560008201527f726f206164647265737300000000000000000000000000000000000000000000602082015250565b600061561e602a83614439565b9150615629826155c2565b604082019050919050565b6000602082019050818103600083015261564d81615611565b9050919050565b600061565f82614982565b915060ff82141561567357615672614fa5565b5b600182019050919050565b7f2e706e6700000000000000000000000000000000000000000000000000000000600082015250565b60006156b4600483614e22565b91506156bf8261567e565b600482019050919050565b60006156d68285615401565b91506156e28284614ea3565b91506156ed826156a7565b91508190509392505050565b7f54686520746f6b656e7320617265206e6f74207468652073616d6520636f6c6f60008201527f7200000000000000000000000000000000000000000000000000000000000000602082015250565b6000615755602183614439565b9150615760826156f9565b604082019050919050565b6000602082019050818103600083015261578481615748565b9050919050565b7f74686973204e465420686173206e6f206d6f7265206272656564696e67206f7060008201527f706f7274756e6974696573000000000000000000000000000000000000000000602082015250565b60006157e7602b83614439565b91506157f28261578b565b604082019050919050565b60006020820190508181036000830152615816816157da565b9050919050565b600061582882614982565b915061583383614982565b92508282101561584657615845614fa5565b5b828203905092915050565b7f4f776e61626c653a206e6577206f776e657220697320746865207a65726f206160008201527f6464726573730000000000000000000000000000000000000000000000000000602082015250565b60006158ad602683614439565b91506158b882615851565b604082019050919050565b600060208201905081810360008301526158dc816158a0565b9050919050565b7f746865204e465420697320616c726561647920636c61696d6564000000000000600082015250565b6000615919601a83614439565b9150615924826158e3565b602082019050919050565b600060208201905081810360008301526159488161590c565b9050919050565b600061595a826144e9565b91507fffffffffffffffffffffffffffffffffffffffffffffffffffffffffffffffff82141561598d5761598c614fa5565b5b600182019050919050565b7f4552433732313a206f70657261746f7220717565727920666f72206e6f6e657860008201527f697374656e7420746f6b656e0000000000000000000000000000000000000000602082015250565b60006159f4602c83614439565b91506159ff82615998565b604082019050919050565b60006020820190508181036000830152615a23816159e7565b9050919050565b7f4552433732313a207472616e736665722066726f6d20696e636f72726563742060008201527f6f776e6572000000000000000000000000000000000000000000000000000000602082015250565b6000615a86602583614439565b9150615a9182615a2a565b604082019050919050565b60006020820190508181036000830152615ab581615a79565b9050919050565b7f4552433732313a207472616e7366657220746f20746865207a65726f2061646460008201527f7265737300000000000000000000000000000000000000000000000000000000602082015250565b6000615b18602483614439565b9150615b2382615abc565b604082019050919050565b60006020820190508181036000830152615b4781615b0b565b9050919050565b6000819050919050565b615b69615b64826144e9565b615b4e565b82525050565b60008160601b9050919050565b6000615b8782615b6f565b9050919050565b6000615b9982615b7c565b9050919050565b615bb1615bac8261456c565b615b8e565b82525050565b6000615bc38286615b58565b602082019150615bd38285615b58565b602082019150615be38284615ba0565b601482019150819050949350505050565b6000615bff826144e9565b9150615c0a836144e9565b925082615c1a57615c19615059565b5b828206905092915050565b7f4552433732313a20617070726f766520746f2063616c6c657200000000000000600082015250565b6000615c5b601983614439565b9150615c6682615c25565b602082019050919050565b60006020820190508181036000830152615c8a81615c4e565b9050919050565b7f4552433732313a207472616e7366657220746f206e6f6e20455243373231526560008201527f63656976657220696d706c656d656e7465720000000000000000000000000000602082015250565b6000615ced603283614439565b9150615cf882615c91565b604082019050919050565b60006020820190508181036000830152615d1c81615ce0565b9050919050565b600081519050919050565b600082825260208201905092915050565b6000615d4a82615d23565b615d548185615d2e565b9350615d6481856020860161444a565b615d6d8161447d565b840191505092915050565b6000608082019050615d8d600083018761457e565b615d9a602083018661457e565b615da76040830185614614565b8181036060830152615db98184615d3f565b905095945050505050565b600081519050615dd38161439f565b92915050565b600060208284031215615def57615dee614369565b5b6000615dfd84828501615dc4565b91505092915050565b7f4552433732313a206d696e7420746f20746865207a65726f2061646472657373600082015250565b6000615e3c602083614439565b9150615e4782615e06565b602082019050919050565b60006020820190508181036000830152615e6b81615e2f565b9050919050565b7f4552433732313a20746f6b656e20616c7265616479206d696e74656400000000600082015250565b6000615ea8601c83614439565b9150615eb382615e72565b602082019050919050565b60006020820190508181036000830152615ed781615e9b565b9050919050565b7f4e487b7100000000000000000000000000000000000000000000000000000000600052603160045260246000fdfea2646970667358221220c47b826c7b393928bb7e75808ab158499599a8f1849861f76e6525dc6909159d64736f6c634300080b0033",
  "immutableReferences": {},
  "source": "// SPDX-License-Identifier: MIT\r\npragma solidity ^0.8.4;\r\n\r\nimport \"@openzeppelin/contracts/token/ERC721/ERC721.sol\";\r\nimport \"@openzeppelin/contracts/access/Ownable.sol\";\r\nimport \"@openzeppelin/contracts/utils/Counters.sol\";\r\nimport \"@openzeppelin/contracts/token/ERC721/extensions/ERC721URIStorage.sol\";\r\nimport \"@openzeppelin/contracts/token/ERC721/extensions/ERC721Enumerable.sol\";\r\n\r\ncontract NFT is ERC721, Ownable, ERC721URIStorage, ERC721Enumerable {\r\n    using Counters for Counters.Counter;\r\n\r\n    Counters.Counter private _tokenIdCounter;\r\n\r\n    uint256 TX_PRICE = 0.2 ether;\r\n    string[4] colors = [\"azul\", \"verde\", \"rosa\", \"marron\"];\r\n    string[10] numbers = [\"0\", \"1\", \"2\", \"3\", \"4\", \"5\", \"6\", \"7\", \"8\", \"9\"];\r\n    string[6] backgroundStrings = [\"1\", \"2\", \"3\", \"4\", \"5\", \"6\"];\r\n\r\n    struct token {\r\n        string name;\r\n        uint256 breeding;\r\n        string color;\r\n        uint256 number;\r\n        uint256 purity;\r\n        uint256 background;\r\n        uint256 timeToClaim;\r\n    }\r\n\r\n    mapping(uint256 => token) tokenInfo;\r\n    mapping(uint256 => uint256) tokenMinPurity;\r\n    uint256 actualTokenNumber = 0;\r\n\r\n    function random(uint256 _numberMin, uint256 _numberMax)\r\n        internal\r\n        view\r\n        returns (uint256)\r\n    {\r\n        uint256 rodom = (uint256(\r\n            keccak256(\r\n                abi.encodePacked(block.timestamp, block.difficulty, msg.sender)\r\n            )\r\n        ) % (_numberMax - _numberMin));\r\n        return rodom + _numberMin;\r\n    }\r\n\r\n    struct challenge {\r\n        string title;\r\n        string subtitle;\r\n        uint8 totalTimes;\r\n    }\r\n\r\n    struct individualChallenge {\r\n        bool complete;\r\n        uint8 times;\r\n    }\r\n\r\n    mapping(uint8 => challenge) challenges;\r\n    mapping(address => mapping(uint8 => individualChallenge)) completeChallengesByAddres;\r\n\r\n    mapping(address => uint256) winningAddresses;\r\n    uint256 winners = 0;\r\n\r\n    mapping(address => uint256) playersAddresses;\r\n    uint256 players = 0;\r\n\r\n    /* CHALLENGES\r\n1: Craft\r\nUsa la opcion de craft en el apartado craft 10 veces\r\n\r\n2: Mint\r\nUsa la opcion de mint en el apartado inventario 5 veces\r\n\r\n3: Breed\r\nUsa la opcion de breed en el apartado breed 25 veces\r\n\r\n4: Claim\r\nUsa la opcion de claim en el apartado inventario 25 veces\r\n\r\n5: Zero Breed\r\nDeja un nft sin posivilidad de breedear\r\n\r\n6: 40 NFTs\r\nConsigue 40 nfts\r\n\r\n7: Purity 100\r\nHacer claim y obtener un nft de 100 de pureza\r\n*/\r\n    constructor() ERC721(\"MyToken\", \"MTK\") {\r\n        challenges[1].totalTimes = 10;\r\n\r\n        challenges[2].totalTimes = 5;\r\n\r\n        challenges[3].totalTimes = 25;\r\n\r\n        challenges[4].totalTimes = 25;\r\n\r\n        challenges[5].totalTimes = 1;\r\n\r\n        challenges[6].totalTimes = 40;\r\n\r\n        challenges[7].totalTimes = 1;\r\n    }\r\n\r\n    function ChallengeAddOneTime(address _address, uint8 _challenge) internal {\r\n        if (\r\n            completeChallengesByAddres[_address][_challenge].complete == false\r\n        ) {\r\n            completeChallengesByAddres[_address][_challenge].times++;\r\n            if (\r\n                completeChallengesByAddres[_address][_challenge].times >=\r\n                challenges[_challenge].totalTimes\r\n            ) {\r\n                completeChallengesByAddres[_address][_challenge]\r\n                    .complete = true;\r\n                if (checkChallenges(_address)) {\r\n                    winners++;\r\n                    winningAddresses[_address] = winners;\r\n                }\r\n            }\r\n        }\r\n    }\r\n\r\n    function viewChallengesByAddress(address _address)\r\n        public\r\n        view\r\n        returns (uint8[7] memory)\r\n    {\r\n        uint8[7] memory array = [1, 2, 3, 4, 5, 6, 7];\r\n        for (uint8 i = 1; i <= 7; i++) {\r\n            array[i - 1] = completeChallengesByAddres[_address][i].times;\r\n        }\r\n        return array;\r\n    }\r\n\r\n    function checkChallenges(address _address) public view returns (bool) {\r\n        for (uint8 i = 1; i <= 7; i++) {\r\n            if (completeChallengesByAddres[_address][i].complete != true) {\r\n                return false;\r\n            }\r\n        }\r\n        return true;\r\n    }\r\n\r\n    //------------\r\n    function safeMint(address to) public payable {\r\n        require(msg.value >= TX_PRICE, \"Not enough ether sent.\");\r\n        uint256 tokenId = _tokenIdCounter.current();\r\n        uint256 purity = random(1, 10);\r\n        uint256 background = random(0, 6);\r\n        string memory color = colors[random(0, 4)];\r\n        string memory name = string(\r\n            abi.encodePacked(\r\n                \"f\",\r\n                backgroundStrings[background],\r\n                \"per\",\r\n                color,\r\n                \"pur\",\r\n                numbers[purity / 100],\r\n                numbers[purity / 10],\r\n                numbers[purity - ((uint256(purity / 10)) * 10)]\r\n            )\r\n        );\r\n        tokenInfo[tokenId].name = name;\r\n        tokenInfo[tokenId].breeding = 4;\r\n        tokenInfo[tokenId].purity = purity;\r\n        tokenInfo[tokenId].color = color;\r\n        tokenInfo[tokenId].background = background;\r\n        actualTokenNumber = actualTokenNumber + 1;\r\n        tokenInfo[tokenId].number = actualTokenNumber;\r\n        _tokenIdCounter.increment();\r\n        ChallengeAddOneTime(msg.sender, 2);\r\n        ChallengeAddOneTime(msg.sender, 6);\r\n        _safeMint(to, tokenId);\r\n    }\r\n\r\n    function breed(uint256 _idToken1, uint256 _idToken2) public payable {\r\n        require(msg.value >= TX_PRICE, \"Not enough ether sent.\");\r\n        require(_idToken1 != _idToken2, \"NFTs are the same\");\r\n        require(ownerOf(_idToken1) == msg.sender, \"The token is not yours\");\r\n        require(ownerOf(_idToken2) == msg.sender, \"The token is not yours\");\r\n        require(\r\n            (keccak256(abi.encodePacked(tokenInfo[_idToken1].color))) ==\r\n                (keccak256(abi.encodePacked(tokenInfo[_idToken2].color))),\r\n            \"The tokens are not the same color\"\r\n        );\r\n        require(\r\n            tokenInfo[_idToken1].breeding > 0,\r\n            \"this NFT has no more breeding opportunities\"\r\n        );\r\n        require(\r\n            tokenInfo[_idToken2].breeding > 0,\r\n            \"this NFT has no more breeding opportunities\"\r\n        );\r\n        require(\r\n            (keccak256(abi.encodePacked(tokenInfo[_idToken1].name))) !=\r\n                (keccak256(abi.encodePacked(\"InProcess\"))),\r\n            \"NFT is not ready\"\r\n        );\r\n        require(\r\n            (keccak256(abi.encodePacked(tokenInfo[_idToken2].name))) !=\r\n                (keccak256(abi.encodePacked(\"InProcess\"))),\r\n            \"NFT is not ready\"\r\n        );\r\n        tokenInfo[_idToken1].breeding = tokenInfo[_idToken1].breeding - 1;\r\n        tokenInfo[_idToken2].breeding = tokenInfo[_idToken2].breeding - 1;\r\n        internalSafeMint(\r\n            msg.sender,\r\n            tokenInfo[_idToken1].purity,\r\n            tokenInfo[_idToken2].purity\r\n        );\r\n        if (\r\n            tokenInfo[_idToken1].breeding == 0 ||\r\n            tokenInfo[_idToken2].breeding == 0\r\n        ) {\r\n            ChallengeAddOneTime(msg.sender, 5);\r\n        }\r\n        ChallengeAddOneTime(msg.sender, 3);\r\n    }\r\n\r\n    function internalSafeMint(\r\n        address to,\r\n        uint256 purityToken1,\r\n        uint256 purityToken2\r\n    ) internal {\r\n        uint256 randomMin = (purityToken1 + purityToken2) / 2;\r\n        uint256 purity = random(randomMin, randomMin + 10);\r\n        uint256 tokenId = _tokenIdCounter.current();\r\n        uint256 timeToClaim = block.timestamp +\r\n            /*12 hours*/\r\n            10 seconds;\r\n        string memory name = \"InProcess\";\r\n        uint256 background = random(0, 6);\r\n        string memory color;\r\n        if (purity >= 100) {\r\n            purity = 100;\r\n            color = \"dorado\";\r\n            tokenInfo[tokenId].breeding = 0;\r\n        } else {\r\n            color = colors[random(0, 4)];\r\n            tokenInfo[tokenId].breeding = 4;\r\n        }\r\n        tokenMinPurity[tokenId] = randomMin;\r\n        tokenInfo[tokenId].timeToClaim = timeToClaim;\r\n        tokenInfo[tokenId].name = name;\r\n        tokenInfo[tokenId].purity = purity;\r\n        tokenInfo[tokenId].color = color;\r\n        tokenInfo[tokenId].background = background;\r\n        actualTokenNumber = actualTokenNumber + 1;\r\n        tokenInfo[tokenId].number = actualTokenNumber;\r\n        _tokenIdCounter.increment();\r\n        _safeMint(to, tokenId);\r\n    }\r\n\r\n    function claimNFT(uint256 _tokenId) public payable {\r\n        require(msg.value >= TX_PRICE, \"Not enough ether sent.\");\r\n        require(\r\n            (keccak256(abi.encodePacked(tokenInfo[_tokenId].name))) ==\r\n                (keccak256(abi.encodePacked(\"InProcess\"))),\r\n            \"the NFT is already claimed\"\r\n        );\r\n        if (tokenInfo[_tokenId].purity >= 35) {\r\n            if (playersAddresses[msg.sender] == 0) {\r\n                players++;\r\n                playersAddresses[msg.sender] = players;\r\n            }\r\n        }\r\n        if (tokenInfo[_tokenId].purity == 100) {\r\n            tokenInfo[_tokenId].name = \"pur100\";\r\n            ChallengeAddOneTime(msg.sender, 7);\r\n        } else {\r\n            tokenInfo[_tokenId].name = string(\r\n                abi.encodePacked(\r\n                    \"f\",\r\n                    backgroundStrings[tokenInfo[_tokenId].background],\r\n                    \"per\",\r\n                    tokenInfo[_tokenId].color,\r\n                    \"pur\",\r\n                    numbers[tokenInfo[_tokenId].purity / 100],\r\n                    numbers[tokenInfo[_tokenId].purity / 10],\r\n                    numbers[\r\n                        tokenInfo[_tokenId].purity -\r\n                            ((uint256(tokenInfo[_tokenId].purity / 10)) * 10)\r\n                    ]\r\n                )\r\n            );\r\n        }\r\n        ChallengeAddOneTime(msg.sender, 4);\r\n        ChallengeAddOneTime(msg.sender, 6);\r\n    }\r\n\r\n    function craft(uint256 _idToken1, uint256 _idToken2) public payable {\r\n        require(msg.value >= TX_PRICE, \"Not enough ether sent.\");\r\n        require(_idToken1 != _idToken2, \"NFTs are the same\");\r\n        require(ownerOf(_idToken1) == msg.sender, \"The token is not yours\");\r\n        require(ownerOf(_idToken2) == msg.sender, \"The token is not yours\");\r\n        require(\r\n            (keccak256(abi.encodePacked(tokenInfo[_idToken1].name))) !=\r\n                (keccak256(abi.encodePacked(\"InProcess\"))),\r\n            \"NFT is not ready\"\r\n        );\r\n        require(\r\n            (keccak256(abi.encodePacked(tokenInfo[_idToken2].name))) !=\r\n                (keccak256(abi.encodePacked(\"InProcess\"))),\r\n            \"NFT is not ready\"\r\n        );\r\n\r\n        uint256 numberOfBreeds = tokenInfo[_idToken1].breeding +\r\n            tokenInfo[_idToken2].breeding;\r\n\r\n        if (numberOfBreeds >= 4) {\r\n            tokenInfo[_idToken1].breeding = 4;\r\n        } else {\r\n            tokenInfo[_idToken1].breeding = numberOfBreeds;\r\n        }\r\n\r\n        tokenInfo[_idToken1].color = tokenInfo[_idToken2].color;\r\n\r\n        if (tokenInfo[_idToken1].purity > tokenInfo[_idToken2].purity) {\r\n            tokenInfo[_idToken1].purity = random(\r\n                tokenInfo[_idToken2].purity,\r\n                tokenInfo[_idToken1].purity\r\n            );\r\n        } else if (tokenInfo[_idToken1].purity < tokenInfo[_idToken2].purity) {\r\n            tokenInfo[_idToken1].purity = random(\r\n                tokenInfo[_idToken1].purity,\r\n                tokenInfo[_idToken2].purity\r\n            );\r\n        }\r\n\r\n        string memory name = string(\r\n            abi.encodePacked(\r\n                \"f\",\r\n                backgroundStrings[tokenInfo[_idToken1].background],\r\n                \"per\",\r\n                tokenInfo[_idToken1].color,\r\n                \"pur\",\r\n                numbers[tokenInfo[_idToken1].purity / 100],\r\n                numbers[tokenInfo[_idToken1].purity / 10],\r\n                numbers[\r\n                    tokenInfo[_idToken1].purity -\r\n                        ((uint256(tokenInfo[_idToken1].purity / 10)) * 10)\r\n                ]\r\n            )\r\n        );\r\n        ChallengeAddOneTime(msg.sender, 1);\r\n        tokenInfo[_idToken1].name = name;\r\n        _burn(_idToken2);\r\n    }\r\n\r\n    //NFT base\r\n\r\n    function _baseURI() internal pure override returns (string memory) {\r\n        return \"./NFTs/\";\r\n    }\r\n\r\n    function _burn(uint256 tokenId)\r\n        internal\r\n        override(ERC721, ERC721URIStorage)\r\n    {\r\n        super._burn(tokenId);\r\n    }\r\n\r\n    function withdraw() public onlyOwner {\r\n        require(address(this).balance > 0, \"Balance is zero\");\r\n        payable(owner()).transfer(address(this).balance);\r\n    }\r\n\r\n    function tokenURI(uint256 tokenId)\r\n        public\r\n        view\r\n        virtual\r\n        override(ERC721, ERC721URIStorage)\r\n        returns (string memory)\r\n    {\r\n        string memory baseURI = _baseURI();\r\n        return\r\n            string(abi.encodePacked(baseURI, tokenInfo[tokenId].name, \".png\"));\r\n    }\r\n\r\n    function _beforeTokenTransfer(\r\n        address from,\r\n        address to,\r\n        uint256 tokenId\r\n    ) internal override(ERC721, ERC721Enumerable) {\r\n        super._beforeTokenTransfer(from, to, tokenId);\r\n    }\r\n\r\n    function supportsInterface(bytes4 interfaceId)\r\n        public\r\n        view\r\n        override(ERC721, ERC721Enumerable)\r\n        returns (bool)\r\n    {\r\n        return super.supportsInterface(interfaceId);\r\n    }\r\n\r\n    //Getters\r\n    function getWinnersPosition(address _wallet) public view returns (uint256) {\r\n        return winningAddresses[_wallet];\r\n    }\r\n\r\n    function getNumberOfWinners() public view returns (uint256) {\r\n        return winners;\r\n    }\r\n\r\n    function getNumberOfPlayers() public view returns (uint256) {\r\n        return players;\r\n    }\r\n\r\n    function getTokenTimeToClaim(uint256 _tokenId)\r\n        public\r\n        view\r\n        returns (uint256)\r\n    {\r\n        return tokenInfo[_tokenId].timeToClaim;\r\n    }\r\n\r\n    function getTokenName(uint256 _tokenId)\r\n        public\r\n        view\r\n        returns (string memory)\r\n    {\r\n        return tokenInfo[_tokenId].name;\r\n    }\r\n\r\n    function getMinPurity(uint256 _tokenId) public view returns (uint256) {\r\n        return tokenMinPurity[_tokenId];\r\n    }\r\n\r\n    function getTokenBreeding(uint256 _tokenId) public view returns (uint256) {\r\n        return tokenInfo[_tokenId].breeding;\r\n    }\r\n\r\n    function getTokenBackground(uint256 _tokenId)\r\n        public\r\n        view\r\n        returns (uint256)\r\n    {\r\n        /*require(\r\n            tokenInfo[_tokenId].timeToClaim < block.timestamp,\r\n            \"NFT is not ready\"\r\n        );*/\r\n        return tokenInfo[_tokenId].background;\r\n    }\r\n\r\n    function getTokenColor(uint256 _tokenId)\r\n        public\r\n        view\r\n        returns (string memory)\r\n    {\r\n        /*require(\r\n            tokenInfo[_tokenId].timeToClaim < block.timestamp,\r\n            \"NFT is not ready\"\r\n        );*/\r\n        return tokenInfo[_tokenId].color;\r\n    }\r\n\r\n    function getTokenNumber(uint256 _tokenId) public view returns (uint256) {\r\n        /*provisional\r\n        require(\r\n            tokenInfo[_tokenId].timeToClaim < block.timestamp,\r\n            \"NFT is not ready\"\r\n        );*/\r\n        return tokenInfo[_tokenId].number;\r\n    }\r\n\r\n    function getTokenPurity(uint256 _tokenId) public view returns (uint256) {\r\n        /*require(\r\n            tokenInfo[_tokenId].timeToClaim < block.timestamp,\r\n            \"NFT is not ready\"\r\n        );*/\r\n        return tokenInfo[_tokenId].purity;\r\n    }\r\n}\r\n",
  "sourcePath": "D:\\ProyectoGenesis\\genesis\\contracts\\NFT.sol",
  "compiler": {
    "name": "solc",
    "version": "0.8.11+commit.d7f03943.Emscripten.clang"
  },
  "schemaVersion": "3.4.4",
  "updatedAt": "2022-07-30T17:24:50.581Z",
  "networkType": "ethereum",
  "devdoc": {
    "kind": "dev",
    "methods": {
      "approve(address,uint256)": {
        "details": "See {IERC721-approve}."
      },
      "balanceOf(address)": {
        "details": "See {IERC721-balanceOf}."
      },
      "getApproved(uint256)": {
        "details": "See {IERC721-getApproved}."
      },
      "isApprovedForAll(address,address)": {
        "details": "See {IERC721-isApprovedForAll}."
      },
      "name()": {
        "details": "See {IERC721Metadata-name}."
      },
      "owner()": {
        "details": "Returns the address of the current owner."
      },
      "ownerOf(uint256)": {
        "details": "See {IERC721-ownerOf}."
      },
      "renounceOwnership()": {
        "details": "Leaves the contract without owner. It will not be possible to call `onlyOwner` functions anymore. Can only be called by the current owner. NOTE: Renouncing ownership will leave the contract without an owner, thereby removing any functionality that is only available to the owner."
      },
      "safeTransferFrom(address,address,uint256)": {
        "details": "See {IERC721-safeTransferFrom}."
      },
      "safeTransferFrom(address,address,uint256,bytes)": {
        "details": "See {IERC721-safeTransferFrom}."
      },
      "setApprovalForAll(address,bool)": {
        "details": "See {IERC721-setApprovalForAll}."
      },
      "symbol()": {
        "details": "See {IERC721Metadata-symbol}."
      },
      "tokenByIndex(uint256)": {
        "details": "See {IERC721Enumerable-tokenByIndex}."
      },
      "tokenOfOwnerByIndex(address,uint256)": {
        "details": "See {IERC721Enumerable-tokenOfOwnerByIndex}."
      },
      "totalSupply()": {
        "details": "See {IERC721Enumerable-totalSupply}."
      },
      "transferFrom(address,address,uint256)": {
        "details": "See {IERC721-transferFrom}."
      },
      "transferOwnership(address)": {
        "details": "Transfers ownership of the contract to a new account (`newOwner`). Can only be called by the current owner."
      }
    },
    "version": 1
  },
  "userdoc": {
    "kind": "user",
    "methods": {},
    "version": 1
  }
}