{
  "contractName": "NFT",
  "abi": [
    {
      "inputs": [],
      "stateMutability": "nonpayable",
      "type": "constructor"
    },
    {
      "anonymous": false,
      "inputs": [
        {
          "indexed": true,
          "internalType": "address",
          "name": "owner",
          "type": "address"
        },
        {
          "indexed": true,
          "internalType": "address",
          "name": "approved",
          "type": "address"
        },
        {
          "indexed": true,
          "internalType": "uint256",
          "name": "tokenId",
          "type": "uint256"
        }
      ],
      "name": "Approval",
      "type": "event"
    },
    {
      "anonymous": false,
      "inputs": [
        {
          "indexed": true,
          "internalType": "address",
          "name": "owner",
          "type": "address"
        },
        {
          "indexed": true,
          "internalType": "address",
          "name": "operator",
          "type": "address"
        },
        {
          "indexed": false,
          "internalType": "bool",
          "name": "approved",
          "type": "bool"
        }
      ],
      "name": "ApprovalForAll",
      "type": "event"
    },
    {
      "anonymous": false,
      "inputs": [
        {
          "indexed": true,
          "internalType": "address",
          "name": "previousOwner",
          "type": "address"
        },
        {
          "indexed": true,
          "internalType": "address",
          "name": "newOwner",
          "type": "address"
        }
      ],
      "name": "OwnershipTransferred",
      "type": "event"
    },
    {
      "anonymous": false,
      "inputs": [
        {
          "indexed": true,
          "internalType": "address",
          "name": "from",
          "type": "address"
        },
        {
          "indexed": true,
          "internalType": "address",
          "name": "to",
          "type": "address"
        },
        {
          "indexed": true,
          "internalType": "uint256",
          "name": "tokenId",
          "type": "uint256"
        }
      ],
      "name": "Transfer",
      "type": "event"
    },
    {
      "inputs": [
        {
          "internalType": "address",
          "name": "to",
          "type": "address"
        },
        {
          "internalType": "uint256",
          "name": "tokenId",
          "type": "uint256"
        }
      ],
      "name": "approve",
      "outputs": [],
      "stateMutability": "nonpayable",
      "type": "function"
    },
    {
      "inputs": [
        {
          "internalType": "address",
          "name": "owner",
          "type": "address"
        }
      ],
      "name": "balanceOf",
      "outputs": [
        {
          "internalType": "uint256",
          "name": "",
          "type": "uint256"
        }
      ],
      "stateMutability": "view",
      "type": "function",
      "constant": true
    },
    {
      "inputs": [
        {
          "internalType": "uint256",
          "name": "tokenId",
          "type": "uint256"
        }
      ],
      "name": "getApproved",
      "outputs": [
        {
          "internalType": "address",
          "name": "",
          "type": "address"
        }
      ],
      "stateMutability": "view",
      "type": "function",
      "constant": true
    },
    {
      "inputs": [
        {
          "internalType": "address",
          "name": "owner",
          "type": "address"
        },
        {
          "internalType": "address",
          "name": "operator",
          "type": "address"
        }
      ],
      "name": "isApprovedForAll",
      "outputs": [
        {
          "internalType": "bool",
          "name": "",
          "type": "bool"
        }
      ],
      "stateMutability": "view",
      "type": "function",
      "constant": true
    },
    {
      "inputs": [],
      "name": "name",
      "outputs": [
        {
          "internalType": "string",
          "name": "",
          "type": "string"
        }
      ],
      "stateMutability": "view",
      "type": "function",
      "constant": true
    },
    {
      "inputs": [],
      "name": "owner",
      "outputs": [
        {
          "internalType": "address",
          "name": "",
          "type": "address"
        }
      ],
      "stateMutability": "view",
      "type": "function",
      "constant": true
    },
    {
      "inputs": [
        {
          "internalType": "uint256",
          "name": "tokenId",
          "type": "uint256"
        }
      ],
      "name": "ownerOf",
      "outputs": [
        {
          "internalType": "address",
          "name": "",
          "type": "address"
        }
      ],
      "stateMutability": "view",
      "type": "function",
      "constant": true
    },
    {
      "inputs": [],
      "name": "renounceOwnership",
      "outputs": [],
      "stateMutability": "nonpayable",
      "type": "function"
    },
    {
      "inputs": [
        {
          "internalType": "address",
          "name": "from",
          "type": "address"
        },
        {
          "internalType": "address",
          "name": "to",
          "type": "address"
        },
        {
          "internalType": "uint256",
          "name": "tokenId",
          "type": "uint256"
        }
      ],
      "name": "safeTransferFrom",
      "outputs": [],
      "stateMutability": "nonpayable",
      "type": "function"
    },
    {
      "inputs": [
        {
          "internalType": "address",
          "name": "from",
          "type": "address"
        },
        {
          "internalType": "address",
          "name": "to",
          "type": "address"
        },
        {
          "internalType": "uint256",
          "name": "tokenId",
          "type": "uint256"
        },
        {
          "internalType": "bytes",
          "name": "_data",
          "type": "bytes"
        }
      ],
      "name": "safeTransferFrom",
      "outputs": [],
      "stateMutability": "nonpayable",
      "type": "function"
    },
    {
      "inputs": [
        {
          "internalType": "address",
          "name": "operator",
          "type": "address"
        },
        {
          "internalType": "bool",
          "name": "approved",
          "type": "bool"
        }
      ],
      "name": "setApprovalForAll",
      "outputs": [],
      "stateMutability": "nonpayable",
      "type": "function"
    },
    {
      "inputs": [],
      "name": "symbol",
      "outputs": [
        {
          "internalType": "string",
          "name": "",
          "type": "string"
        }
      ],
      "stateMutability": "view",
      "type": "function",
      "constant": true
    },
    {
      "inputs": [
        {
          "internalType": "uint256",
          "name": "index",
          "type": "uint256"
        }
      ],
      "name": "tokenByIndex",
      "outputs": [
        {
          "internalType": "uint256",
          "name": "",
          "type": "uint256"
        }
      ],
      "stateMutability": "view",
      "type": "function",
      "constant": true
    },
    {
      "inputs": [
        {
          "internalType": "address",
          "name": "owner",
          "type": "address"
        },
        {
          "internalType": "uint256",
          "name": "index",
          "type": "uint256"
        }
      ],
      "name": "tokenOfOwnerByIndex",
      "outputs": [
        {
          "internalType": "uint256",
          "name": "",
          "type": "uint256"
        }
      ],
      "stateMutability": "view",
      "type": "function",
      "constant": true
    },
    {
      "inputs": [],
      "name": "totalSupply",
      "outputs": [
        {
          "internalType": "uint256",
          "name": "",
          "type": "uint256"
        }
      ],
      "stateMutability": "view",
      "type": "function",
      "constant": true
    },
    {
      "inputs": [
        {
          "internalType": "address",
          "name": "from",
          "type": "address"
        },
        {
          "internalType": "address",
          "name": "to",
          "type": "address"
        },
        {
          "internalType": "uint256",
          "name": "tokenId",
          "type": "uint256"
        }
      ],
      "name": "transferFrom",
      "outputs": [],
      "stateMutability": "nonpayable",
      "type": "function"
    },
    {
      "inputs": [
        {
          "internalType": "address",
          "name": "newOwner",
          "type": "address"
        }
      ],
      "name": "transferOwnership",
      "outputs": [],
      "stateMutability": "nonpayable",
      "type": "function"
    },
    {
      "inputs": [
        {
          "internalType": "address",
          "name": "to",
          "type": "address"
        }
      ],
      "name": "safeMint",
      "outputs": [],
      "stateMutability": "nonpayable",
      "type": "function"
    },
    {
      "inputs": [
        {
          "internalType": "uint256",
          "name": "_idToken1",
          "type": "uint256"
        },
        {
          "internalType": "uint256",
          "name": "_idToken2",
          "type": "uint256"
        }
      ],
      "name": "breed",
      "outputs": [],
      "stateMutability": "nonpayable",
      "type": "function"
    },
    {
      "inputs": [
        {
          "internalType": "uint256",
          "name": "_tokenId",
          "type": "uint256"
        }
      ],
      "name": "claimNFT",
      "outputs": [],
      "stateMutability": "nonpayable",
      "type": "function"
    },
    {
      "inputs": [
        {
          "internalType": "uint256",
          "name": "_idToken1",
          "type": "uint256"
        },
        {
          "internalType": "uint256",
          "name": "_idToken2",
          "type": "uint256"
        }
      ],
      "name": "craft",
      "outputs": [],
      "stateMutability": "nonpayable",
      "type": "function"
    },
    {
      "inputs": [],
      "name": "withdraw",
      "outputs": [],
      "stateMutability": "nonpayable",
      "type": "function"
    },
    {
      "inputs": [
        {
          "internalType": "uint256",
          "name": "tokenId",
          "type": "uint256"
        }
      ],
      "name": "tokenURI",
      "outputs": [
        {
          "internalType": "string",
          "name": "",
          "type": "string"
        }
      ],
      "stateMutability": "view",
      "type": "function",
      "constant": true
    },
    {
      "inputs": [
        {
          "internalType": "bytes4",
          "name": "interfaceId",
          "type": "bytes4"
        }
      ],
      "name": "supportsInterface",
      "outputs": [
        {
          "internalType": "bool",
          "name": "",
          "type": "bool"
        }
      ],
      "stateMutability": "view",
      "type": "function",
      "constant": true
    },
    {
      "inputs": [
        {
          "internalType": "uint256",
          "name": "_tokenId",
          "type": "uint256"
        }
      ],
      "name": "getTokenTimeToClaim",
      "outputs": [
        {
          "internalType": "uint256",
          "name": "",
          "type": "uint256"
        }
      ],
      "stateMutability": "view",
      "type": "function",
      "constant": true
    },
    {
      "inputs": [
        {
          "internalType": "uint256",
          "name": "_tokenId",
          "type": "uint256"
        }
      ],
      "name": "getTokenName",
      "outputs": [
        {
          "internalType": "string",
          "name": "",
          "type": "string"
        }
      ],
      "stateMutability": "view",
      "type": "function",
      "constant": true
    },
    {
      "inputs": [
        {
          "internalType": "uint256",
          "name": "_tokenId",
          "type": "uint256"
        }
      ],
      "name": "getMinPurity",
      "outputs": [
        {
          "internalType": "uint256",
          "name": "",
          "type": "uint256"
        }
      ],
      "stateMutability": "view",
      "type": "function",
      "constant": true
    },
    {
      "inputs": [
        {
          "internalType": "uint256",
          "name": "_tokenId",
          "type": "uint256"
        }
      ],
      "name": "getTokenBreeding",
      "outputs": [
        {
          "internalType": "uint256",
          "name": "",
          "type": "uint256"
        }
      ],
      "stateMutability": "view",
      "type": "function",
      "constant": true
    },
    {
      "inputs": [
        {
          "internalType": "uint256",
          "name": "_tokenId",
          "type": "uint256"
        }
      ],
      "name": "getTokenBackground",
      "outputs": [
        {
          "internalType": "uint256",
          "name": "",
          "type": "uint256"
        }
      ],
      "stateMutability": "view",
      "type": "function",
      "constant": true
    },
    {
      "inputs": [
        {
          "internalType": "uint256",
          "name": "_tokenId",
          "type": "uint256"
        }
      ],
      "name": "getTokenColor",
      "outputs": [
        {
          "internalType": "string",
          "name": "",
          "type": "string"
        }
      ],
      "stateMutability": "view",
      "type": "function",
      "constant": true
    },
    {
      "inputs": [
        {
          "internalType": "uint256",
          "name": "_tokenId",
          "type": "uint256"
        }
      ],
      "name": "getTokenNumber",
      "outputs": [
        {
          "internalType": "uint256",
          "name": "",
          "type": "uint256"
        }
      ],
      "stateMutability": "view",
      "type": "function",
      "constant": true
    },
    {
      "inputs": [
        {
          "internalType": "uint256",
          "name": "_tokenId",
          "type": "uint256"
        }
      ],
      "name": "getTokenPurity",
      "outputs": [
        {
          "internalType": "uint256",
          "name": "",
          "type": "uint256"
        }
      ],
      "stateMutability": "view",
      "type": "function",
      "constant": true
    }
  ],
  "bytecode": "0x6080604052678ac7230489e80000600d5560405180608001604052806040518060400160405280600481526020017f617a756c0000000000000000000000000000000000000000000000000000000081525081526020016040518060400160405280600581526020017f766572646500000000000000000000000000000000000000000000000000000081525081526020016040518060400160405280600481526020017f726f73610000000000000000000000000000000000000000000000000000000081525081526020016040518060400160405280600681526020017f6d6172726f6e0000000000000000000000000000000000000000000000000000815250815250600e90600462000117929190620006a8565b506040518061014001604052806040518060400160405280600181526020017f300000000000000000000000000000000000000000000000000000000000000081525081526020016040518060400160405280600181526020017f310000000000000000000000000000000000000000000000000000000000000081525081526020016040518060400160405280600181526020017f320000000000000000000000000000000000000000000000000000000000000081525081526020016040518060400160405280600181526020017f330000000000000000000000000000000000000000000000000000000000000081525081526020016040518060400160405280600181526020017f340000000000000000000000000000000000000000000000000000000000000081525081526020016040518060400160405280600181526020017f350000000000000000000000000000000000000000000000000000000000000081525081526020016040518060400160405280600181526020017f360000000000000000000000000000000000000000000000000000000000000081525081526020016040518060400160405280600181526020017f370000000000000000000000000000000000000000000000000000000000000081525081526020016040518060400160405280600181526020017f380000000000000000000000000000000000000000000000000000000000000081525081526020016040518060400160405280600181526020017f3900000000000000000000000000000000000000000000000000000000000000815250815250601290600a6200038292919062000702565b506040518060c001604052806040518060400160405280600181526020017f310000000000000000000000000000000000000000000000000000000000000081525081526020016040518060400160405280600181526020017f320000000000000000000000000000000000000000000000000000000000000081525081526020016040518060400160405280600181526020017f330000000000000000000000000000000000000000000000000000000000000081525081526020016040518060400160405280600181526020017f340000000000000000000000000000000000000000000000000000000000000081525081526020016040518060400160405280600181526020017f350000000000000000000000000000000000000000000000000000000000000081525081526020016040518060400160405280600181526020017f3600000000000000000000000000000000000000000000000000000000000000815250815250601c906006620005009291906200075c565b5060006024553480156200051357600080fd5b506040518060400160405280600781526020017f4d79546f6b656e000000000000000000000000000000000000000000000000008152506040518060400160405280600381526020017f4d544b0000000000000000000000000000000000000000000000000000000000815250816000908051906020019062000598929190620007b6565b508060019080519060200190620005b1929190620007b6565b505050620005d4620005c8620005da60201b60201c565b620005e260201b60201c565b62000939565b600033905090565b6000600660009054906101000a900473ffffffffffffffffffffffffffffffffffffffff16905081600660006101000a81548173ffffffffffffffffffffffffffffffffffffffff021916908373ffffffffffffffffffffffffffffffffffffffff1602179055508173ffffffffffffffffffffffffffffffffffffffff168173ffffffffffffffffffffffffffffffffffffffff167f8be0079c531659141344cd1fd0a4f28419497f9722a3daafe3b4186f6b6457e060405160405180910390a35050565b8260048101928215620006ef579160200282015b82811115620006ee578251829080519060200190620006dd929190620007b6565b5091602001919060010190620006bc565b5b509050620006fe919062000847565b5090565b82600a810192821562000749579160200282015b828111156200074857825182908051906020019062000737929190620007b6565b509160200191906001019062000716565b5b50905062000758919062000847565b5090565b8260068101928215620007a3579160200282015b82811115620007a257825182908051906020019062000791929190620007b6565b509160200191906001019062000770565b5b509050620007b2919062000847565b5090565b828054620007c49062000903565b90600052602060002090601f016020900481019282620007e8576000855562000834565b82601f106200080357805160ff191683800117855562000834565b8280016001018555821562000834579182015b828111156200083357825182559160200191906001019062000816565b5b5090506200084391906200086f565b5090565b5b808211156200086b57600081816200086191906200088e565b5060010162000848565b5090565b5b808211156200088a57600081600090555060010162000870565b5090565b5080546200089c9062000903565b6000825580601f10620008b05750620008d1565b601f016020900490600052602060002090810190620008d091906200086f565b5b50565b7f4e487b7100000000000000000000000000000000000000000000000000000000600052602260045260246000fd5b600060028204905060018216806200091c57607f821691505b60208210811415620009335762000932620008d4565b5b50919050565b61539180620009496000396000f3fe608060405234801561001057600080fd5b50600436106101f05760003560e01c8063715018a61161010f578063d52f0904116100a2578063e8952fad11610071578063e8952fad14610601578063e985e9c514610631578063f2fde38b14610661578063fe5c873a1461067d576101f0565b8063d52f090414610555578063d9ecad7b14610585578063dbe16c07146105a1578063e6c08dc8146105d1576101f0565b806395d89b41116100de57806395d89b41146104cf578063a22cb465146104ed578063b88d4fde14610509578063c87b56dd14610525576101f0565b8063715018a6146104475780638cfe9665146104515780638da5cb5b14610481578063934f30d31461049f576101f0565b80632f745c591161018757806342842e0e1161015657806342842e0e1461039b5780634f6ccce7146103b75780636352211e146103e757806370a0823114610417576101f0565b80632f745c591461031557806332c70db7146103455780633ccfd60b1461037557806340d097c31461037f576101f0565b806318160ddd116101c357806318160ddd1461028f578063191e2724146102ad57806323b872dd146102dd578063289137a1146102f9576101f0565b806301ffc9a7146101f557806306fdde0314610225578063081812fc14610243578063095ea7b314610273575b600080fd5b61020f600480360381019061020a91906139ff565b610699565b60405161021c9190613a47565b60405180910390f35b61022d6106ab565b60405161023a9190613afb565b60405180910390f35b61025d60048036038101906102589190613b53565b61073d565b60405161026a9190613bc1565b60405180910390f35b61028d60048036038101906102889190613c08565b6107c2565b005b6102976108da565b6040516102a49190613c57565b60405180910390f35b6102c760048036038101906102c29190613b53565b6108e7565b6040516102d49190613c57565b60405180910390f35b6102f760048036038101906102f29190613c72565b61095f565b005b610313600480360381019061030e9190613cc5565b6109bf565b005b61032f600480360381019061032a9190613c08565b610f79565b60405161033c9190613c57565b60405180910390f35b61035f600480360381019061035a9190613b53565b61101e565b60405161036c9190613c57565b60405180910390f35b61037d61103b565b005b61039960048036038101906103949190613d05565b61114a565b005b6103b560048036038101906103b09190613c72565b6113d1565b005b6103d160048036038101906103cc9190613b53565b6113f1565b6040516103de9190613c57565b60405180910390f35b61040160048036038101906103fc9190613b53565b611462565b60405161040e9190613bc1565b60405180910390f35b610431600480360381019061042c9190613d05565b611514565b60405161043e9190613c57565b60405180910390f35b61044f6115cc565b005b61046b60048036038101906104669190613b53565b611654565b6040516104789190613afb565b60405180910390f35b610489611754565b6040516104969190613bc1565b60405180910390f35b6104b960048036038101906104b49190613b53565b61177e565b6040516104c69190613c57565b60405180910390f35b6104d761179e565b6040516104e49190613afb565b60405180910390f35b61050760048036038101906105029190613d5e565b611830565b005b610523600480360381019061051e9190613ed3565b611846565b005b61053f600480360381019061053a9190613b53565b6118a8565b60405161054c9190613afb565b60405180910390f35b61056f600480360381019061056a9190613b53565b6118f5565b60405161057c9190613c57565b60405180910390f35b61059f600480360381019061059a9190613cc5565b61196d565b005b6105bb60048036038101906105b69190613b53565b611dff565b6040516105c89190613afb565b60405180910390f35b6105eb60048036038101906105e69190613b53565b611ea7565b6040516105f89190613c57565b60405180910390f35b61061b60048036038101906106169190613b53565b611ec7565b6040516106289190613c57565b60405180910390f35b61064b60048036038101906106469190613f56565b611ee7565b6040516106589190613a47565b60405180910390f35b61067b60048036038101906106769190613d05565b611f7b565b005b61069760048036038101906106929190613b53565b612073565b005b60006106a482612276565b9050919050565b6060600080546106ba90613fc5565b80601f01602080910402602001604051908101604052809291908181526020018280546106e690613fc5565b80156107335780601f1061070857610100808354040283529160200191610733565b820191906000526020600020905b81548152906001019060200180831161071657829003601f168201915b5050505050905090565b6000610748826122f0565b610787576040517f08c379a000000000000000000000000000000000000000000000000000000000815260040161077e90614069565b60405180910390fd5b6004600083815260200190815260200160002060009054906101000a900473ffffffffffffffffffffffffffffffffffffffff169050919050565b60006107cd82611462565b90508073ffffffffffffffffffffffffffffffffffffffff168373ffffffffffffffffffffffffffffffffffffffff16141561083e576040517f08c379a0000000000000000000000000000000000000000000000000000000008152600401610835906140fb565b60405180910390fd5b8073ffffffffffffffffffffffffffffffffffffffff1661085d61235c565b73ffffffffffffffffffffffffffffffffffffffff16148061088c575061088b8161088661235c565b611ee7565b5b6108cb576040517f08c379a00000000000000000000000000000000000000000000000000000000081526004016108c29061418d565b60405180910390fd5b6108d58383612364565b505050565b6000600a80549050905090565b600042602260008481526020019081526020016000206006015410610941576040517f08c379a0000000000000000000000000000000000000000000000000000000008152600401610938906141f9565b60405180910390fd5b60226000838152602001908152602001600020600501549050919050565b61097061096a61235c565b8261241d565b6109af576040517f08c379a00000000000000000000000000000000000000000000000000000000081526004016109a69061428b565b60405180910390fd5b6109ba8383836124fb565b505050565b80821415610a02576040517f08c379a00000000000000000000000000000000000000000000000000000000081526004016109f9906142f7565b60405180910390fd5b3373ffffffffffffffffffffffffffffffffffffffff16610a2283611462565b73ffffffffffffffffffffffffffffffffffffffff1614610a78576040517f08c379a0000000000000000000000000000000000000000000000000000000008152600401610a6f90614363565b60405180910390fd5b3373ffffffffffffffffffffffffffffffffffffffff16610a9882611462565b73ffffffffffffffffffffffffffffffffffffffff1614610aee576040517f08c379a0000000000000000000000000000000000000000000000000000000008152600401610ae590614363565b60405180910390fd5b604051602001610afd906143da565b6040516020818303038152906040528051906020012060226000848152602001908152602001600020600001604051602001610b399190614483565b604051602081830303815290604052805190602001201415610b90576040517f08c379a0000000000000000000000000000000000000000000000000000000008152600401610b87906141f9565b60405180910390fd5b604051602001610b9f906143da565b6040516020818303038152906040528051906020012060226000838152602001908152602001600020600001604051602001610bdb9190614483565b604051602081830303815290604052805190602001201415610c32576040517f08c379a0000000000000000000000000000000000000000000000000000000008152600401610c29906141f9565b60405180910390fd5b600060226000838152602001908152602001600020600101546022600085815260200190815260200160002060010154610c6c91906144c9565b905060048110610c975760046022600085815260200190815260200160002060010181905550610cb3565b8060226000858152602001908152602001600020600101819055505b6022600083815260200190815260200160002060020160226000858152602001908152602001600020600201908054610ceb90613fc5565b610cf6929190613823565b50602260008381526020019081526020016000206004015460226000858152602001908152602001600020600401541115610d8057610d6160226000848152602001908152602001600020600401546022600086815260200190815260200160002060040154612762565b6022600085815260200190815260200160002060040181905550610e06565b602260008381526020019081526020016000206004015460226000858152602001908152602001600020600401541015610e0557610dea60226000858152602001908152602001600020600401546022600085815260200190815260200160002060040154612762565b60226000858152602001908152602001600020600401819055505b5b6000601c602260008681526020019081526020016000206005015460068110610e3257610e3161451f565b5b0160226000868152602001908152602001600020600201601260646022600089815260200190815260200160002060040154610e6e919061457d565b600a8110610e7f57610e7e61451f565b5b016012600a602260008a815260200190815260200160002060040154610ea5919061457d565b600a8110610eb657610eb561451f565b5b016012600a80602260008c815260200190815260200160002060040154610edd919061457d565b610ee791906145ae565b602260008b815260200190815260200160002060040154610f089190614608565b600a8110610f1957610f1861451f565b5b01604051602001610f2e959493929190614720565b604051602081830303815290604052905080602260008681526020019081526020016000206000019080519060200190610f699291906138b0565b50610f73836127c0565b50505050565b6000610f8483611514565b8210610fc5576040517f08c379a0000000000000000000000000000000000000000000000000000000008152600401610fbc906147fe565b60405180910390fd5b600860008473ffffffffffffffffffffffffffffffffffffffff1673ffffffffffffffffffffffffffffffffffffffff168152602001908152602001600020600083815260200190815260200160002054905092915050565b600060236000838152602001908152602001600020549050919050565b61104361235c565b73ffffffffffffffffffffffffffffffffffffffff16611061611754565b73ffffffffffffffffffffffffffffffffffffffff16146110b7576040517f08c379a00000000000000000000000000000000000000000000000000000000081526004016110ae9061486a565b60405180910390fd5b600047116110fa576040517f08c379a00000000000000000000000000000000000000000000000000000000081526004016110f1906148d6565b60405180910390fd5b611102611754565b73ffffffffffffffffffffffffffffffffffffffff166108fc479081150290604051600060405180830381858888f19350505050158015611147573d6000803e3d6000fd5b50565b6000611156600c6127cc565b905060006111666001600b612762565b9050600061117660006006612762565b90506000600e61118860006004612762565b600481106111995761119861451f565b5b0180546111a590613fc5565b80601f01602080910402602001604051908101604052809291908181526020018280546111d190613fc5565b801561121e5780601f106111f35761010080835404028352916020019161121e565b820191906000526020600020905b81548152906001019060200180831161120157829003601f168201915b505050505090506000601c836006811061123b5761123a61451f565b5b0182601260648761124c919061457d565b600a811061125d5761125c61451f565b5b016012600a8861126d919061457d565b600a811061127e5761127d61451f565b5b016012600a808a61128f919061457d565b61129991906145ae565b896112a49190614608565b600a81106112b5576112b461451f565b5b016040516020016112ca959493929190614927565b6040516020818303038152906040529050806022600087815260200190815260200160002060000190805190602001906113059291906138b0565b5060046022600087815260200190815260200160002060010181905550836022600087815260200190815260200160002060040181905550816022600087815260200190815260200160002060020190805190602001906113679291906138b0565b50826022600087815260200190815260200160002060050181905550600160245461139291906144c9565b60248190555060245460226000878152602001908152602001600020600301819055506113bf600c6127da565b6113c986866127f0565b505050505050565b6113ec83838360405180602001604052806000815250611846565b505050565b60006113fb6108da565b821061143c576040517f08c379a000000000000000000000000000000000000000000000000000000000815260040161143390614a05565b60405180910390fd5b600a82815481106114505761144f61451f565b5b90600052602060002001549050919050565b6000806002600084815260200190815260200160002060009054906101000a900473ffffffffffffffffffffffffffffffffffffffff169050600073ffffffffffffffffffffffffffffffffffffffff168173ffffffffffffffffffffffffffffffffffffffff16141561150b576040517f08c379a000000000000000000000000000000000000000000000000000000000815260040161150290614a97565b60405180910390fd5b80915050919050565b60008073ffffffffffffffffffffffffffffffffffffffff168273ffffffffffffffffffffffffffffffffffffffff161415611585576040517f08c379a000000000000000000000000000000000000000000000000000000000815260040161157c90614b29565b60405180910390fd5b600360008373ffffffffffffffffffffffffffffffffffffffff1673ffffffffffffffffffffffffffffffffffffffff168152602001908152602001600020549050919050565b6115d461235c565b73ffffffffffffffffffffffffffffffffffffffff166115f2611754565b73ffffffffffffffffffffffffffffffffffffffff1614611648576040517f08c379a000000000000000000000000000000000000000000000000000000000815260040161163f9061486a565b60405180910390fd5b611652600061280e565b565b6060426022600084815260200190815260200160002060060154106116ae576040517f08c379a00000000000000000000000000000000000000000000000000000000081526004016116a5906141f9565b60405180910390fd5b6022600083815260200190815260200160002060020180546116cf90613fc5565b80601f01602080910402602001604051908101604052809291908181526020018280546116fb90613fc5565b80156117485780601f1061171d57610100808354040283529160200191611748565b820191906000526020600020905b81548152906001019060200180831161172b57829003601f168201915b50505050509050919050565b6000600660009054906101000a900473ffffffffffffffffffffffffffffffffffffffff16905090565b600060226000838152602001908152602001600020600601549050919050565b6060600180546117ad90613fc5565b80601f01602080910402602001604051908101604052809291908181526020018280546117d990613fc5565b80156118265780601f106117fb57610100808354040283529160200191611826565b820191906000526020600020905b81548152906001019060200180831161180957829003601f168201915b5050505050905090565b61184261183b61235c565b83836128d4565b5050565b61185761185161235c565b8361241d565b611896576040517f08c379a000000000000000000000000000000000000000000000000000000000815260040161188d9061428b565b60405180910390fd5b6118a284848484612a41565b50505050565b606060006118b4612a9d565b905080602260008581526020019081526020016000206000016040516020016118de929190614b95565b604051602081830303815290604052915050919050565b60004260226000848152602001908152602001600020600601541061194f576040517f08c379a0000000000000000000000000000000000000000000000000000000008152600401611946906141f9565b60405180910390fd5b60226000838152602001908152602001600020600401549050919050565b808214156119b0576040517f08c379a00000000000000000000000000000000000000000000000000000000081526004016119a7906142f7565b60405180910390fd5b3373ffffffffffffffffffffffffffffffffffffffff166119d083611462565b73ffffffffffffffffffffffffffffffffffffffff1614611a26576040517f08c379a0000000000000000000000000000000000000000000000000000000008152600401611a1d90614363565b60405180910390fd5b3373ffffffffffffffffffffffffffffffffffffffff16611a4682611462565b73ffffffffffffffffffffffffffffffffffffffff1614611a9c576040517f08c379a0000000000000000000000000000000000000000000000000000000008152600401611a9390614363565b60405180910390fd5b60226000828152602001908152602001600020600201604051602001611ac29190614483565b6040516020818303038152906040528051906020012060226000848152602001908152602001600020600201604051602001611afe9190614483565b6040516020818303038152906040528051906020012014611b54576040517f08c379a0000000000000000000000000000000000000000000000000000000008152600401611b4b90614c36565b60405180910390fd5b6000602260008481526020019081526020016000206001015411611bad576040517f08c379a0000000000000000000000000000000000000000000000000000000008152600401611ba490614cc8565b60405180910390fd5b6000602260008381526020019081526020016000206001015411611c06576040517f08c379a0000000000000000000000000000000000000000000000000000000008152600401611bfd90614cc8565b60405180910390fd5b604051602001611c15906143da565b6040516020818303038152906040528051906020012060226000848152602001908152602001600020600001604051602001611c519190614483565b604051602081830303815290604052805190602001201415611ca8576040517f08c379a0000000000000000000000000000000000000000000000000000000008152600401611c9f906141f9565b60405180910390fd5b604051602001611cb7906143da565b6040516020818303038152906040528051906020012060226000838152602001908152602001600020600001604051602001611cf39190614483565b604051602081830303815290604052805190602001201415611d4a576040517f08c379a0000000000000000000000000000000000000000000000000000000008152600401611d41906141f9565b60405180910390fd5b60016022600084815260200190815260200160002060010154611d6d9190614608565b602260008481526020019081526020016000206001018190555060016022600083815260200190815260200160002060010154611daa9190614608565b6022600083815260200190815260200160002060010181905550611dfb3360226000858152602001908152602001600020600401546022600085815260200190815260200160002060040154612ada565b5050565b6060602260008381526020019081526020016000206000018054611e2290613fc5565b80601f0160208091040260200160405190810160405280929190818152602001828054611e4e90613fc5565b8015611e9b5780601f10611e7057610100808354040283529160200191611e9b565b820191906000526020600020905b815481529060010190602001808311611e7e57829003601f168201915b50505050509050919050565b600060226000838152602001908152602001600020600101549050919050565b600060226000838152602001908152602001600020600301549050919050565b6000600560008473ffffffffffffffffffffffffffffffffffffffff1673ffffffffffffffffffffffffffffffffffffffff16815260200190815260200160002060008373ffffffffffffffffffffffffffffffffffffffff1673ffffffffffffffffffffffffffffffffffffffff16815260200190815260200160002060009054906101000a900460ff16905092915050565b611f8361235c565b73ffffffffffffffffffffffffffffffffffffffff16611fa1611754565b73ffffffffffffffffffffffffffffffffffffffff1614611ff7576040517f08c379a0000000000000000000000000000000000000000000000000000000008152600401611fee9061486a565b60405180910390fd5b600073ffffffffffffffffffffffffffffffffffffffff168173ffffffffffffffffffffffffffffffffffffffff161415612067576040517f08c379a000000000000000000000000000000000000000000000000000000000815260040161205e90614d5a565b60405180910390fd5b6120708161280e565b50565b604051602001612082906143da565b60405160208183030381529060405280519060200120602260008381526020019081526020016000206000016040516020016120be9190614483565b6040516020818303038152906040528051906020012014612114576040517f08c379a000000000000000000000000000000000000000000000000000000000815260040161210b90614dc6565b60405180910390fd5b601c60226000838152602001908152602001600020600501546006811061213e5761213d61451f565b5b016022600083815260200190815260200160002060020160126064602260008681526020019081526020016000206004015461217a919061457d565b600a811061218b5761218a61451f565b5b016012600a60226000878152602001908152602001600020600401546121b1919061457d565b600a81106121c2576121c161451f565b5b016012600a8060226000898152602001908152602001600020600401546121e9919061457d565b6121f391906145ae565b60226000888152602001908152602001600020600401546122149190614608565b600a81106122255761222461451f565b5b0160405160200161223a959493929190614720565b6040516020818303038152906040526022600083815260200190815260200160002060000190805190602001906122729291906138b0565b5050565b60007f780e9d63000000000000000000000000000000000000000000000000000000007bffffffffffffffffffffffffffffffffffffffffffffffffffffffff1916827bffffffffffffffffffffffffffffffffffffffffffffffffffffffff191614806122e957506122e882612d53565b5b9050919050565b60008073ffffffffffffffffffffffffffffffffffffffff166002600084815260200190815260200160002060009054906101000a900473ffffffffffffffffffffffffffffffffffffffff1673ffffffffffffffffffffffffffffffffffffffff1614159050919050565b600033905090565b816004600083815260200190815260200160002060006101000a81548173ffffffffffffffffffffffffffffffffffffffff021916908373ffffffffffffffffffffffffffffffffffffffff160217905550808273ffffffffffffffffffffffffffffffffffffffff166123d783611462565b73ffffffffffffffffffffffffffffffffffffffff167f8c5be1e5ebec7d5bd14f71427d1e84f3dd0314c0f7b2291e5b200ac8c7c3b92560405160405180910390a45050565b6000612428826122f0565b612467576040517f08c379a000000000000000000000000000000000000000000000000000000000815260040161245e90614e58565b60405180910390fd5b600061247283611462565b90508073ffffffffffffffffffffffffffffffffffffffff168473ffffffffffffffffffffffffffffffffffffffff1614806124e157508373ffffffffffffffffffffffffffffffffffffffff166124c98461073d565b73ffffffffffffffffffffffffffffffffffffffff16145b806124f257506124f18185611ee7565b5b91505092915050565b8273ffffffffffffffffffffffffffffffffffffffff1661251b82611462565b73ffffffffffffffffffffffffffffffffffffffff1614612571576040517f08c379a000000000000000000000000000000000000000000000000000000000815260040161256890614eea565b60405180910390fd5b600073ffffffffffffffffffffffffffffffffffffffff168273ffffffffffffffffffffffffffffffffffffffff1614156125e1576040517f08c379a00000000000000000000000000000000000000000000000000000000081526004016125d890614f7c565b60405180910390fd5b6125ec838383612e35565b6125f7600082612364565b6001600360008573ffffffffffffffffffffffffffffffffffffffff1673ffffffffffffffffffffffffffffffffffffffff16815260200190815260200160002060008282546126479190614608565b925050819055506001600360008473ffffffffffffffffffffffffffffffffffffffff1673ffffffffffffffffffffffffffffffffffffffff168152602001908152602001600020600082825461269e91906144c9565b92505081905550816002600083815260200190815260200160002060006101000a81548173ffffffffffffffffffffffffffffffffffffffff021916908373ffffffffffffffffffffffffffffffffffffffff160217905550808273ffffffffffffffffffffffffffffffffffffffff168473ffffffffffffffffffffffffffffffffffffffff167fddf252ad1be2c89b69c2b068fc378daa952ba7f163c4a11628f55a4df523b3ef60405160405180910390a461275d838383612e45565b505050565b60008083836127719190614608565b42443360405160200161278693929190615005565b6040516020818303038152906040528051906020012060001c6127a99190615042565b905083816127b791906144c9565b91505092915050565b6127c981612e4a565b50565b600081600001549050919050565b6001816000016000828254019250508190555050565b61280a828260405180602001604052806000815250612e9d565b5050565b6000600660009054906101000a900473ffffffffffffffffffffffffffffffffffffffff16905081600660006101000a81548173ffffffffffffffffffffffffffffffffffffffff021916908373ffffffffffffffffffffffffffffffffffffffff1602179055508173ffffffffffffffffffffffffffffffffffffffff168173ffffffffffffffffffffffffffffffffffffffff167f8be0079c531659141344cd1fd0a4f28419497f9722a3daafe3b4186f6b6457e060405160405180910390a35050565b8173ffffffffffffffffffffffffffffffffffffffff168373ffffffffffffffffffffffffffffffffffffffff161415612943576040517f08c379a000000000000000000000000000000000000000000000000000000000815260040161293a906150bf565b60405180910390fd5b80600560008573ffffffffffffffffffffffffffffffffffffffff1673ffffffffffffffffffffffffffffffffffffffff16815260200190815260200160002060008473ffffffffffffffffffffffffffffffffffffffff1673ffffffffffffffffffffffffffffffffffffffff16815260200190815260200160002060006101000a81548160ff0219169083151502179055508173ffffffffffffffffffffffffffffffffffffffff168373ffffffffffffffffffffffffffffffffffffffff167f17307eab39ab6107e8899845ad3d59bd9653f200f220920489ca2b5937696c3183604051612a349190613a47565b60405180910390a3505050565b612a4c8484846124fb565b612a5884848484612ef8565b612a97576040517f08c379a0000000000000000000000000000000000000000000000000000000008152600401612a8e90615151565b60405180910390fd5b50505050565b60606040518060400160405280600781526020017f2e2f4e4654732f00000000000000000000000000000000000000000000000000815250905090565b600060028284612aea91906144c9565b612af4919061457d565b90506000612b02600c6127cc565b90506000612b1c83600b85612b1791906144c9565b612762565b90506000612b2c60006006612762565b90506000600e612b3e60006004612762565b60048110612b4f57612b4e61451f565b5b018054612b5b90613fc5565b80601f0160208091040260200160405190810160405280929190818152602001828054612b8790613fc5565b8015612bd45780601f10612ba957610100808354040283529160200191612bd4565b820191906000526020600020905b815481529060010190602001808311612bb757829003601f168201915b5050505050905060006040518060400160405280600981526020017f496e50726f63657373000000000000000000000000000000000000000000000081525090506000607842612c2491906144c9565b905086602360008881526020019081526020016000208190555080602260008881526020019081526020016000206006018190555081602260008881526020019081526020016000206000019080519060200190612c839291906138b0565b506004602260008881526020019081526020016000206001018190555084602260008881526020019081526020016000206004018190555082602260008881526020019081526020016000206002019080519060200190612ce59291906138b0565b508360226000888152602001908152602001600020600501819055506001602454612d1091906144c9565b6024819055506024546022600088815260200190815260200160002060030181905550612d3d600c6127da565b612d478a876127f0565b50505050505050505050565b60007f80ac58cd000000000000000000000000000000000000000000000000000000007bffffffffffffffffffffffffffffffffffffffffffffffffffffffff1916827bffffffffffffffffffffffffffffffffffffffffffffffffffffffff19161480612e1e57507f5b5e139f000000000000000000000000000000000000000000000000000000007bffffffffffffffffffffffffffffffffffffffffffffffffffffffff1916827bffffffffffffffffffffffffffffffffffffffffffffffffffffffff1916145b80612e2e5750612e2d82613080565b5b9050919050565b612e408383836130ea565b505050565b505050565b612e53816131fe565b6000600760008381526020019081526020016000208054612e7390613fc5565b905014612e9a57600760008281526020019081526020016000206000612e999190613936565b5b50565b612ea7838361331b565b612eb46000848484612ef8565b612ef3576040517f08c379a0000000000000000000000000000000000000000000000000000000008152600401612eea90615151565b60405180910390fd5b505050565b6000612f198473ffffffffffffffffffffffffffffffffffffffff166134f5565b15613073578373ffffffffffffffffffffffffffffffffffffffff1663150b7a02612f4261235c565b8786866040518563ffffffff1660e01b8152600401612f6494939291906151c6565b6020604051808303816000875af1925050508015612fa057506040513d601f19601f82011682018060405250810190612f9d9190615227565b60015b613023573d8060008114612fd0576040519150601f19603f3d011682016040523d82523d6000602084013e612fd5565b606091505b5060008151141561301b576040517f08c379a000000000000000000000000000000000000000000000000000000000815260040161301290615151565b60405180910390fd5b805181602001fd5b63150b7a0260e01b7bffffffffffffffffffffffffffffffffffffffffffffffffffffffff1916817bffffffffffffffffffffffffffffffffffffffffffffffffffffffff191614915050613078565b600190505b949350505050565b60007f01ffc9a7000000000000000000000000000000000000000000000000000000007bffffffffffffffffffffffffffffffffffffffffffffffffffffffff1916827bffffffffffffffffffffffffffffffffffffffffffffffffffffffff1916149050919050565b6130f5838383613518565b600073ffffffffffffffffffffffffffffffffffffffff168373ffffffffffffffffffffffffffffffffffffffff161415613138576131338161351d565b613177565b8173ffffffffffffffffffffffffffffffffffffffff168373ffffffffffffffffffffffffffffffffffffffff1614613176576131758382613566565b5b5b600073ffffffffffffffffffffffffffffffffffffffff168273ffffffffffffffffffffffffffffffffffffffff1614156131ba576131b5816136d3565b6131f9565b8273ffffffffffffffffffffffffffffffffffffffff168273ffffffffffffffffffffffffffffffffffffffff16146131f8576131f782826137a4565b5b5b505050565b600061320982611462565b905061321781600084612e35565b613222600083612364565b6001600360008373ffffffffffffffffffffffffffffffffffffffff1673ffffffffffffffffffffffffffffffffffffffff16815260200190815260200160002060008282546132729190614608565b925050819055506002600083815260200190815260200160002060006101000a81549073ffffffffffffffffffffffffffffffffffffffff021916905581600073ffffffffffffffffffffffffffffffffffffffff168273ffffffffffffffffffffffffffffffffffffffff167fddf252ad1be2c89b69c2b068fc378daa952ba7f163c4a11628f55a4df523b3ef60405160405180910390a461331781600084612e45565b5050565b600073ffffffffffffffffffffffffffffffffffffffff168273ffffffffffffffffffffffffffffffffffffffff16141561338b576040517f08c379a0000000000000000000000000000000000000000000000000000000008152600401613382906152a0565b60405180910390fd5b613394816122f0565b156133d4576040517f08c379a00000000000000000000000000000000000000000000000000000000081526004016133cb9061530c565b60405180910390fd5b6133e060008383612e35565b6001600360008473ffffffffffffffffffffffffffffffffffffffff1673ffffffffffffffffffffffffffffffffffffffff168152602001908152602001600020600082825461343091906144c9565b92505081905550816002600083815260200190815260200160002060006101000a81548173ffffffffffffffffffffffffffffffffffffffff021916908373ffffffffffffffffffffffffffffffffffffffff160217905550808273ffffffffffffffffffffffffffffffffffffffff16600073ffffffffffffffffffffffffffffffffffffffff167fddf252ad1be2c89b69c2b068fc378daa952ba7f163c4a11628f55a4df523b3ef60405160405180910390a46134f160008383612e45565b5050565b6000808273ffffffffffffffffffffffffffffffffffffffff163b119050919050565b505050565b600a80549050600b600083815260200190815260200160002081905550600a81908060018154018082558091505060019003906000526020600020016000909190919091505550565b6000600161357384611514565b61357d9190614608565b9050600060096000848152602001908152602001600020549050818114613662576000600860008673ffffffffffffffffffffffffffffffffffffffff1673ffffffffffffffffffffffffffffffffffffffff168152602001908152602001600020600084815260200190815260200160002054905080600860008773ffffffffffffffffffffffffffffffffffffffff1673ffffffffffffffffffffffffffffffffffffffff168152602001908152602001600020600084815260200190815260200160002081905550816009600083815260200190815260200160002081905550505b6009600084815260200190815260200160002060009055600860008573ffffffffffffffffffffffffffffffffffffffff1673ffffffffffffffffffffffffffffffffffffffff16815260200190815260200160002060008381526020019081526020016000206000905550505050565b60006001600a805490506136e79190614608565b90506000600b60008481526020019081526020016000205490506000600a83815481106137175761371661451f565b5b9060005260206000200154905080600a83815481106137395761373861451f565b5b906000526020600020018190555081600b600083815260200190815260200160002081905550600b600085815260200190815260200160002060009055600a8054806137885761378761532c565b5b6001900381819060005260206000200160009055905550505050565b60006137af83611514565b905081600860008573ffffffffffffffffffffffffffffffffffffffff1673ffffffffffffffffffffffffffffffffffffffff168152602001908152602001600020600083815260200190815260200160002081905550806009600084815260200190815260200160002081905550505050565b82805461382f90613fc5565b90600052602060002090601f016020900481019282613851576000855561389f565b82601f10613862578054855561389f565b8280016001018555821561389f57600052602060002091601f016020900482015b8281111561389e578254825591600101919060010190613883565b5b5090506138ac9190613976565b5090565b8280546138bc90613fc5565b90600052602060002090601f0160209004810192826138de5760008555613925565b82601f106138f757805160ff1916838001178555613925565b82800160010185558215613925579182015b82811115613924578251825591602001919060010190613909565b5b5090506139329190613976565b5090565b50805461394290613fc5565b6000825580601f106139545750613973565b601f0160209004906000526020600020908101906139729190613976565b5b50565b5b8082111561398f576000816000905550600101613977565b5090565b6000604051905090565b600080fd5b600080fd5b60007fffffffff0000000000000000000000000000000000000000000000000000000082169050919050565b6139dc816139a7565b81146139e757600080fd5b50565b6000813590506139f9816139d3565b92915050565b600060208284031215613a1557613a1461399d565b5b6000613a23848285016139ea565b91505092915050565b60008115159050919050565b613a4181613a2c565b82525050565b6000602082019050613a5c6000830184613a38565b92915050565b600081519050919050565b600082825260208201905092915050565b60005b83811015613a9c578082015181840152602081019050613a81565b83811115613aab576000848401525b50505050565b6000601f19601f8301169050919050565b6000613acd82613a62565b613ad78185613a6d565b9350613ae7818560208601613a7e565b613af081613ab1565b840191505092915050565b60006020820190508181036000830152613b158184613ac2565b905092915050565b6000819050919050565b613b3081613b1d565b8114613b3b57600080fd5b50565b600081359050613b4d81613b27565b92915050565b600060208284031215613b6957613b6861399d565b5b6000613b7784828501613b3e565b91505092915050565b600073ffffffffffffffffffffffffffffffffffffffff82169050919050565b6000613bab82613b80565b9050919050565b613bbb81613ba0565b82525050565b6000602082019050613bd66000830184613bb2565b92915050565b613be581613ba0565b8114613bf057600080fd5b50565b600081359050613c0281613bdc565b92915050565b60008060408385031215613c1f57613c1e61399d565b5b6000613c2d85828601613bf3565b9250506020613c3e85828601613b3e565b9150509250929050565b613c5181613b1d565b82525050565b6000602082019050613c6c6000830184613c48565b92915050565b600080600060608486031215613c8b57613c8a61399d565b5b6000613c9986828701613bf3565b9350506020613caa86828701613bf3565b9250506040613cbb86828701613b3e565b9150509250925092565b60008060408385031215613cdc57613cdb61399d565b5b6000613cea85828601613b3e565b9250506020613cfb85828601613b3e565b9150509250929050565b600060208284031215613d1b57613d1a61399d565b5b6000613d2984828501613bf3565b91505092915050565b613d3b81613a2c565b8114613d4657600080fd5b50565b600081359050613d5881613d32565b92915050565b60008060408385031215613d7557613d7461399d565b5b6000613d8385828601613bf3565b9250506020613d9485828601613d49565b9150509250929050565b600080fd5b600080fd5b7f4e487b7100000000000000000000000000000000000000000000000000000000600052604160045260246000fd5b613de082613ab1565b810181811067ffffffffffffffff82111715613dff57613dfe613da8565b5b80604052505050565b6000613e12613993565b9050613e1e8282613dd7565b919050565b600067ffffffffffffffff821115613e3e57613e3d613da8565b5b613e4782613ab1565b9050602081019050919050565b82818337600083830152505050565b6000613e76613e7184613e23565b613e08565b905082815260208101848484011115613e9257613e91613da3565b5b613e9d848285613e54565b509392505050565b600082601f830112613eba57613eb9613d9e565b5b8135613eca848260208601613e63565b91505092915050565b60008060008060808587031215613eed57613eec61399d565b5b6000613efb87828801613bf3565b9450506020613f0c87828801613bf3565b9350506040613f1d87828801613b3e565b925050606085013567ffffffffffffffff811115613f3e57613f3d6139a2565b5b613f4a87828801613ea5565b91505092959194509250565b60008060408385031215613f6d57613f6c61399d565b5b6000613f7b85828601613bf3565b9250506020613f8c85828601613bf3565b9150509250929050565b7f4e487b7100000000000000000000000000000000000000000000000000000000600052602260045260246000fd5b60006002820490506001821680613fdd57607f821691505b60208210811415613ff157613ff0613f96565b5b50919050565b7f4552433732313a20617070726f76656420717565727920666f72206e6f6e657860008201527f697374656e7420746f6b656e0000000000000000000000000000000000000000602082015250565b6000614053602c83613a6d565b915061405e82613ff7565b604082019050919050565b6000602082019050818103600083015261408281614046565b9050919050565b7f4552433732313a20617070726f76616c20746f2063757272656e74206f776e6560008201527f7200000000000000000000000000000000000000000000000000000000000000602082015250565b60006140e5602183613a6d565b91506140f082614089565b604082019050919050565b60006020820190508181036000830152614114816140d8565b9050919050565b7f4552433732313a20617070726f76652063616c6c6572206973206e6f74206f7760008201527f6e6572206e6f7220617070726f76656420666f7220616c6c0000000000000000602082015250565b6000614177603883613a6d565b91506141828261411b565b604082019050919050565b600060208201905081810360008301526141a68161416a565b9050919050565b7f4e4654206973206e6f7420726561647900000000000000000000000000000000600082015250565b60006141e3601083613a6d565b91506141ee826141ad565b602082019050919050565b60006020820190508181036000830152614212816141d6565b9050919050565b7f4552433732313a207472616e736665722063616c6c6572206973206e6f74206f60008201527f776e6572206e6f7220617070726f766564000000000000000000000000000000602082015250565b6000614275603183613a6d565b915061428082614219565b604082019050919050565b600060208201905081810360008301526142a481614268565b9050919050565b7f4e46547320617265207468652073616d65000000000000000000000000000000600082015250565b60006142e1601183613a6d565b91506142ec826142ab565b602082019050919050565b60006020820190508181036000830152614310816142d4565b9050919050565b7f54686520746f6b656e206973206e6f7420796f75727300000000000000000000600082015250565b600061434d601683613a6d565b915061435882614317565b602082019050919050565b6000602082019050818103600083015261437c81614340565b9050919050565b600081905092915050565b7f496e50726f636573730000000000000000000000000000000000000000000000600082015250565b60006143c4600983614383565b91506143cf8261438e565b600982019050919050565b60006143e5826143b7565b9150819050919050565b60008190508160005260206000209050919050565b6000815461441181613fc5565b61441b8186614383565b9450600182166000811461443657600181146144475761447a565b60ff1983168652818601935061447a565b614450856143ef565b60005b8381101561447257815481890152600182019150602081019050614453565b838801955050505b50505092915050565b600061448f8284614404565b915081905092915050565b7f4e487b7100000000000000000000000000000000000000000000000000000000600052601160045260246000fd5b60006144d482613b1d565b91506144df83613b1d565b9250827fffffffffffffffffffffffffffffffffffffffffffffffffffffffffffffffff038211156145145761451361449a565b5b828201905092915050565b7f4e487b7100000000000000000000000000000000000000000000000000000000600052603260045260246000fd5b7f4e487b7100000000000000000000000000000000000000000000000000000000600052601260045260246000fd5b600061458882613b1d565b915061459383613b1d565b9250826145a3576145a261454e565b5b828204905092915050565b60006145b982613b1d565b91506145c483613b1d565b9250817fffffffffffffffffffffffffffffffffffffffffffffffffffffffffffffffff04831182151516156145fd576145fc61449a565b5b828202905092915050565b600061461382613b1d565b915061461e83613b1d565b9250828210156146315761463061449a565b5b828203905092915050565b7f6600000000000000000000000000000000000000000000000000000000000000600082015250565b6000614672600183614383565b915061467d8261463c565b600182019050919050565b7f7065720000000000000000000000000000000000000000000000000000000000600082015250565b60006146be600383614383565b91506146c982614688565b600382019050919050565b7f7075720000000000000000000000000000000000000000000000000000000000600082015250565b600061470a600383614383565b9150614715826146d4565b600382019050919050565b600061472b82614665565b91506147378288614404565b9150614742826146b1565b915061474e8287614404565b9150614759826146fd565b91506147658286614404565b91506147718285614404565b915061477d8284614404565b91508190509695505050505050565b7f455243373231456e756d657261626c653a206f776e657220696e646578206f7560008201527f74206f6620626f756e6473000000000000000000000000000000000000000000602082015250565b60006147e8602b83613a6d565b91506147f38261478c565b604082019050919050565b60006020820190508181036000830152614817816147db565b9050919050565b7f4f776e61626c653a2063616c6c6572206973206e6f7420746865206f776e6572600082015250565b6000614854602083613a6d565b915061485f8261481e565b602082019050919050565b6000602082019050818103600083015261488381614847565b9050919050565b7f42616c616e6365206973207a65726f0000000000000000000000000000000000600082015250565b60006148c0600f83613a6d565b91506148cb8261488a565b602082019050919050565b600060208201905081810360008301526148ef816148b3565b9050919050565b600061490182613a62565b61490b8185614383565b935061491b818560208601613a7e565b80840191505092915050565b600061493282614665565b915061493e8288614404565b9150614949826146b1565b915061495582876148f6565b9150614960826146fd565b915061496c8286614404565b91506149788285614404565b91506149848284614404565b91508190509695505050505050565b7f455243373231456e756d657261626c653a20676c6f62616c20696e646578206f60008201527f7574206f6620626f756e64730000000000000000000000000000000000000000602082015250565b60006149ef602c83613a6d565b91506149fa82614993565b604082019050919050565b60006020820190508181036000830152614a1e816149e2565b9050919050565b7f4552433732313a206f776e657220717565727920666f72206e6f6e657869737460008201527f656e7420746f6b656e0000000000000000000000000000000000000000000000602082015250565b6000614a81602983613a6d565b9150614a8c82614a25565b604082019050919050565b60006020820190508181036000830152614ab081614a74565b9050919050565b7f4552433732313a2062616c616e636520717565727920666f7220746865207a6560008201527f726f206164647265737300000000000000000000000000000000000000000000602082015250565b6000614b13602a83613a6d565b9150614b1e82614ab7565b604082019050919050565b60006020820190508181036000830152614b4281614b06565b9050919050565b7f2e706e6700000000000000000000000000000000000000000000000000000000600082015250565b6000614b7f600483614383565b9150614b8a82614b49565b600482019050919050565b6000614ba182856148f6565b9150614bad8284614404565b9150614bb882614b72565b91508190509392505050565b7f54686520746f6b656e7320617265206e6f74207468652073616d6520636f6c6f60008201527f7200000000000000000000000000000000000000000000000000000000000000602082015250565b6000614c20602183613a6d565b9150614c2b82614bc4565b604082019050919050565b60006020820190508181036000830152614c4f81614c13565b9050919050565b7f74686973204e465420686173206e6f206d6f7265206272656564696e67206f7060008201527f706f7274756e6974696573000000000000000000000000000000000000000000602082015250565b6000614cb2602b83613a6d565b9150614cbd82614c56565b604082019050919050565b60006020820190508181036000830152614ce181614ca5565b9050919050565b7f4f776e61626c653a206e6577206f776e657220697320746865207a65726f206160008201527f6464726573730000000000000000000000000000000000000000000000000000602082015250565b6000614d44602683613a6d565b9150614d4f82614ce8565b604082019050919050565b60006020820190508181036000830152614d7381614d37565b9050919050565b7f746865204e465420697320616c726561647920636c61696d6564000000000000600082015250565b6000614db0601a83613a6d565b9150614dbb82614d7a565b602082019050919050565b60006020820190508181036000830152614ddf81614da3565b9050919050565b7f4552433732313a206f70657261746f7220717565727920666f72206e6f6e657860008201527f697374656e7420746f6b656e0000000000000000000000000000000000000000602082015250565b6000614e42602c83613a6d565b9150614e4d82614de6565b604082019050919050565b60006020820190508181036000830152614e7181614e35565b9050919050565b7f4552433732313a207472616e736665722066726f6d20696e636f72726563742060008201527f6f776e6572000000000000000000000000000000000000000000000000000000602082015250565b6000614ed4602583613a6d565b9150614edf82614e78565b604082019050919050565b60006020820190508181036000830152614f0381614ec7565b9050919050565b7f4552433732313a207472616e7366657220746f20746865207a65726f2061646460008201527f7265737300000000000000000000000000000000000000000000000000000000602082015250565b6000614f66602483613a6d565b9150614f7182614f0a565b604082019050919050565b60006020820190508181036000830152614f9581614f59565b9050919050565b6000819050919050565b614fb7614fb282613b1d565b614f9c565b82525050565b60008160601b9050919050565b6000614fd582614fbd565b9050919050565b6000614fe782614fca565b9050919050565b614fff614ffa82613ba0565b614fdc565b82525050565b60006150118286614fa6565b6020820191506150218285614fa6565b6020820191506150318284614fee565b601482019150819050949350505050565b600061504d82613b1d565b915061505883613b1d565b9250826150685761506761454e565b5b828206905092915050565b7f4552433732313a20617070726f766520746f2063616c6c657200000000000000600082015250565b60006150a9601983613a6d565b91506150b482615073565b602082019050919050565b600060208201905081810360008301526150d88161509c565b9050919050565b7f4552433732313a207472616e7366657220746f206e6f6e20455243373231526560008201527f63656976657220696d706c656d656e7465720000000000000000000000000000602082015250565b600061513b603283613a6d565b9150615146826150df565b604082019050919050565b6000602082019050818103600083015261516a8161512e565b9050919050565b600081519050919050565b600082825260208201905092915050565b600061519882615171565b6151a2818561517c565b93506151b2818560208601613a7e565b6151bb81613ab1565b840191505092915050565b60006080820190506151db6000830187613bb2565b6151e86020830186613bb2565b6151f56040830185613c48565b8181036060830152615207818461518d565b905095945050505050565b600081519050615221816139d3565b92915050565b60006020828403121561523d5761523c61399d565b5b600061524b84828501615212565b91505092915050565b7f4552433732313a206d696e7420746f20746865207a65726f2061646472657373600082015250565b600061528a602083613a6d565b915061529582615254565b602082019050919050565b600060208201905081810360008301526152b98161527d565b9050919050565b7f4552433732313a20746f6b656e20616c7265616479206d696e74656400000000600082015250565b60006152f6601c83613a6d565b9150615301826152c0565b602082019050919050565b60006020820190508181036000830152615325816152e9565b9050919050565b7f4e487b7100000000000000000000000000000000000000000000000000000000600052603160045260246000fdfea2646970667358221220357ad4b0abde5a8435f9a02619ba4242b4c73219cbd87b3ad91e539d11b8664c64736f6c634300080b0033",
  "immutableReferences": {},
  "source": "// SPDX-License-Identifier: MIT\r\npragma solidity ^0.8.4;\r\n\r\nimport \"@openzeppelin/contracts/token/ERC721/ERC721.sol\";\r\nimport \"@openzeppelin/contracts/access/Ownable.sol\";\r\nimport \"@openzeppelin/contracts/utils/Counters.sol\";\r\nimport \"@openzeppelin/contracts/token/ERC721/extensions/ERC721URIStorage.sol\";\r\nimport \"@openzeppelin/contracts/token/ERC721/extensions/ERC721Enumerable.sol\";\r\n\r\ncontract NFT is ERC721, Ownable, ERC721URIStorage, ERC721Enumerable {\r\n    using Counters for Counters.Counter;\r\n\r\n    Counters.Counter private _tokenIdCounter;\r\n\r\n    uint256 MINT_PRICE = 10 ether;\r\n    string[4] colors = [\"azul\", \"verde\", \"rosa\", \"marron\"];\r\n    string[10] numbers = [\"0\", \"1\", \"2\", \"3\", \"4\", \"5\", \"6\", \"7\", \"8\", \"9\"];\r\n    string[6] backgroundStrings = [\"1\", \"2\", \"3\", \"4\", \"5\", \"6\"];\r\n\r\n    struct token {\r\n        string name;\r\n        uint256 breeding;\r\n        string color;\r\n        uint256 number;\r\n        uint256 purity;\r\n        uint256 background;\r\n        uint256 timeToClaim;\r\n    }\r\n\r\n    mapping(uint256 => token) tokenInfo;\r\n    mapping(uint256 => uint256) tokenMinPurity;\r\n    uint256 actualTokenNumber = 0;\r\n\r\n    constructor() ERC721(\"MyToken\", \"MTK\") {}\r\n\r\n    function random(uint256 _numberMin, uint256 _numberMax)\r\n        internal\r\n        view\r\n        returns (uint256)\r\n    {\r\n        uint256 rodom = (uint256(\r\n            keccak256(\r\n                abi.encodePacked(block.timestamp, block.difficulty, msg.sender)\r\n            )\r\n        ) % (_numberMax - _numberMin));\r\n        return rodom + _numberMin;\r\n    }\r\n\r\n    function safeMint(address to) public {\r\n        //require(msg.value >= MINT_PRICE, \"Not enough ether sent.\");\r\n        uint256 tokenId = _tokenIdCounter.current();\r\n        uint256 purity = random(1, 11);\r\n        uint256 background = random(0, 6);\r\n        string memory color = colors[random(0, 4)];\r\n        string memory name = string(\r\n            abi.encodePacked(\r\n                \"f\",\r\n                backgroundStrings[background],\r\n                \"per\",\r\n                color,\r\n                \"pur\",\r\n                numbers[purity / 100],\r\n                numbers[purity / 10],\r\n                numbers[purity - ((uint256(purity / 10)) * 10)]\r\n            )\r\n        );\r\n        tokenInfo[tokenId].name = name;\r\n        tokenInfo[tokenId].breeding = 4;\r\n        tokenInfo[tokenId].purity = purity;\r\n        tokenInfo[tokenId].color = color;\r\n        tokenInfo[tokenId].background = background;\r\n        actualTokenNumber = actualTokenNumber + 1;\r\n        tokenInfo[tokenId].number = actualTokenNumber;\r\n        _tokenIdCounter.increment();\r\n        _safeMint(to, tokenId);\r\n    }\r\n\r\n    function breed(uint256 _idToken1, uint256 _idToken2) public {\r\n        require(_idToken1 != _idToken2, \"NFTs are the same\");\r\n        require(ownerOf(_idToken1) == msg.sender, \"The token is not yours\");\r\n        require(ownerOf(_idToken2) == msg.sender, \"The token is not yours\");\r\n        require(\r\n            (keccak256(abi.encodePacked(tokenInfo[_idToken1].color))) ==\r\n                (keccak256(abi.encodePacked(tokenInfo[_idToken2].color))),\r\n            \"The tokens are not the same color\"\r\n        );\r\n        require(\r\n            tokenInfo[_idToken1].breeding > 0,\r\n            \"this NFT has no more breeding opportunities\"\r\n        );\r\n        require(\r\n            tokenInfo[_idToken2].breeding > 0,\r\n            \"this NFT has no more breeding opportunities\"\r\n        );\r\n        require(\r\n            (keccak256(abi.encodePacked(tokenInfo[_idToken1].name))) !=\r\n                (keccak256(abi.encodePacked(\"InProcess\"))),\r\n            \"NFT is not ready\"\r\n        );\r\n        require(\r\n            (keccak256(abi.encodePacked(tokenInfo[_idToken2].name))) !=\r\n                (keccak256(abi.encodePacked(\"InProcess\"))),\r\n            \"NFT is not ready\"\r\n        );\r\n        tokenInfo[_idToken1].breeding = tokenInfo[_idToken1].breeding - 1;\r\n        tokenInfo[_idToken2].breeding = tokenInfo[_idToken2].breeding - 1;\r\n        internalSafeMint(\r\n            msg.sender,\r\n            tokenInfo[_idToken1].purity,\r\n            tokenInfo[_idToken2].purity\r\n        );\r\n    }\r\n\r\n    function internalSafeMint(\r\n        address to,\r\n        uint256 purityToken1,\r\n        uint256 purityToken2\r\n    ) internal {\r\n        //require(msg.value >= MINT_PRICE, \"Not enough ether sent.\");\r\n        uint256 randomMin = (purityToken1 + purityToken2) / 2;\r\n        uint256 tokenId = _tokenIdCounter.current();\r\n        uint256 purity = random(randomMin, randomMin + 11);\r\n        uint256 background = random(0, 6);\r\n        string memory color = colors[random(0, 4)];\r\n        string memory name = \"InProcess\";\r\n        uint256 timeToClaim = block.timestamp + 2 minutes;\r\n\r\n        tokenMinPurity[tokenId] = randomMin;\r\n        tokenInfo[tokenId].timeToClaim = timeToClaim;\r\n        tokenInfo[tokenId].name = name;\r\n        tokenInfo[tokenId].breeding = 4;\r\n        tokenInfo[tokenId].purity = purity;\r\n        tokenInfo[tokenId].color = color;\r\n        tokenInfo[tokenId].background = background;\r\n        actualTokenNumber = actualTokenNumber + 1;\r\n        tokenInfo[tokenId].number = actualTokenNumber;\r\n        _tokenIdCounter.increment();\r\n        _safeMint(to, tokenId);\r\n    }\r\n\r\n    function claimNFT(uint256 _tokenId) public {\r\n        require(\r\n            (keccak256(abi.encodePacked(tokenInfo[_tokenId].name))) ==\r\n                (keccak256(abi.encodePacked(\"InProcess\"))),\r\n            \"the NFT is already claimed\"\r\n        );\r\n        tokenInfo[_tokenId].name = string(\r\n            abi.encodePacked(\r\n                \"f\",\r\n                backgroundStrings[tokenInfo[_tokenId].background],\r\n                \"per\",\r\n                tokenInfo[_tokenId].color,\r\n                \"pur\",\r\n                numbers[tokenInfo[_tokenId].purity / 100],\r\n                numbers[tokenInfo[_tokenId].purity / 10],\r\n                numbers[\r\n                    tokenInfo[_tokenId].purity -\r\n                        ((uint256(tokenInfo[_tokenId].purity / 10)) * 10)\r\n                ]\r\n            )\r\n        );\r\n    }\r\n\r\n    function craft(uint256 _idToken1, uint256 _idToken2) public {\r\n        require(_idToken1 != _idToken2, \"NFTs are the same\");\r\n        require(ownerOf(_idToken1) == msg.sender, \"The token is not yours\");\r\n        require(ownerOf(_idToken2) == msg.sender, \"The token is not yours\");\r\n        require(\r\n            (keccak256(abi.encodePacked(tokenInfo[_idToken1].name))) !=\r\n                (keccak256(abi.encodePacked(\"InProcess\"))),\r\n            \"NFT is not ready\"\r\n        );\r\n        require(\r\n            (keccak256(abi.encodePacked(tokenInfo[_idToken2].name))) !=\r\n                (keccak256(abi.encodePacked(\"InProcess\"))),\r\n            \"NFT is not ready\"\r\n        );\r\n\r\n        uint256 numberOfBreeds = tokenInfo[_idToken1].breeding +\r\n            tokenInfo[_idToken2].breeding;\r\n\r\n        if (numberOfBreeds >= 4) {\r\n            tokenInfo[_idToken1].breeding = 4;\r\n        } else {\r\n            tokenInfo[_idToken1].breeding = numberOfBreeds;\r\n        }\r\n\r\n        tokenInfo[_idToken1].color = tokenInfo[_idToken2].color;\r\n\r\n        if (tokenInfo[_idToken1].purity > tokenInfo[_idToken2].purity) {\r\n            tokenInfo[_idToken1].purity = random(\r\n                tokenInfo[_idToken2].purity,\r\n                tokenInfo[_idToken1].purity\r\n            );\r\n        } else if (tokenInfo[_idToken1].purity < tokenInfo[_idToken2].purity) {\r\n            tokenInfo[_idToken1].purity = random(\r\n                tokenInfo[_idToken1].purity,\r\n                tokenInfo[_idToken2].purity\r\n            );\r\n        }\r\n\r\n        string memory name = string(\r\n            abi.encodePacked(\r\n                \"f\",\r\n                backgroundStrings[tokenInfo[_idToken1].background],\r\n                \"per\",\r\n                tokenInfo[_idToken1].color,\r\n                \"pur\",\r\n                numbers[tokenInfo[_idToken1].purity / 100],\r\n                numbers[tokenInfo[_idToken1].purity / 10],\r\n                numbers[\r\n                    tokenInfo[_idToken1].purity -\r\n                        ((uint256(tokenInfo[_idToken1].purity / 10)) * 10)\r\n                ]\r\n            )\r\n        );\r\n        tokenInfo[_idToken1].name = name;\r\n        _burn(_idToken2);\r\n    }\r\n\r\n    //NFT base\r\n\r\n    function _baseURI() internal pure override returns (string memory) {\r\n        return \"./NFTs/\";\r\n    }\r\n\r\n    function _burn(uint256 tokenId)\r\n        internal\r\n        override(ERC721, ERC721URIStorage)\r\n    {\r\n        super._burn(tokenId);\r\n    }\r\n\r\n    function withdraw() public onlyOwner {\r\n        require(address(this).balance > 0, \"Balance is zero\");\r\n        payable(owner()).transfer(address(this).balance);\r\n    }\r\n\r\n    function tokenURI(uint256 tokenId)\r\n        public\r\n        view\r\n        virtual\r\n        override(ERC721, ERC721URIStorage)\r\n        returns (string memory)\r\n    {\r\n        string memory baseURI = _baseURI();\r\n        return\r\n            string(abi.encodePacked(baseURI, tokenInfo[tokenId].name, \".png\"));\r\n    }\r\n\r\n    function _beforeTokenTransfer(\r\n        address from,\r\n        address to,\r\n        uint256 tokenId\r\n    ) internal override(ERC721, ERC721Enumerable) {\r\n        super._beforeTokenTransfer(from, to, tokenId);\r\n    }\r\n\r\n    function supportsInterface(bytes4 interfaceId)\r\n        public\r\n        view\r\n        override(ERC721, ERC721Enumerable)\r\n        returns (bool)\r\n    {\r\n        return super.supportsInterface(interfaceId);\r\n    }\r\n\r\n    //Getters\r\n\r\n    function getTokenTimeToClaim(uint256 _tokenId)\r\n        public\r\n        view\r\n        returns (uint256)\r\n    {\r\n        return tokenInfo[_tokenId].timeToClaim;\r\n    }\r\n\r\n    function getTokenName(uint256 _tokenId)\r\n        public\r\n        view\r\n        returns (string memory)\r\n    {\r\n        return tokenInfo[_tokenId].name;\r\n    }\r\n\r\n    function getMinPurity(uint256 _tokenId) public view returns (uint256) {\r\n        return tokenMinPurity[_tokenId];\r\n    }\r\n\r\n    function getTokenBreeding(uint256 _tokenId) public view returns (uint256) {\r\n        return tokenInfo[_tokenId].breeding;\r\n    }\r\n\r\n    function getTokenBackground(uint256 _tokenId)\r\n        public\r\n        view\r\n        returns (uint256)\r\n    {\r\n        require(\r\n            tokenInfo[_tokenId].timeToClaim < block.timestamp,\r\n            \"NFT is not ready\"\r\n        );\r\n        return tokenInfo[_tokenId].background;\r\n    }\r\n\r\n    function getTokenColor(uint256 _tokenId)\r\n        public\r\n        view\r\n        returns (string memory)\r\n    {\r\n        require(\r\n            tokenInfo[_tokenId].timeToClaim < block.timestamp,\r\n            \"NFT is not ready\"\r\n        );\r\n        return tokenInfo[_tokenId].color;\r\n    }\r\n\r\n    function getTokenNumber(uint256 _tokenId) public view returns (uint256) {\r\n        /*provisional\r\n        require(\r\n            tokenInfo[_tokenId].timeToClaim < block.timestamp,\r\n            \"NFT is not ready\"\r\n        );*/\r\n        return tokenInfo[_tokenId].number;\r\n    }\r\n\r\n    function getTokenPurity(uint256 _tokenId) public view returns (uint256) {\r\n        require(\r\n            tokenInfo[_tokenId].timeToClaim < block.timestamp,\r\n            \"NFT is not ready\"\r\n        );\r\n        return tokenInfo[_tokenId].purity;\r\n    }\r\n}\r\n",
  "sourcePath": "D:\\ProyectoGenesis\\genesis\\contracts\\NFT.sol",
  "compiler": {
    "name": "solc",
    "version": "0.8.11+commit.d7f03943.Emscripten.clang"
  },
  "schemaVersion": "3.4.4",
  "updatedAt": "2022-06-12T22:17:47.049Z",
  "networkType": "ethereum",
  "devdoc": {
    "kind": "dev",
    "methods": {
      "approve(address,uint256)": {
        "details": "See {IERC721-approve}."
      },
      "balanceOf(address)": {
        "details": "See {IERC721-balanceOf}."
      },
      "getApproved(uint256)": {
        "details": "See {IERC721-getApproved}."
      },
      "isApprovedForAll(address,address)": {
        "details": "See {IERC721-isApprovedForAll}."
      },
      "name()": {
        "details": "See {IERC721Metadata-name}."
      },
      "owner()": {
        "details": "Returns the address of the current owner."
      },
      "ownerOf(uint256)": {
        "details": "See {IERC721-ownerOf}."
      },
      "renounceOwnership()": {
        "details": "Leaves the contract without owner. It will not be possible to call `onlyOwner` functions anymore. Can only be called by the current owner. NOTE: Renouncing ownership will leave the contract without an owner, thereby removing any functionality that is only available to the owner."
      },
      "safeTransferFrom(address,address,uint256)": {
        "details": "See {IERC721-safeTransferFrom}."
      },
      "safeTransferFrom(address,address,uint256,bytes)": {
        "details": "See {IERC721-safeTransferFrom}."
      },
      "setApprovalForAll(address,bool)": {
        "details": "See {IERC721-setApprovalForAll}."
      },
      "symbol()": {
        "details": "See {IERC721Metadata-symbol}."
      },
      "tokenByIndex(uint256)": {
        "details": "See {IERC721Enumerable-tokenByIndex}."
      },
      "tokenOfOwnerByIndex(address,uint256)": {
        "details": "See {IERC721Enumerable-tokenOfOwnerByIndex}."
      },
      "totalSupply()": {
        "details": "See {IERC721Enumerable-totalSupply}."
      },
      "transferFrom(address,address,uint256)": {
        "details": "See {IERC721-transferFrom}."
      },
      "transferOwnership(address)": {
        "details": "Transfers ownership of the contract to a new account (`newOwner`). Can only be called by the current owner."
      }
    },
    "version": 1
  },
  "userdoc": {
    "kind": "user",
    "methods": {},
    "version": 1
  }
}