{
  "contractName": "NFT",
  "abi": [
    {
      "inputs": [],
      "stateMutability": "nonpayable",
      "type": "constructor"
    },
    {
      "anonymous": false,
      "inputs": [
        {
          "indexed": true,
          "internalType": "address",
          "name": "owner",
          "type": "address"
        },
        {
          "indexed": true,
          "internalType": "address",
          "name": "approved",
          "type": "address"
        },
        {
          "indexed": true,
          "internalType": "uint256",
          "name": "tokenId",
          "type": "uint256"
        }
      ],
      "name": "Approval",
      "type": "event"
    },
    {
      "anonymous": false,
      "inputs": [
        {
          "indexed": true,
          "internalType": "address",
          "name": "owner",
          "type": "address"
        },
        {
          "indexed": true,
          "internalType": "address",
          "name": "operator",
          "type": "address"
        },
        {
          "indexed": false,
          "internalType": "bool",
          "name": "approved",
          "type": "bool"
        }
      ],
      "name": "ApprovalForAll",
      "type": "event"
    },
    {
      "anonymous": false,
      "inputs": [
        {
          "indexed": true,
          "internalType": "address",
          "name": "previousOwner",
          "type": "address"
        },
        {
          "indexed": true,
          "internalType": "address",
          "name": "newOwner",
          "type": "address"
        }
      ],
      "name": "OwnershipTransferred",
      "type": "event"
    },
    {
      "anonymous": false,
      "inputs": [
        {
          "indexed": true,
          "internalType": "address",
          "name": "from",
          "type": "address"
        },
        {
          "indexed": true,
          "internalType": "address",
          "name": "to",
          "type": "address"
        },
        {
          "indexed": true,
          "internalType": "uint256",
          "name": "tokenId",
          "type": "uint256"
        }
      ],
      "name": "Transfer",
      "type": "event"
    },
    {
      "inputs": [
        {
          "internalType": "address",
          "name": "to",
          "type": "address"
        },
        {
          "internalType": "uint256",
          "name": "tokenId",
          "type": "uint256"
        }
      ],
      "name": "approve",
      "outputs": [],
      "stateMutability": "nonpayable",
      "type": "function"
    },
    {
      "inputs": [
        {
          "internalType": "address",
          "name": "owner",
          "type": "address"
        }
      ],
      "name": "balanceOf",
      "outputs": [
        {
          "internalType": "uint256",
          "name": "",
          "type": "uint256"
        }
      ],
      "stateMutability": "view",
      "type": "function",
      "constant": true
    },
    {
      "inputs": [
        {
          "internalType": "uint256",
          "name": "tokenId",
          "type": "uint256"
        }
      ],
      "name": "getApproved",
      "outputs": [
        {
          "internalType": "address",
          "name": "",
          "type": "address"
        }
      ],
      "stateMutability": "view",
      "type": "function",
      "constant": true
    },
    {
      "inputs": [
        {
          "internalType": "address",
          "name": "owner",
          "type": "address"
        },
        {
          "internalType": "address",
          "name": "operator",
          "type": "address"
        }
      ],
      "name": "isApprovedForAll",
      "outputs": [
        {
          "internalType": "bool",
          "name": "",
          "type": "bool"
        }
      ],
      "stateMutability": "view",
      "type": "function",
      "constant": true
    },
    {
      "inputs": [],
      "name": "name",
      "outputs": [
        {
          "internalType": "string",
          "name": "",
          "type": "string"
        }
      ],
      "stateMutability": "view",
      "type": "function",
      "constant": true
    },
    {
      "inputs": [],
      "name": "owner",
      "outputs": [
        {
          "internalType": "address",
          "name": "",
          "type": "address"
        }
      ],
      "stateMutability": "view",
      "type": "function",
      "constant": true
    },
    {
      "inputs": [
        {
          "internalType": "uint256",
          "name": "tokenId",
          "type": "uint256"
        }
      ],
      "name": "ownerOf",
      "outputs": [
        {
          "internalType": "address",
          "name": "",
          "type": "address"
        }
      ],
      "stateMutability": "view",
      "type": "function",
      "constant": true
    },
    {
      "inputs": [],
      "name": "renounceOwnership",
      "outputs": [],
      "stateMutability": "nonpayable",
      "type": "function"
    },
    {
      "inputs": [
        {
          "internalType": "address",
          "name": "from",
          "type": "address"
        },
        {
          "internalType": "address",
          "name": "to",
          "type": "address"
        },
        {
          "internalType": "uint256",
          "name": "tokenId",
          "type": "uint256"
        }
      ],
      "name": "safeTransferFrom",
      "outputs": [],
      "stateMutability": "nonpayable",
      "type": "function"
    },
    {
      "inputs": [
        {
          "internalType": "address",
          "name": "from",
          "type": "address"
        },
        {
          "internalType": "address",
          "name": "to",
          "type": "address"
        },
        {
          "internalType": "uint256",
          "name": "tokenId",
          "type": "uint256"
        },
        {
          "internalType": "bytes",
          "name": "_data",
          "type": "bytes"
        }
      ],
      "name": "safeTransferFrom",
      "outputs": [],
      "stateMutability": "nonpayable",
      "type": "function"
    },
    {
      "inputs": [
        {
          "internalType": "address",
          "name": "operator",
          "type": "address"
        },
        {
          "internalType": "bool",
          "name": "approved",
          "type": "bool"
        }
      ],
      "name": "setApprovalForAll",
      "outputs": [],
      "stateMutability": "nonpayable",
      "type": "function"
    },
    {
      "inputs": [],
      "name": "symbol",
      "outputs": [
        {
          "internalType": "string",
          "name": "",
          "type": "string"
        }
      ],
      "stateMutability": "view",
      "type": "function",
      "constant": true
    },
    {
      "inputs": [
        {
          "internalType": "uint256",
          "name": "index",
          "type": "uint256"
        }
      ],
      "name": "tokenByIndex",
      "outputs": [
        {
          "internalType": "uint256",
          "name": "",
          "type": "uint256"
        }
      ],
      "stateMutability": "view",
      "type": "function",
      "constant": true
    },
    {
      "inputs": [
        {
          "internalType": "address",
          "name": "owner",
          "type": "address"
        },
        {
          "internalType": "uint256",
          "name": "index",
          "type": "uint256"
        }
      ],
      "name": "tokenOfOwnerByIndex",
      "outputs": [
        {
          "internalType": "uint256",
          "name": "",
          "type": "uint256"
        }
      ],
      "stateMutability": "view",
      "type": "function",
      "constant": true
    },
    {
      "inputs": [],
      "name": "totalSupply",
      "outputs": [
        {
          "internalType": "uint256",
          "name": "",
          "type": "uint256"
        }
      ],
      "stateMutability": "view",
      "type": "function",
      "constant": true
    },
    {
      "inputs": [
        {
          "internalType": "address",
          "name": "from",
          "type": "address"
        },
        {
          "internalType": "address",
          "name": "to",
          "type": "address"
        },
        {
          "internalType": "uint256",
          "name": "tokenId",
          "type": "uint256"
        }
      ],
      "name": "transferFrom",
      "outputs": [],
      "stateMutability": "nonpayable",
      "type": "function"
    },
    {
      "inputs": [
        {
          "internalType": "address",
          "name": "newOwner",
          "type": "address"
        }
      ],
      "name": "transferOwnership",
      "outputs": [],
      "stateMutability": "nonpayable",
      "type": "function"
    },
    {
      "inputs": [
        {
          "internalType": "address",
          "name": "to",
          "type": "address"
        }
      ],
      "name": "safeMint",
      "outputs": [],
      "stateMutability": "payable",
      "type": "function",
      "payable": true
    },
    {
      "inputs": [
        {
          "internalType": "uint256",
          "name": "_idToken1",
          "type": "uint256"
        },
        {
          "internalType": "uint256",
          "name": "_idToken2",
          "type": "uint256"
        }
      ],
      "name": "breed",
      "outputs": [],
      "stateMutability": "payable",
      "type": "function",
      "payable": true
    },
    {
      "inputs": [
        {
          "internalType": "uint256",
          "name": "_tokenId",
          "type": "uint256"
        }
      ],
      "name": "claimNFT",
      "outputs": [],
      "stateMutability": "payable",
      "type": "function",
      "payable": true
    },
    {
      "inputs": [
        {
          "internalType": "uint256",
          "name": "_idToken1",
          "type": "uint256"
        },
        {
          "internalType": "uint256",
          "name": "_idToken2",
          "type": "uint256"
        }
      ],
      "name": "craft",
      "outputs": [],
      "stateMutability": "payable",
      "type": "function",
      "payable": true
    },
    {
      "inputs": [],
      "name": "withdraw",
      "outputs": [],
      "stateMutability": "nonpayable",
      "type": "function"
    },
    {
      "inputs": [
        {
          "internalType": "uint256",
          "name": "tokenId",
          "type": "uint256"
        }
      ],
      "name": "tokenURI",
      "outputs": [
        {
          "internalType": "string",
          "name": "",
          "type": "string"
        }
      ],
      "stateMutability": "view",
      "type": "function",
      "constant": true
    },
    {
      "inputs": [
        {
          "internalType": "bytes4",
          "name": "interfaceId",
          "type": "bytes4"
        }
      ],
      "name": "supportsInterface",
      "outputs": [
        {
          "internalType": "bool",
          "name": "",
          "type": "bool"
        }
      ],
      "stateMutability": "view",
      "type": "function",
      "constant": true
    },
    {
      "inputs": [],
      "name": "getWinnersPosition",
      "outputs": [
        {
          "internalType": "uint256",
          "name": "",
          "type": "uint256"
        }
      ],
      "stateMutability": "view",
      "type": "function",
      "constant": true
    },
    {
      "inputs": [
        {
          "internalType": "uint256",
          "name": "_tokenId",
          "type": "uint256"
        }
      ],
      "name": "getTokenTimeToClaim",
      "outputs": [
        {
          "internalType": "uint256",
          "name": "",
          "type": "uint256"
        }
      ],
      "stateMutability": "view",
      "type": "function",
      "constant": true
    },
    {
      "inputs": [
        {
          "internalType": "uint256",
          "name": "_tokenId",
          "type": "uint256"
        }
      ],
      "name": "getTokenName",
      "outputs": [
        {
          "internalType": "string",
          "name": "",
          "type": "string"
        }
      ],
      "stateMutability": "view",
      "type": "function",
      "constant": true
    },
    {
      "inputs": [
        {
          "internalType": "uint256",
          "name": "_tokenId",
          "type": "uint256"
        }
      ],
      "name": "getMinPurity",
      "outputs": [
        {
          "internalType": "uint256",
          "name": "",
          "type": "uint256"
        }
      ],
      "stateMutability": "view",
      "type": "function",
      "constant": true
    },
    {
      "inputs": [
        {
          "internalType": "uint256",
          "name": "_tokenId",
          "type": "uint256"
        }
      ],
      "name": "getTokenBreeding",
      "outputs": [
        {
          "internalType": "uint256",
          "name": "",
          "type": "uint256"
        }
      ],
      "stateMutability": "view",
      "type": "function",
      "constant": true
    },
    {
      "inputs": [
        {
          "internalType": "uint256",
          "name": "_tokenId",
          "type": "uint256"
        }
      ],
      "name": "getTokenBackground",
      "outputs": [
        {
          "internalType": "uint256",
          "name": "",
          "type": "uint256"
        }
      ],
      "stateMutability": "view",
      "type": "function",
      "constant": true
    },
    {
      "inputs": [
        {
          "internalType": "uint256",
          "name": "_tokenId",
          "type": "uint256"
        }
      ],
      "name": "getTokenColor",
      "outputs": [
        {
          "internalType": "string",
          "name": "",
          "type": "string"
        }
      ],
      "stateMutability": "view",
      "type": "function",
      "constant": true
    },
    {
      "inputs": [
        {
          "internalType": "uint256",
          "name": "_tokenId",
          "type": "uint256"
        }
      ],
      "name": "getTokenNumber",
      "outputs": [
        {
          "internalType": "uint256",
          "name": "",
          "type": "uint256"
        }
      ],
      "stateMutability": "view",
      "type": "function",
      "constant": true
    },
    {
      "inputs": [
        {
          "internalType": "uint256",
          "name": "_tokenId",
          "type": "uint256"
        }
      ],
      "name": "getTokenPurity",
      "outputs": [
        {
          "internalType": "uint256",
          "name": "",
          "type": "uint256"
        }
      ],
      "stateMutability": "view",
      "type": "function",
      "constant": true
    }
  ],
  "bytecode": "0x60806040526702c68af0bb140000600d5560405180608001604052806040518060400160405280600481526020017f617a756c0000000000000000000000000000000000000000000000000000000081525081526020016040518060400160405280600581526020017f766572646500000000000000000000000000000000000000000000000000000081525081526020016040518060400160405280600481526020017f726f73610000000000000000000000000000000000000000000000000000000081525081526020016040518060400160405280600681526020017f6d6172726f6e0000000000000000000000000000000000000000000000000000815250815250600e90600462000117929190620006ad565b506040518061014001604052806040518060400160405280600181526020017f300000000000000000000000000000000000000000000000000000000000000081525081526020016040518060400160405280600181526020017f310000000000000000000000000000000000000000000000000000000000000081525081526020016040518060400160405280600181526020017f320000000000000000000000000000000000000000000000000000000000000081525081526020016040518060400160405280600181526020017f330000000000000000000000000000000000000000000000000000000000000081525081526020016040518060400160405280600181526020017f340000000000000000000000000000000000000000000000000000000000000081525081526020016040518060400160405280600181526020017f350000000000000000000000000000000000000000000000000000000000000081525081526020016040518060400160405280600181526020017f360000000000000000000000000000000000000000000000000000000000000081525081526020016040518060400160405280600181526020017f370000000000000000000000000000000000000000000000000000000000000081525081526020016040518060400160405280600181526020017f380000000000000000000000000000000000000000000000000000000000000081525081526020016040518060400160405280600181526020017f3900000000000000000000000000000000000000000000000000000000000000815250815250601290600a6200038292919062000707565b506040518060c001604052806040518060400160405280600181526020017f310000000000000000000000000000000000000000000000000000000000000081525081526020016040518060400160405280600181526020017f320000000000000000000000000000000000000000000000000000000000000081525081526020016040518060400160405280600181526020017f330000000000000000000000000000000000000000000000000000000000000081525081526020016040518060400160405280600181526020017f340000000000000000000000000000000000000000000000000000000000000081525081526020016040518060400160405280600181526020017f350000000000000000000000000000000000000000000000000000000000000081525081526020016040518060400160405280600181526020017f3600000000000000000000000000000000000000000000000000000000000000815250815250601c9060066200050092919062000761565b50600060235560006026553480156200051857600080fd5b506040518060400160405280600781526020017f4d79546f6b656e000000000000000000000000000000000000000000000000008152506040518060400160405280600381526020017f4d544b000000000000000000000000000000000000000000000000000000000081525081600090805190602001906200059d929190620007bb565b508060019080519060200190620005b6929190620007bb565b505050620005d9620005cd620005df60201b60201c565b620005e760201b60201c565b6200093e565b600033905090565b6000600660009054906101000a900473ffffffffffffffffffffffffffffffffffffffff16905081600660006101000a81548173ffffffffffffffffffffffffffffffffffffffff021916908373ffffffffffffffffffffffffffffffffffffffff1602179055508173ffffffffffffffffffffffffffffffffffffffff168173ffffffffffffffffffffffffffffffffffffffff167f8be0079c531659141344cd1fd0a4f28419497f9722a3daafe3b4186f6b6457e060405160405180910390a35050565b8260048101928215620006f4579160200282015b82811115620006f3578251829080519060200190620006e2929190620007bb565b5091602001919060010190620006c1565b5b5090506200070391906200084c565b5090565b82600a81019282156200074e579160200282015b828111156200074d5782518290805190602001906200073c929190620007bb565b50916020019190600101906200071b565b5b5090506200075d91906200084c565b5090565b8260068101928215620007a8579160200282015b82811115620007a757825182908051906020019062000796929190620007bb565b509160200191906001019062000775565b5b509050620007b791906200084c565b5090565b828054620007c99062000908565b90600052602060002090601f016020900481019282620007ed576000855562000839565b82601f106200080857805160ff191683800117855562000839565b8280016001018555821562000839579182015b82811115620008385782518255916020019190600101906200081b565b5b50905062000848919062000874565b5090565b5b8082111562000870576000818162000866919062000893565b506001016200084d565b5090565b5b808211156200088f57600081600090555060010162000875565b5090565b508054620008a19062000908565b6000825580601f10620008b55750620008d6565b601f016020900490600052602060002090810190620008d5919062000874565b5b50565b7f4e487b7100000000000000000000000000000000000000000000000000000000600052602260045260246000fd5b600060028204905060018216806200092157607f821691505b60208210811415620009385762000937620008d9565b5b50919050565b6157cd806200094e6000396000f3fe6080604052600436106101ee5760003560e01c8063715018a61161010d578063c87b56dd116100a0578063e6c08dc81161006f578063e6c08dc814610732578063e8952fad1461076f578063e985e9c5146107ac578063f2fde38b146107e9578063fe5c873a14610812576101ee565b8063c87b56dd1461065f578063d52f09041461069c578063d9ecad7b146106d9578063dbe16c07146106f5576101ee565b806395d89b41116100dc57806395d89b41146105b7578063a22cb465146105e2578063b88d4fde1461060b578063c5a6048714610634576101ee565b8063715018a6146104fb5780638cfe9665146105125780638da5cb5b1461054f578063934f30d31461057a576101ee565b80632f745c591161018557806342842e0e1161015457806342842e0e1461041b5780634f6ccce7146104445780636352211e1461048157806370a08231146104be576101ee565b80632f745c591461036e57806332c70db7146103ab5780633ccfd60b146103e857806340d097c3146103ff576101ee565b806318160ddd116101c157806318160ddd146102c1578063191e2724146102ec57806323b872dd14610329578063289137a114610352576101ee565b806301ffc9a7146101f357806306fdde0314610230578063081812fc1461025b578063095ea7b314610298575b600080fd5b3480156101ff57600080fd5b5061021a60048036038101906102159190613dcf565b61082e565b6040516102279190613e17565b60405180910390f35b34801561023c57600080fd5b50610245610840565b6040516102529190613ecb565b60405180910390f35b34801561026757600080fd5b50610282600480360381019061027d9190613f23565b6108d2565b60405161028f9190613f91565b60405180910390f35b3480156102a457600080fd5b506102bf60048036038101906102ba9190613fd8565b610957565b005b3480156102cd57600080fd5b506102d6610a6f565b6040516102e39190614027565b60405180910390f35b3480156102f857600080fd5b50610313600480360381019061030e9190613f23565b610a7c565b6040516103209190614027565b60405180910390f35b34801561033557600080fd5b50610350600480360381019061034b9190614042565b610af4565b005b61036c60048036038101906103679190614095565b610b54565b005b34801561037a57600080fd5b5061039560048036038101906103909190613fd8565b611153565b6040516103a29190614027565b60405180910390f35b3480156103b757600080fd5b506103d260048036038101906103cd9190613f23565b6111f8565b6040516103df9190614027565b60405180910390f35b3480156103f457600080fd5b506103fd611215565b005b610419600480360381019061041491906140d5565b611324565b005b34801561042757600080fd5b50610442600480360381019061043d9190614042565b6115f0565b005b34801561045057600080fd5b5061046b60048036038101906104669190613f23565b611610565b6040516104789190614027565b60405180910390f35b34801561048d57600080fd5b506104a860048036038101906104a39190613f23565b611681565b6040516104b59190613f91565b60405180910390f35b3480156104ca57600080fd5b506104e560048036038101906104e091906140d5565b611733565b6040516104f29190614027565b60405180910390f35b34801561050757600080fd5b506105106117eb565b005b34801561051e57600080fd5b5061053960048036038101906105349190613f23565b611873565b6040516105469190613ecb565b60405180910390f35b34801561055b57600080fd5b5061056461191b565b6040516105719190613f91565b60405180910390f35b34801561058657600080fd5b506105a1600480360381019061059c9190613f23565b611945565b6040516105ae9190614027565b60405180910390f35b3480156105c357600080fd5b506105cc611965565b6040516105d99190613ecb565b60405180910390f35b3480156105ee57600080fd5b506106096004803603810190610604919061412e565b6119f7565b005b34801561061757600080fd5b50610632600480360381019061062d91906142a3565b611a0d565b005b34801561064057600080fd5b50610649611a6f565b6040516106569190614027565b60405180910390f35b34801561066b57600080fd5b5061068660048036038101906106819190613f23565b611ab6565b6040516106939190613ecb565b60405180910390f35b3480156106a857600080fd5b506106c360048036038101906106be9190613f23565b611b03565b6040516106d09190614027565b60405180910390f35b6106f360048036038101906106ee9190614095565b611b23565b005b34801561070157600080fd5b5061071c60048036038101906107179190613f23565b611ffa565b6040516107299190613ecb565b60405180910390f35b34801561073e57600080fd5b5061075960048036038101906107549190613f23565b6120a2565b6040516107669190614027565b60405180910390f35b34801561077b57600080fd5b5061079660048036038101906107919190613f23565b6120c2565b6040516107a39190614027565b60405180910390f35b3480156107b857600080fd5b506107d360048036038101906107ce9190614326565b6120e2565b6040516107e09190613e17565b60405180910390f35b3480156107f557600080fd5b50610810600480360381019061080b91906140d5565b612176565b005b61082c60048036038101906108279190613f23565b61226e565b005b6000610839826125df565b9050919050565b60606000805461084f90614395565b80601f016020809104026020016040519081016040528092919081815260200182805461087b90614395565b80156108c85780601f1061089d576101008083540402835291602001916108c8565b820191906000526020600020905b8154815290600101906020018083116108ab57829003601f168201915b5050505050905090565b60006108dd82612659565b61091c576040517f08c379a000000000000000000000000000000000000000000000000000000000815260040161091390614439565b60405180910390fd5b6004600083815260200190815260200160002060009054906101000a900473ffffffffffffffffffffffffffffffffffffffff169050919050565b600061096282611681565b90508073ffffffffffffffffffffffffffffffffffffffff168373ffffffffffffffffffffffffffffffffffffffff1614156109d3576040517f08c379a00000000000000000000000000000000000000000000000000000000081526004016109ca906144cb565b60405180910390fd5b8073ffffffffffffffffffffffffffffffffffffffff166109f26126c5565b73ffffffffffffffffffffffffffffffffffffffff161480610a215750610a2081610a1b6126c5565b6120e2565b5b610a60576040517f08c379a0000000000000000000000000000000000000000000000000000000008152600401610a579061455d565b60405180910390fd5b610a6a83836126cd565b505050565b6000600a80549050905090565b600042602460008481526020019081526020016000206006015410610ad6576040517f08c379a0000000000000000000000000000000000000000000000000000000008152600401610acd906145c9565b60405180910390fd5b60246000838152602001908152602001600020600501549050919050565b610b05610aff6126c5565b82612786565b610b44576040517f08c379a0000000000000000000000000000000000000000000000000000000008152600401610b3b9061465b565b60405180910390fd5b610b4f838383612864565b505050565b600d54341015610b99576040517f08c379a0000000000000000000000000000000000000000000000000000000008152600401610b90906146c7565b60405180910390fd5b80821415610bdc576040517f08c379a0000000000000000000000000000000000000000000000000000000008152600401610bd390614733565b60405180910390fd5b3373ffffffffffffffffffffffffffffffffffffffff16610bfc83611681565b73ffffffffffffffffffffffffffffffffffffffff1614610c52576040517f08c379a0000000000000000000000000000000000000000000000000000000008152600401610c499061479f565b60405180910390fd5b3373ffffffffffffffffffffffffffffffffffffffff16610c7282611681565b73ffffffffffffffffffffffffffffffffffffffff1614610cc8576040517f08c379a0000000000000000000000000000000000000000000000000000000008152600401610cbf9061479f565b60405180910390fd5b604051602001610cd790614816565b6040516020818303038152906040528051906020012060246000848152602001908152602001600020600001604051602001610d1391906148bf565b604051602081830303815290604052805190602001201415610d6a576040517f08c379a0000000000000000000000000000000000000000000000000000000008152600401610d61906145c9565b60405180910390fd5b604051602001610d7990614816565b6040516020818303038152906040528051906020012060246000838152602001908152602001600020600001604051602001610db591906148bf565b604051602081830303815290604052805190602001201415610e0c576040517f08c379a0000000000000000000000000000000000000000000000000000000008152600401610e03906145c9565b60405180910390fd5b600060246000838152602001908152602001600020600101546024600085815260200190815260200160002060010154610e469190614905565b905060048110610e715760046024600085815260200190815260200160002060010181905550610e8d565b8060246000858152602001908152602001600020600101819055505b6024600083815260200190815260200160002060020160246000858152602001908152602001600020600201908054610ec590614395565b610ed0929190613bf3565b50602460008381526020019081526020016000206004015460246000858152602001908152602001600020600401541115610f5a57610f3b60246000848152602001908152602001600020600401546024600086815260200190815260200160002060040154612acb565b6024600085815260200190815260200160002060040181905550610fe0565b602460008381526020019081526020016000206004015460246000858152602001908152602001600020600401541015610fdf57610fc460246000858152602001908152602001600020600401546024600085815260200190815260200160002060040154612acb565b60246000858152602001908152602001600020600401819055505b5b6000601c60246000868152602001908152602001600020600501546006811061100c5761100b61495b565b5b016024600086815260200190815260200160002060020160126064602460008981526020019081526020016000206004015461104891906149b9565b600a81106110595761105861495b565b5b016012600a602460008a81526020019081526020016000206004015461107f91906149b9565b600a81106110905761108f61495b565b5b016012600a80602460008c8152602001908152602001600020600401546110b791906149b9565b6110c191906149ea565b602460008b8152602001908152602001600020600401546110e29190614a44565b600a81106110f3576110f261495b565b5b01604051602001611108959493929190614b5c565b604051602081830303815290604052905080602460008681526020019081526020016000206000019080519060200190611143929190613c80565b5061114d83612b29565b50505050565b600061115e83611733565b821061119f576040517f08c379a000000000000000000000000000000000000000000000000000000000815260040161119690614c3a565b60405180910390fd5b600860008473ffffffffffffffffffffffffffffffffffffffff1673ffffffffffffffffffffffffffffffffffffffff168152602001908152602001600020600083815260200190815260200160002054905092915050565b600060256000838152602001908152602001600020549050919050565b61121d6126c5565b73ffffffffffffffffffffffffffffffffffffffff1661123b61191b565b73ffffffffffffffffffffffffffffffffffffffff1614611291576040517f08c379a000000000000000000000000000000000000000000000000000000000815260040161128890614ca6565b60405180910390fd5b600047116112d4576040517f08c379a00000000000000000000000000000000000000000000000000000000081526004016112cb90614d12565b60405180910390fd5b6112dc61191b565b73ffffffffffffffffffffffffffffffffffffffff166108fc479081150290604051600060405180830381858888f19350505050158015611321573d6000803e3d6000fd5b50565b600d54341015611369576040517f08c379a0000000000000000000000000000000000000000000000000000000008152600401611360906146c7565b60405180910390fd5b6000611375600c612b35565b905060006113856001600a612acb565b9050600061139560006006612acb565b90506000600e6113a760006004612acb565b600481106113b8576113b761495b565b5b0180546113c490614395565b80601f01602080910402602001604051908101604052809291908181526020018280546113f090614395565b801561143d5780601f106114125761010080835404028352916020019161143d565b820191906000526020600020905b81548152906001019060200180831161142057829003601f168201915b505050505090506000601c836006811061145a5761145961495b565b5b0182601260648761146b91906149b9565b600a811061147c5761147b61495b565b5b016012600a8861148c91906149b9565b600a811061149d5761149c61495b565b5b016012600a808a6114ae91906149b9565b6114b891906149ea565b896114c39190614a44565b600a81106114d4576114d361495b565b5b016040516020016114e9959493929190614d63565b604051602081830303815290604052905080602460008781526020019081526020016000206000019080519060200190611524929190613c80565b506004602460008781526020019081526020016000206001018190555083602460008781526020019081526020016000206004018190555081602460008781526020019081526020016000206002019080519060200190611586929190613c80565b5082602460008781526020019081526020016000206005018190555060016026546115b19190614905565b60268190555060265460246000878152602001908152602001600020600301819055506115de600c612b43565b6115e88686612b59565b505050505050565b61160b83838360405180602001604052806000815250611a0d565b505050565b600061161a610a6f565b821061165b576040517f08c379a000000000000000000000000000000000000000000000000000000000815260040161165290614e41565b60405180910390fd5b600a828154811061166f5761166e61495b565b5b90600052602060002001549050919050565b6000806002600084815260200190815260200160002060009054906101000a900473ffffffffffffffffffffffffffffffffffffffff169050600073ffffffffffffffffffffffffffffffffffffffff168173ffffffffffffffffffffffffffffffffffffffff16141561172a576040517f08c379a000000000000000000000000000000000000000000000000000000000815260040161172190614ed3565b60405180910390fd5b80915050919050565b60008073ffffffffffffffffffffffffffffffffffffffff168273ffffffffffffffffffffffffffffffffffffffff1614156117a4576040517f08c379a000000000000000000000000000000000000000000000000000000000815260040161179b90614f65565b60405180910390fd5b600360008373ffffffffffffffffffffffffffffffffffffffff1673ffffffffffffffffffffffffffffffffffffffff168152602001908152602001600020549050919050565b6117f36126c5565b73ffffffffffffffffffffffffffffffffffffffff1661181161191b565b73ffffffffffffffffffffffffffffffffffffffff1614611867576040517f08c379a000000000000000000000000000000000000000000000000000000000815260040161185e90614ca6565b60405180910390fd5b6118716000612b77565b565b606060246000838152602001908152602001600020600201805461189690614395565b80601f01602080910402602001604051908101604052809291908181526020018280546118c290614395565b801561190f5780601f106118e45761010080835404028352916020019161190f565b820191906000526020600020905b8154815290600101906020018083116118f257829003601f168201915b50505050509050919050565b6000600660009054906101000a900473ffffffffffffffffffffffffffffffffffffffff16905090565b600060246000838152602001908152602001600020600601549050919050565b60606001805461197490614395565b80601f01602080910402602001604051908101604052809291908181526020018280546119a090614395565b80156119ed5780601f106119c2576101008083540402835291602001916119ed565b820191906000526020600020905b8154815290600101906020018083116119d057829003601f168201915b5050505050905090565b611a09611a026126c5565b8383612c3d565b5050565b611a1e611a186126c5565b83612786565b611a5d576040517f08c379a0000000000000000000000000000000000000000000000000000000008152600401611a549061465b565b60405180910390fd5b611a6984848484612daa565b50505050565b6000602260003373ffffffffffffffffffffffffffffffffffffffff1673ffffffffffffffffffffffffffffffffffffffff16815260200190815260200160002054905090565b60606000611ac2612e06565b90508060246000858152602001908152602001600020600001604051602001611aec929190614fd1565b604051602081830303815290604052915050919050565b600060246000838152602001908152602001600020600401549050919050565b600d54341015611b68576040517f08c379a0000000000000000000000000000000000000000000000000000000008152600401611b5f906146c7565b60405180910390fd5b80821415611bab576040517f08c379a0000000000000000000000000000000000000000000000000000000008152600401611ba290614733565b60405180910390fd5b3373ffffffffffffffffffffffffffffffffffffffff16611bcb83611681565b73ffffffffffffffffffffffffffffffffffffffff1614611c21576040517f08c379a0000000000000000000000000000000000000000000000000000000008152600401611c189061479f565b60405180910390fd5b3373ffffffffffffffffffffffffffffffffffffffff16611c4182611681565b73ffffffffffffffffffffffffffffffffffffffff1614611c97576040517f08c379a0000000000000000000000000000000000000000000000000000000008152600401611c8e9061479f565b60405180910390fd5b60246000828152602001908152602001600020600201604051602001611cbd91906148bf565b6040516020818303038152906040528051906020012060246000848152602001908152602001600020600201604051602001611cf991906148bf565b6040516020818303038152906040528051906020012014611d4f576040517f08c379a0000000000000000000000000000000000000000000000000000000008152600401611d4690615072565b60405180910390fd5b6000602460008481526020019081526020016000206001015411611da8576040517f08c379a0000000000000000000000000000000000000000000000000000000008152600401611d9f90615104565b60405180910390fd5b6000602460008381526020019081526020016000206001015411611e01576040517f08c379a0000000000000000000000000000000000000000000000000000000008152600401611df890615104565b60405180910390fd5b604051602001611e1090614816565b6040516020818303038152906040528051906020012060246000848152602001908152602001600020600001604051602001611e4c91906148bf565b604051602081830303815290604052805190602001201415611ea3576040517f08c379a0000000000000000000000000000000000000000000000000000000008152600401611e9a906145c9565b60405180910390fd5b604051602001611eb290614816565b6040516020818303038152906040528051906020012060246000838152602001908152602001600020600001604051602001611eee91906148bf565b604051602081830303815290604052805190602001201415611f45576040517f08c379a0000000000000000000000000000000000000000000000000000000008152600401611f3c906145c9565b60405180910390fd5b60016024600084815260200190815260200160002060010154611f689190614a44565b602460008481526020019081526020016000206001018190555060016024600083815260200190815260200160002060010154611fa59190614a44565b6024600083815260200190815260200160002060010181905550611ff63360246000858152602001908152602001600020600401546024600085815260200190815260200160002060040154612e43565b5050565b606060246000838152602001908152602001600020600001805461201d90614395565b80601f016020809104026020016040519081016040528092919081815260200182805461204990614395565b80156120965780601f1061206b57610100808354040283529160200191612096565b820191906000526020600020905b81548152906001019060200180831161207957829003601f168201915b50505050509050919050565b600060246000838152602001908152602001600020600101549050919050565b600060246000838152602001908152602001600020600301549050919050565b6000600560008473ffffffffffffffffffffffffffffffffffffffff1673ffffffffffffffffffffffffffffffffffffffff16815260200190815260200160002060008373ffffffffffffffffffffffffffffffffffffffff1673ffffffffffffffffffffffffffffffffffffffff16815260200190815260200160002060009054906101000a900460ff16905092915050565b61217e6126c5565b73ffffffffffffffffffffffffffffffffffffffff1661219c61191b565b73ffffffffffffffffffffffffffffffffffffffff16146121f2576040517f08c379a00000000000000000000000000000000000000000000000000000000081526004016121e990614ca6565b60405180910390fd5b600073ffffffffffffffffffffffffffffffffffffffff168173ffffffffffffffffffffffffffffffffffffffff161415612262576040517f08c379a000000000000000000000000000000000000000000000000000000000815260040161225990615196565b60405180910390fd5b61226b81612b77565b50565b600d543410156122b3576040517f08c379a00000000000000000000000000000000000000000000000000000000081526004016122aa906146c7565b60405180910390fd5b6040516020016122c290614816565b60405160208183030381529060405280519060200120602460008381526020019081526020016000206000016040516020016122fe91906148bf565b6040516020818303038152906040528051906020012014612354576040517f08c379a000000000000000000000000000000000000000000000000000000000815260040161234b90615202565b60405180910390fd5b60646024600083815260200190815260200160002060040154141561247c576040518060400160405280600681526020017f70757231303000000000000000000000000000000000000000000000000000008152506024600083815260200190815260200160002060000190805190602001906123d2929190613c80565b506000602260003373ffffffffffffffffffffffffffffffffffffffff1673ffffffffffffffffffffffffffffffffffffffff16815260200190815260200160002054141561247757600160235461242a9190614905565b602381905550602354602260003373ffffffffffffffffffffffffffffffffffffffff1673ffffffffffffffffffffffffffffffffffffffff168152602001908152602001600020819055505b6125dc565b601c6024600083815260200190815260200160002060050154600681106124a6576124a561495b565b5b01602460008381526020019081526020016000206002016012606460246000868152602001908152602001600020600401546124e291906149b9565b600a81106124f3576124f261495b565b5b016012600a602460008781526020019081526020016000206004015461251991906149b9565b600a811061252a5761252961495b565b5b016012600a80602460008981526020019081526020016000206004015461255191906149b9565b61255b91906149ea565b602460008881526020019081526020016000206004015461257c9190614a44565b600a811061258d5761258c61495b565b5b016040516020016125a2959493929190614b5c565b6040516020818303038152906040526024600083815260200190815260200160002060000190805190602001906125da929190613c80565b505b50565b60007f780e9d63000000000000000000000000000000000000000000000000000000007bffffffffffffffffffffffffffffffffffffffffffffffffffffffff1916827bffffffffffffffffffffffffffffffffffffffffffffffffffffffff19161480612652575061265182613123565b5b9050919050565b60008073ffffffffffffffffffffffffffffffffffffffff166002600084815260200190815260200160002060009054906101000a900473ffffffffffffffffffffffffffffffffffffffff1673ffffffffffffffffffffffffffffffffffffffff1614159050919050565b600033905090565b816004600083815260200190815260200160002060006101000a81548173ffffffffffffffffffffffffffffffffffffffff021916908373ffffffffffffffffffffffffffffffffffffffff160217905550808273ffffffffffffffffffffffffffffffffffffffff1661274083611681565b73ffffffffffffffffffffffffffffffffffffffff167f8c5be1e5ebec7d5bd14f71427d1e84f3dd0314c0f7b2291e5b200ac8c7c3b92560405160405180910390a45050565b600061279182612659565b6127d0576040517f08c379a00000000000000000000000000000000000000000000000000000000081526004016127c790615294565b60405180910390fd5b60006127db83611681565b90508073ffffffffffffffffffffffffffffffffffffffff168473ffffffffffffffffffffffffffffffffffffffff16148061284a57508373ffffffffffffffffffffffffffffffffffffffff16612832846108d2565b73ffffffffffffffffffffffffffffffffffffffff16145b8061285b575061285a81856120e2565b5b91505092915050565b8273ffffffffffffffffffffffffffffffffffffffff1661288482611681565b73ffffffffffffffffffffffffffffffffffffffff16146128da576040517f08c379a00000000000000000000000000000000000000000000000000000000081526004016128d190615326565b60405180910390fd5b600073ffffffffffffffffffffffffffffffffffffffff168273ffffffffffffffffffffffffffffffffffffffff16141561294a576040517f08c379a0000000000000000000000000000000000000000000000000000000008152600401612941906153b8565b60405180910390fd5b612955838383613205565b6129606000826126cd565b6001600360008573ffffffffffffffffffffffffffffffffffffffff1673ffffffffffffffffffffffffffffffffffffffff16815260200190815260200160002060008282546129b09190614a44565b925050819055506001600360008473ffffffffffffffffffffffffffffffffffffffff1673ffffffffffffffffffffffffffffffffffffffff1681526020019081526020016000206000828254612a079190614905565b92505081905550816002600083815260200190815260200160002060006101000a81548173ffffffffffffffffffffffffffffffffffffffff021916908373ffffffffffffffffffffffffffffffffffffffff160217905550808273ffffffffffffffffffffffffffffffffffffffff168473ffffffffffffffffffffffffffffffffffffffff167fddf252ad1be2c89b69c2b068fc378daa952ba7f163c4a11628f55a4df523b3ef60405160405180910390a4612ac6838383613215565b505050565b6000808383612ada9190614a44565b424433604051602001612aef93929190615441565b6040516020818303038152906040528051906020012060001c612b12919061547e565b90508381612b209190614905565b91505092915050565b612b328161321a565b50565b600081600001549050919050565b6001816000016000828254019250508190555050565b612b7382826040518060200160405280600081525061326d565b5050565b6000600660009054906101000a900473ffffffffffffffffffffffffffffffffffffffff16905081600660006101000a81548173ffffffffffffffffffffffffffffffffffffffff021916908373ffffffffffffffffffffffffffffffffffffffff1602179055508173ffffffffffffffffffffffffffffffffffffffff168173ffffffffffffffffffffffffffffffffffffffff167f8be0079c531659141344cd1fd0a4f28419497f9722a3daafe3b4186f6b6457e060405160405180910390a35050565b8173ffffffffffffffffffffffffffffffffffffffff168373ffffffffffffffffffffffffffffffffffffffff161415612cac576040517f08c379a0000000000000000000000000000000000000000000000000000000008152600401612ca3906154fb565b60405180910390fd5b80600560008573ffffffffffffffffffffffffffffffffffffffff1673ffffffffffffffffffffffffffffffffffffffff16815260200190815260200160002060008473ffffffffffffffffffffffffffffffffffffffff1673ffffffffffffffffffffffffffffffffffffffff16815260200190815260200160002060006101000a81548160ff0219169083151502179055508173ffffffffffffffffffffffffffffffffffffffff168373ffffffffffffffffffffffffffffffffffffffff167f17307eab39ab6107e8899845ad3d59bd9653f200f220920489ca2b5937696c3183604051612d9d9190613e17565b60405180910390a3505050565b612db5848484612864565b612dc1848484846132c8565b612e00576040517f08c379a0000000000000000000000000000000000000000000000000000000008152600401612df79061558d565b60405180910390fd5b50505050565b60606040518060400160405280600781526020017f2e2f4e4654732f00000000000000000000000000000000000000000000000000815250905090565b600060028284612e539190614905565b612e5d91906149b9565b90506000612e7782600a84612e729190614905565b612acb565b90506000612e85600c612b35565b9050600061a8c042612e979190614905565b905060006040518060400160405280600981526020017f496e50726f63657373000000000000000000000000000000000000000000000081525090506000612ee160006006612acb565b9050606060648610612f4a57606495506040518060400160405280600681526020017f646f7261646f0000000000000000000000000000000000000000000000000000815250905060006024600087815260200190815260200160002060010181905550613012565b600e612f5860006004612acb565b60048110612f6957612f6861495b565b5b018054612f7590614395565b80601f0160208091040260200160405190810160405280929190818152602001828054612fa190614395565b8015612fee5780601f10612fc357610100808354040283529160200191612fee565b820191906000526020600020905b815481529060010190602001808311612fd157829003601f168201915b50505050509050600460246000878152602001908152602001600020600101819055505b8660256000878152602001908152602001600020819055508360246000878152602001908152602001600020600601819055508260246000878152602001908152602001600020600001908051906020019061306f929190613c80565b50856024600087815260200190815260200160002060040181905550806024600087815260200190815260200160002060020190805190602001906130b5929190613c80565b5081602460008781526020019081526020016000206005018190555060016026546130e09190614905565b602681905550602654602460008781526020019081526020016000206003018190555061310d600c612b43565b6131178a86612b59565b50505050505050505050565b60007f80ac58cd000000000000000000000000000000000000000000000000000000007bffffffffffffffffffffffffffffffffffffffffffffffffffffffff1916827bffffffffffffffffffffffffffffffffffffffffffffffffffffffff191614806131ee57507f5b5e139f000000000000000000000000000000000000000000000000000000007bffffffffffffffffffffffffffffffffffffffffffffffffffffffff1916827bffffffffffffffffffffffffffffffffffffffffffffffffffffffff1916145b806131fe57506131fd82613450565b5b9050919050565b6132108383836134ba565b505050565b505050565b613223816135ce565b600060076000838152602001908152602001600020805461324390614395565b90501461326a576007600082815260200190815260200160002060006132699190613d06565b5b50565b61327783836136eb565b61328460008484846132c8565b6132c3576040517f08c379a00000000000000000000000000000000000000000000000000000000081526004016132ba9061558d565b60405180910390fd5b505050565b60006132e98473ffffffffffffffffffffffffffffffffffffffff166138c5565b15613443578373ffffffffffffffffffffffffffffffffffffffff1663150b7a026133126126c5565b8786866040518563ffffffff1660e01b81526004016133349493929190615602565b6020604051808303816000875af192505050801561337057506040513d601f19601f8201168201806040525081019061336d9190615663565b60015b6133f3573d80600081146133a0576040519150601f19603f3d011682016040523d82523d6000602084013e6133a5565b606091505b506000815114156133eb576040517f08c379a00000000000000000000000000000000000000000000000000000000081526004016133e29061558d565b60405180910390fd5b805181602001fd5b63150b7a0260e01b7bffffffffffffffffffffffffffffffffffffffffffffffffffffffff1916817bffffffffffffffffffffffffffffffffffffffffffffffffffffffff191614915050613448565b600190505b949350505050565b60007f01ffc9a7000000000000000000000000000000000000000000000000000000007bffffffffffffffffffffffffffffffffffffffffffffffffffffffff1916827bffffffffffffffffffffffffffffffffffffffffffffffffffffffff1916149050919050565b6134c58383836138e8565b600073ffffffffffffffffffffffffffffffffffffffff168373ffffffffffffffffffffffffffffffffffffffff16141561350857613503816138ed565b613547565b8173ffffffffffffffffffffffffffffffffffffffff168373ffffffffffffffffffffffffffffffffffffffff1614613546576135458382613936565b5b5b600073ffffffffffffffffffffffffffffffffffffffff168273ffffffffffffffffffffffffffffffffffffffff16141561358a5761358581613aa3565b6135c9565b8273ffffffffffffffffffffffffffffffffffffffff168273ffffffffffffffffffffffffffffffffffffffff16146135c8576135c78282613b74565b5b5b505050565b60006135d982611681565b90506135e781600084613205565b6135f26000836126cd565b6001600360008373ffffffffffffffffffffffffffffffffffffffff1673ffffffffffffffffffffffffffffffffffffffff16815260200190815260200160002060008282546136429190614a44565b925050819055506002600083815260200190815260200160002060006101000a81549073ffffffffffffffffffffffffffffffffffffffff021916905581600073ffffffffffffffffffffffffffffffffffffffff168273ffffffffffffffffffffffffffffffffffffffff167fddf252ad1be2c89b69c2b068fc378daa952ba7f163c4a11628f55a4df523b3ef60405160405180910390a46136e781600084613215565b5050565b600073ffffffffffffffffffffffffffffffffffffffff168273ffffffffffffffffffffffffffffffffffffffff16141561375b576040517f08c379a0000000000000000000000000000000000000000000000000000000008152600401613752906156dc565b60405180910390fd5b61376481612659565b156137a4576040517f08c379a000000000000000000000000000000000000000000000000000000000815260040161379b90615748565b60405180910390fd5b6137b060008383613205565b6001600360008473ffffffffffffffffffffffffffffffffffffffff1673ffffffffffffffffffffffffffffffffffffffff16815260200190815260200160002060008282546138009190614905565b92505081905550816002600083815260200190815260200160002060006101000a81548173ffffffffffffffffffffffffffffffffffffffff021916908373ffffffffffffffffffffffffffffffffffffffff160217905550808273ffffffffffffffffffffffffffffffffffffffff16600073ffffffffffffffffffffffffffffffffffffffff167fddf252ad1be2c89b69c2b068fc378daa952ba7f163c4a11628f55a4df523b3ef60405160405180910390a46138c160008383613215565b5050565b6000808273ffffffffffffffffffffffffffffffffffffffff163b119050919050565b505050565b600a80549050600b600083815260200190815260200160002081905550600a81908060018154018082558091505060019003906000526020600020016000909190919091505550565b6000600161394384611733565b61394d9190614a44565b9050600060096000848152602001908152602001600020549050818114613a32576000600860008673ffffffffffffffffffffffffffffffffffffffff1673ffffffffffffffffffffffffffffffffffffffff168152602001908152602001600020600084815260200190815260200160002054905080600860008773ffffffffffffffffffffffffffffffffffffffff1673ffffffffffffffffffffffffffffffffffffffff168152602001908152602001600020600084815260200190815260200160002081905550816009600083815260200190815260200160002081905550505b6009600084815260200190815260200160002060009055600860008573ffffffffffffffffffffffffffffffffffffffff1673ffffffffffffffffffffffffffffffffffffffff16815260200190815260200160002060008381526020019081526020016000206000905550505050565b60006001600a80549050613ab79190614a44565b90506000600b60008481526020019081526020016000205490506000600a8381548110613ae757613ae661495b565b5b9060005260206000200154905080600a8381548110613b0957613b0861495b565b5b906000526020600020018190555081600b600083815260200190815260200160002081905550600b600085815260200190815260200160002060009055600a805480613b5857613b57615768565b5b6001900381819060005260206000200160009055905550505050565b6000613b7f83611733565b905081600860008573ffffffffffffffffffffffffffffffffffffffff1673ffffffffffffffffffffffffffffffffffffffff168152602001908152602001600020600083815260200190815260200160002081905550806009600084815260200190815260200160002081905550505050565b828054613bff90614395565b90600052602060002090601f016020900481019282613c215760008555613c6f565b82601f10613c325780548555613c6f565b82800160010185558215613c6f57600052602060002091601f016020900482015b82811115613c6e578254825591600101919060010190613c53565b5b509050613c7c9190613d46565b5090565b828054613c8c90614395565b90600052602060002090601f016020900481019282613cae5760008555613cf5565b82601f10613cc757805160ff1916838001178555613cf5565b82800160010185558215613cf5579182015b82811115613cf4578251825591602001919060010190613cd9565b5b509050613d029190613d46565b5090565b508054613d1290614395565b6000825580601f10613d245750613d43565b601f016020900490600052602060002090810190613d429190613d46565b5b50565b5b80821115613d5f576000816000905550600101613d47565b5090565b6000604051905090565b600080fd5b600080fd5b60007fffffffff0000000000000000000000000000000000000000000000000000000082169050919050565b613dac81613d77565b8114613db757600080fd5b50565b600081359050613dc981613da3565b92915050565b600060208284031215613de557613de4613d6d565b5b6000613df384828501613dba565b91505092915050565b60008115159050919050565b613e1181613dfc565b82525050565b6000602082019050613e2c6000830184613e08565b92915050565b600081519050919050565b600082825260208201905092915050565b60005b83811015613e6c578082015181840152602081019050613e51565b83811115613e7b576000848401525b50505050565b6000601f19601f8301169050919050565b6000613e9d82613e32565b613ea78185613e3d565b9350613eb7818560208601613e4e565b613ec081613e81565b840191505092915050565b60006020820190508181036000830152613ee58184613e92565b905092915050565b6000819050919050565b613f0081613eed565b8114613f0b57600080fd5b50565b600081359050613f1d81613ef7565b92915050565b600060208284031215613f3957613f38613d6d565b5b6000613f4784828501613f0e565b91505092915050565b600073ffffffffffffffffffffffffffffffffffffffff82169050919050565b6000613f7b82613f50565b9050919050565b613f8b81613f70565b82525050565b6000602082019050613fa66000830184613f82565b92915050565b613fb581613f70565b8114613fc057600080fd5b50565b600081359050613fd281613fac565b92915050565b60008060408385031215613fef57613fee613d6d565b5b6000613ffd85828601613fc3565b925050602061400e85828601613f0e565b9150509250929050565b61402181613eed565b82525050565b600060208201905061403c6000830184614018565b92915050565b60008060006060848603121561405b5761405a613d6d565b5b600061406986828701613fc3565b935050602061407a86828701613fc3565b925050604061408b86828701613f0e565b9150509250925092565b600080604083850312156140ac576140ab613d6d565b5b60006140ba85828601613f0e565b92505060206140cb85828601613f0e565b9150509250929050565b6000602082840312156140eb576140ea613d6d565b5b60006140f984828501613fc3565b91505092915050565b61410b81613dfc565b811461411657600080fd5b50565b60008135905061412881614102565b92915050565b6000806040838503121561414557614144613d6d565b5b600061415385828601613fc3565b925050602061416485828601614119565b9150509250929050565b600080fd5b600080fd5b7f4e487b7100000000000000000000000000000000000000000000000000000000600052604160045260246000fd5b6141b082613e81565b810181811067ffffffffffffffff821117156141cf576141ce614178565b5b80604052505050565b60006141e2613d63565b90506141ee82826141a7565b919050565b600067ffffffffffffffff82111561420e5761420d614178565b5b61421782613e81565b9050602081019050919050565b82818337600083830152505050565b6000614246614241846141f3565b6141d8565b90508281526020810184848401111561426257614261614173565b5b61426d848285614224565b509392505050565b600082601f83011261428a5761428961416e565b5b813561429a848260208601614233565b91505092915050565b600080600080608085870312156142bd576142bc613d6d565b5b60006142cb87828801613fc3565b94505060206142dc87828801613fc3565b93505060406142ed87828801613f0e565b925050606085013567ffffffffffffffff81111561430e5761430d613d72565b5b61431a87828801614275565b91505092959194509250565b6000806040838503121561433d5761433c613d6d565b5b600061434b85828601613fc3565b925050602061435c85828601613fc3565b9150509250929050565b7f4e487b7100000000000000000000000000000000000000000000000000000000600052602260045260246000fd5b600060028204905060018216806143ad57607f821691505b602082108114156143c1576143c0614366565b5b50919050565b7f4552433732313a20617070726f76656420717565727920666f72206e6f6e657860008201527f697374656e7420746f6b656e0000000000000000000000000000000000000000602082015250565b6000614423602c83613e3d565b915061442e826143c7565b604082019050919050565b6000602082019050818103600083015261445281614416565b9050919050565b7f4552433732313a20617070726f76616c20746f2063757272656e74206f776e6560008201527f7200000000000000000000000000000000000000000000000000000000000000602082015250565b60006144b5602183613e3d565b91506144c082614459565b604082019050919050565b600060208201905081810360008301526144e4816144a8565b9050919050565b7f4552433732313a20617070726f76652063616c6c6572206973206e6f74206f7760008201527f6e6572206e6f7220617070726f76656420666f7220616c6c0000000000000000602082015250565b6000614547603883613e3d565b9150614552826144eb565b604082019050919050565b600060208201905081810360008301526145768161453a565b9050919050565b7f4e4654206973206e6f7420726561647900000000000000000000000000000000600082015250565b60006145b3601083613e3d565b91506145be8261457d565b602082019050919050565b600060208201905081810360008301526145e2816145a6565b9050919050565b7f4552433732313a207472616e736665722063616c6c6572206973206e6f74206f60008201527f776e6572206e6f7220617070726f766564000000000000000000000000000000602082015250565b6000614645603183613e3d565b9150614650826145e9565b604082019050919050565b6000602082019050818103600083015261467481614638565b9050919050565b7f4e6f7420656e6f7567682065746865722073656e742e00000000000000000000600082015250565b60006146b1601683613e3d565b91506146bc8261467b565b602082019050919050565b600060208201905081810360008301526146e0816146a4565b9050919050565b7f4e46547320617265207468652073616d65000000000000000000000000000000600082015250565b600061471d601183613e3d565b9150614728826146e7565b602082019050919050565b6000602082019050818103600083015261474c81614710565b9050919050565b7f54686520746f6b656e206973206e6f7420796f75727300000000000000000000600082015250565b6000614789601683613e3d565b915061479482614753565b602082019050919050565b600060208201905081810360008301526147b88161477c565b9050919050565b600081905092915050565b7f496e50726f636573730000000000000000000000000000000000000000000000600082015250565b60006148006009836147bf565b915061480b826147ca565b600982019050919050565b6000614821826147f3565b9150819050919050565b60008190508160005260206000209050919050565b6000815461484d81614395565b61485781866147bf565b945060018216600081146148725760018114614883576148b6565b60ff198316865281860193506148b6565b61488c8561482b565b60005b838110156148ae5781548189015260018201915060208101905061488f565b838801955050505b50505092915050565b60006148cb8284614840565b915081905092915050565b7f4e487b7100000000000000000000000000000000000000000000000000000000600052601160045260246000fd5b600061491082613eed565b915061491b83613eed565b9250827fffffffffffffffffffffffffffffffffffffffffffffffffffffffffffffffff038211156149505761494f6148d6565b5b828201905092915050565b7f4e487b7100000000000000000000000000000000000000000000000000000000600052603260045260246000fd5b7f4e487b7100000000000000000000000000000000000000000000000000000000600052601260045260246000fd5b60006149c482613eed565b91506149cf83613eed565b9250826149df576149de61498a565b5b828204905092915050565b60006149f582613eed565b9150614a0083613eed565b9250817fffffffffffffffffffffffffffffffffffffffffffffffffffffffffffffffff0483118215151615614a3957614a386148d6565b5b828202905092915050565b6000614a4f82613eed565b9150614a5a83613eed565b925082821015614a6d57614a6c6148d6565b5b828203905092915050565b7f6600000000000000000000000000000000000000000000000000000000000000600082015250565b6000614aae6001836147bf565b9150614ab982614a78565b600182019050919050565b7f7065720000000000000000000000000000000000000000000000000000000000600082015250565b6000614afa6003836147bf565b9150614b0582614ac4565b600382019050919050565b7f7075720000000000000000000000000000000000000000000000000000000000600082015250565b6000614b466003836147bf565b9150614b5182614b10565b600382019050919050565b6000614b6782614aa1565b9150614b738288614840565b9150614b7e82614aed565b9150614b8a8287614840565b9150614b9582614b39565b9150614ba18286614840565b9150614bad8285614840565b9150614bb98284614840565b91508190509695505050505050565b7f455243373231456e756d657261626c653a206f776e657220696e646578206f7560008201527f74206f6620626f756e6473000000000000000000000000000000000000000000602082015250565b6000614c24602b83613e3d565b9150614c2f82614bc8565b604082019050919050565b60006020820190508181036000830152614c5381614c17565b9050919050565b7f4f776e61626c653a2063616c6c6572206973206e6f7420746865206f776e6572600082015250565b6000614c90602083613e3d565b9150614c9b82614c5a565b602082019050919050565b60006020820190508181036000830152614cbf81614c83565b9050919050565b7f42616c616e6365206973207a65726f0000000000000000000000000000000000600082015250565b6000614cfc600f83613e3d565b9150614d0782614cc6565b602082019050919050565b60006020820190508181036000830152614d2b81614cef565b9050919050565b6000614d3d82613e32565b614d4781856147bf565b9350614d57818560208601613e4e565b80840191505092915050565b6000614d6e82614aa1565b9150614d7a8288614840565b9150614d8582614aed565b9150614d918287614d32565b9150614d9c82614b39565b9150614da88286614840565b9150614db48285614840565b9150614dc08284614840565b91508190509695505050505050565b7f455243373231456e756d657261626c653a20676c6f62616c20696e646578206f60008201527f7574206f6620626f756e64730000000000000000000000000000000000000000602082015250565b6000614e2b602c83613e3d565b9150614e3682614dcf565b604082019050919050565b60006020820190508181036000830152614e5a81614e1e565b9050919050565b7f4552433732313a206f776e657220717565727920666f72206e6f6e657869737460008201527f656e7420746f6b656e0000000000000000000000000000000000000000000000602082015250565b6000614ebd602983613e3d565b9150614ec882614e61565b604082019050919050565b60006020820190508181036000830152614eec81614eb0565b9050919050565b7f4552433732313a2062616c616e636520717565727920666f7220746865207a6560008201527f726f206164647265737300000000000000000000000000000000000000000000602082015250565b6000614f4f602a83613e3d565b9150614f5a82614ef3565b604082019050919050565b60006020820190508181036000830152614f7e81614f42565b9050919050565b7f2e706e6700000000000000000000000000000000000000000000000000000000600082015250565b6000614fbb6004836147bf565b9150614fc682614f85565b600482019050919050565b6000614fdd8285614d32565b9150614fe98284614840565b9150614ff482614fae565b91508190509392505050565b7f54686520746f6b656e7320617265206e6f74207468652073616d6520636f6c6f60008201527f7200000000000000000000000000000000000000000000000000000000000000602082015250565b600061505c602183613e3d565b915061506782615000565b604082019050919050565b6000602082019050818103600083015261508b8161504f565b9050919050565b7f74686973204e465420686173206e6f206d6f7265206272656564696e67206f7060008201527f706f7274756e6974696573000000000000000000000000000000000000000000602082015250565b60006150ee602b83613e3d565b91506150f982615092565b604082019050919050565b6000602082019050818103600083015261511d816150e1565b9050919050565b7f4f776e61626c653a206e6577206f776e657220697320746865207a65726f206160008201527f6464726573730000000000000000000000000000000000000000000000000000602082015250565b6000615180602683613e3d565b915061518b82615124565b604082019050919050565b600060208201905081810360008301526151af81615173565b9050919050565b7f746865204e465420697320616c726561647920636c61696d6564000000000000600082015250565b60006151ec601a83613e3d565b91506151f7826151b6565b602082019050919050565b6000602082019050818103600083015261521b816151df565b9050919050565b7f4552433732313a206f70657261746f7220717565727920666f72206e6f6e657860008201527f697374656e7420746f6b656e0000000000000000000000000000000000000000602082015250565b600061527e602c83613e3d565b915061528982615222565b604082019050919050565b600060208201905081810360008301526152ad81615271565b9050919050565b7f4552433732313a207472616e736665722066726f6d20696e636f72726563742060008201527f6f776e6572000000000000000000000000000000000000000000000000000000602082015250565b6000615310602583613e3d565b915061531b826152b4565b604082019050919050565b6000602082019050818103600083015261533f81615303565b9050919050565b7f4552433732313a207472616e7366657220746f20746865207a65726f2061646460008201527f7265737300000000000000000000000000000000000000000000000000000000602082015250565b60006153a2602483613e3d565b91506153ad82615346565b604082019050919050565b600060208201905081810360008301526153d181615395565b9050919050565b6000819050919050565b6153f36153ee82613eed565b6153d8565b82525050565b60008160601b9050919050565b6000615411826153f9565b9050919050565b600061542382615406565b9050919050565b61543b61543682613f70565b615418565b82525050565b600061544d82866153e2565b60208201915061545d82856153e2565b60208201915061546d828461542a565b601482019150819050949350505050565b600061548982613eed565b915061549483613eed565b9250826154a4576154a361498a565b5b828206905092915050565b7f4552433732313a20617070726f766520746f2063616c6c657200000000000000600082015250565b60006154e5601983613e3d565b91506154f0826154af565b602082019050919050565b60006020820190508181036000830152615514816154d8565b9050919050565b7f4552433732313a207472616e7366657220746f206e6f6e20455243373231526560008201527f63656976657220696d706c656d656e7465720000000000000000000000000000602082015250565b6000615577603283613e3d565b91506155828261551b565b604082019050919050565b600060208201905081810360008301526155a68161556a565b9050919050565b600081519050919050565b600082825260208201905092915050565b60006155d4826155ad565b6155de81856155b8565b93506155ee818560208601613e4e565b6155f781613e81565b840191505092915050565b60006080820190506156176000830187613f82565b6156246020830186613f82565b6156316040830185614018565b818103606083015261564381846155c9565b905095945050505050565b60008151905061565d81613da3565b92915050565b60006020828403121561567957615678613d6d565b5b60006156878482850161564e565b91505092915050565b7f4552433732313a206d696e7420746f20746865207a65726f2061646472657373600082015250565b60006156c6602083613e3d565b91506156d182615690565b602082019050919050565b600060208201905081810360008301526156f5816156b9565b9050919050565b7f4552433732313a20746f6b656e20616c7265616479206d696e74656400000000600082015250565b6000615732601c83613e3d565b915061573d826156fc565b602082019050919050565b6000602082019050818103600083015261576181615725565b9050919050565b7f4e487b7100000000000000000000000000000000000000000000000000000000600052603160045260246000fdfea26469706673582212205a5871a218649e10df8747557fce8a57dba42aef1c3ec7f462ec3c211c1f891a64736f6c634300080b0033",
  "immutableReferences": {},
  "source": "// SPDX-License-Identifier: MIT\r\npragma solidity ^0.8.4;\r\n\r\nimport \"@openzeppelin/contracts/token/ERC721/ERC721.sol\";\r\nimport \"@openzeppelin/contracts/access/Ownable.sol\";\r\nimport \"@openzeppelin/contracts/utils/Counters.sol\";\r\nimport \"@openzeppelin/contracts/token/ERC721/extensions/ERC721URIStorage.sol\";\r\nimport \"@openzeppelin/contracts/token/ERC721/extensions/ERC721Enumerable.sol\";\r\n\r\ncontract NFT is ERC721, Ownable, ERC721URIStorage, ERC721Enumerable {\r\n    using Counters for Counters.Counter;\r\n\r\n    Counters.Counter private _tokenIdCounter;\r\n\r\n    uint256 TX_PRICE = 0.2 ether;\r\n    string[4] colors = [\"azul\", \"verde\", \"rosa\", \"marron\"];\r\n    string[10] numbers = [\"0\", \"1\", \"2\", \"3\", \"4\", \"5\", \"6\", \"7\", \"8\", \"9\"];\r\n    string[6] backgroundStrings = [\"1\", \"2\", \"3\", \"4\", \"5\", \"6\"];\r\n\r\n    struct token {\r\n        string name;\r\n        uint256 breeding;\r\n        string color;\r\n        uint256 number;\r\n        uint256 purity;\r\n        uint256 background;\r\n        uint256 timeToClaim;\r\n    }\r\n\r\n    mapping(address => uint256) winningAddresses;\r\n    uint256 winners = 0;\r\n\r\n    mapping(uint256 => token) tokenInfo;\r\n    mapping(uint256 => uint256) tokenMinPurity;\r\n    uint256 actualTokenNumber = 0;\r\n\r\n    constructor() ERC721(\"MyToken\", \"MTK\") {}\r\n\r\n    function random(uint256 _numberMin, uint256 _numberMax)\r\n        internal\r\n        view\r\n        returns (uint256)\r\n    {\r\n        uint256 rodom = (uint256(\r\n            keccak256(\r\n                abi.encodePacked(block.timestamp, block.difficulty, msg.sender)\r\n            )\r\n        ) % (_numberMax - _numberMin));\r\n        return rodom + _numberMin;\r\n    }\r\n\r\n    function safeMint(address to) public payable {\r\n        require(msg.value >= TX_PRICE, \"Not enough ether sent.\");\r\n        uint256 tokenId = _tokenIdCounter.current();\r\n        uint256 purity = random(1, 10);\r\n        uint256 background = random(0, 6);\r\n        string memory color = colors[random(0, 4)];\r\n        string memory name = string(\r\n            abi.encodePacked(\r\n                \"f\",\r\n                backgroundStrings[background],\r\n                \"per\",\r\n                color,\r\n                \"pur\",\r\n                numbers[purity / 100],\r\n                numbers[purity / 10],\r\n                numbers[purity - ((uint256(purity / 10)) * 10)]\r\n            )\r\n        );\r\n        tokenInfo[tokenId].name = name;\r\n        tokenInfo[tokenId].breeding = 4;\r\n        tokenInfo[tokenId].purity = purity;\r\n        tokenInfo[tokenId].color = color;\r\n        tokenInfo[tokenId].background = background;\r\n        actualTokenNumber = actualTokenNumber + 1;\r\n        tokenInfo[tokenId].number = actualTokenNumber;\r\n        _tokenIdCounter.increment();\r\n        _safeMint(to, tokenId);\r\n    }\r\n\r\n    function breed(uint256 _idToken1, uint256 _idToken2) public payable {\r\n        require(msg.value >= TX_PRICE, \"Not enough ether sent.\");\r\n        require(_idToken1 != _idToken2, \"NFTs are the same\");\r\n        require(ownerOf(_idToken1) == msg.sender, \"The token is not yours\");\r\n        require(ownerOf(_idToken2) == msg.sender, \"The token is not yours\");\r\n        require(\r\n            (keccak256(abi.encodePacked(tokenInfo[_idToken1].color))) ==\r\n                (keccak256(abi.encodePacked(tokenInfo[_idToken2].color))),\r\n            \"The tokens are not the same color\"\r\n        );\r\n        require(\r\n            tokenInfo[_idToken1].breeding > 0,\r\n            \"this NFT has no more breeding opportunities\"\r\n        );\r\n        require(\r\n            tokenInfo[_idToken2].breeding > 0,\r\n            \"this NFT has no more breeding opportunities\"\r\n        );\r\n        require(\r\n            (keccak256(abi.encodePacked(tokenInfo[_idToken1].name))) !=\r\n                (keccak256(abi.encodePacked(\"InProcess\"))),\r\n            \"NFT is not ready\"\r\n        );\r\n        require(\r\n            (keccak256(abi.encodePacked(tokenInfo[_idToken2].name))) !=\r\n                (keccak256(abi.encodePacked(\"InProcess\"))),\r\n            \"NFT is not ready\"\r\n        );\r\n        tokenInfo[_idToken1].breeding = tokenInfo[_idToken1].breeding - 1;\r\n        tokenInfo[_idToken2].breeding = tokenInfo[_idToken2].breeding - 1;\r\n        internalSafeMint(\r\n            msg.sender,\r\n            tokenInfo[_idToken1].purity,\r\n            tokenInfo[_idToken2].purity\r\n        );\r\n    }\r\n\r\n    function internalSafeMint(\r\n        address to,\r\n        uint256 purityToken1,\r\n        uint256 purityToken2\r\n    ) internal {\r\n        uint256 randomMin = (purityToken1 + purityToken2) / 2;\r\n        uint256 purity = random(randomMin, randomMin + 10);\r\n        uint256 tokenId = _tokenIdCounter.current();\r\n        uint256 timeToClaim = block.timestamp + 12 hours;\r\n        string memory name = \"InProcess\";\r\n        uint256 background = random(0, 6);\r\n        string memory color;\r\n        if (purity >= 100) {\r\n            purity = 100;\r\n            color = \"dorado\";\r\n            tokenInfo[tokenId].breeding = 0;\r\n        } else {\r\n            color = colors[random(0, 4)];\r\n            tokenInfo[tokenId].breeding = 4;\r\n        }\r\n        tokenMinPurity[tokenId] = randomMin;\r\n        tokenInfo[tokenId].timeToClaim = timeToClaim;\r\n        tokenInfo[tokenId].name = name;\r\n        tokenInfo[tokenId].purity = purity;\r\n        tokenInfo[tokenId].color = color;\r\n        tokenInfo[tokenId].background = background;\r\n        actualTokenNumber = actualTokenNumber + 1;\r\n        tokenInfo[tokenId].number = actualTokenNumber;\r\n        _tokenIdCounter.increment();\r\n        _safeMint(to, tokenId);\r\n    }\r\n\r\n    function claimNFT(uint256 _tokenId) public payable {\r\n        require(msg.value >= TX_PRICE, \"Not enough ether sent.\");\r\n        require(\r\n            (keccak256(abi.encodePacked(tokenInfo[_tokenId].name))) ==\r\n                (keccak256(abi.encodePacked(\"InProcess\"))),\r\n            \"the NFT is already claimed\"\r\n        );\r\n        if (tokenInfo[_tokenId].purity == 100) {\r\n            tokenInfo[_tokenId].name = \"pur100\";\r\n            if (winningAddresses[msg.sender] == 0) {\r\n                winners = winners + 1;\r\n                winningAddresses[msg.sender] = winners;\r\n            }\r\n        } else {\r\n            tokenInfo[_tokenId].name = string(\r\n                abi.encodePacked(\r\n                    \"f\",\r\n                    backgroundStrings[tokenInfo[_tokenId].background],\r\n                    \"per\",\r\n                    tokenInfo[_tokenId].color,\r\n                    \"pur\",\r\n                    numbers[tokenInfo[_tokenId].purity / 100],\r\n                    numbers[tokenInfo[_tokenId].purity / 10],\r\n                    numbers[\r\n                        tokenInfo[_tokenId].purity -\r\n                            ((uint256(tokenInfo[_tokenId].purity / 10)) * 10)\r\n                    ]\r\n                )\r\n            );\r\n        }\r\n    }\r\n\r\n    function craft(uint256 _idToken1, uint256 _idToken2) public payable {\r\n        require(msg.value >= TX_PRICE, \"Not enough ether sent.\");\r\n        require(_idToken1 != _idToken2, \"NFTs are the same\");\r\n        require(ownerOf(_idToken1) == msg.sender, \"The token is not yours\");\r\n        require(ownerOf(_idToken2) == msg.sender, \"The token is not yours\");\r\n        require(\r\n            (keccak256(abi.encodePacked(tokenInfo[_idToken1].name))) !=\r\n                (keccak256(abi.encodePacked(\"InProcess\"))),\r\n            \"NFT is not ready\"\r\n        );\r\n        require(\r\n            (keccak256(abi.encodePacked(tokenInfo[_idToken2].name))) !=\r\n                (keccak256(abi.encodePacked(\"InProcess\"))),\r\n            \"NFT is not ready\"\r\n        );\r\n\r\n        uint256 numberOfBreeds = tokenInfo[_idToken1].breeding +\r\n            tokenInfo[_idToken2].breeding;\r\n\r\n        if (numberOfBreeds >= 4) {\r\n            tokenInfo[_idToken1].breeding = 4;\r\n        } else {\r\n            tokenInfo[_idToken1].breeding = numberOfBreeds;\r\n        }\r\n\r\n        tokenInfo[_idToken1].color = tokenInfo[_idToken2].color;\r\n\r\n        if (tokenInfo[_idToken1].purity > tokenInfo[_idToken2].purity) {\r\n            tokenInfo[_idToken1].purity = random(\r\n                tokenInfo[_idToken2].purity,\r\n                tokenInfo[_idToken1].purity\r\n            );\r\n        } else if (tokenInfo[_idToken1].purity < tokenInfo[_idToken2].purity) {\r\n            tokenInfo[_idToken1].purity = random(\r\n                tokenInfo[_idToken1].purity,\r\n                tokenInfo[_idToken2].purity\r\n            );\r\n        }\r\n\r\n        string memory name = string(\r\n            abi.encodePacked(\r\n                \"f\",\r\n                backgroundStrings[tokenInfo[_idToken1].background],\r\n                \"per\",\r\n                tokenInfo[_idToken1].color,\r\n                \"pur\",\r\n                numbers[tokenInfo[_idToken1].purity / 100],\r\n                numbers[tokenInfo[_idToken1].purity / 10],\r\n                numbers[\r\n                    tokenInfo[_idToken1].purity -\r\n                        ((uint256(tokenInfo[_idToken1].purity / 10)) * 10)\r\n                ]\r\n            )\r\n        );\r\n        tokenInfo[_idToken1].name = name;\r\n        _burn(_idToken2);\r\n    }\r\n\r\n    //NFT base\r\n\r\n    function _baseURI() internal pure override returns (string memory) {\r\n        return \"./NFTs/\";\r\n    }\r\n\r\n    function _burn(uint256 tokenId)\r\n        internal\r\n        override(ERC721, ERC721URIStorage)\r\n    {\r\n        super._burn(tokenId);\r\n    }\r\n\r\n    function withdraw() public onlyOwner {\r\n        require(address(this).balance > 0, \"Balance is zero\");\r\n        payable(owner()).transfer(address(this).balance);\r\n    }\r\n\r\n    function tokenURI(uint256 tokenId)\r\n        public\r\n        view\r\n        virtual\r\n        override(ERC721, ERC721URIStorage)\r\n        returns (string memory)\r\n    {\r\n        string memory baseURI = _baseURI();\r\n        return\r\n            string(abi.encodePacked(baseURI, tokenInfo[tokenId].name, \".png\"));\r\n    }\r\n\r\n    function _beforeTokenTransfer(\r\n        address from,\r\n        address to,\r\n        uint256 tokenId\r\n    ) internal override(ERC721, ERC721Enumerable) {\r\n        super._beforeTokenTransfer(from, to, tokenId);\r\n    }\r\n\r\n    function supportsInterface(bytes4 interfaceId)\r\n        public\r\n        view\r\n        override(ERC721, ERC721Enumerable)\r\n        returns (bool)\r\n    {\r\n        return super.supportsInterface(interfaceId);\r\n    }\r\n\r\n    //Getters\r\n    function getWinnersPosition() public view returns (uint256) {\r\n        return winningAddresses[msg.sender];\r\n    }\r\n\r\n    function getTokenTimeToClaim(uint256 _tokenId)\r\n        public\r\n        view\r\n        returns (uint256)\r\n    {\r\n        return tokenInfo[_tokenId].timeToClaim;\r\n    }\r\n\r\n    function getTokenName(uint256 _tokenId)\r\n        public\r\n        view\r\n        returns (string memory)\r\n    {\r\n        return tokenInfo[_tokenId].name;\r\n    }\r\n\r\n    function getMinPurity(uint256 _tokenId) public view returns (uint256) {\r\n        return tokenMinPurity[_tokenId];\r\n    }\r\n\r\n    function getTokenBreeding(uint256 _tokenId) public view returns (uint256) {\r\n        return tokenInfo[_tokenId].breeding;\r\n    }\r\n\r\n    function getTokenBackground(uint256 _tokenId)\r\n        public\r\n        view\r\n        returns (uint256)\r\n    {\r\n        require(\r\n            tokenInfo[_tokenId].timeToClaim < block.timestamp,\r\n            \"NFT is not ready\"\r\n        );\r\n        return tokenInfo[_tokenId].background;\r\n    }\r\n\r\n    function getTokenColor(uint256 _tokenId)\r\n        public\r\n        view\r\n        returns (string memory)\r\n    {\r\n        /*require(\r\n            tokenInfo[_tokenId].timeToClaim < block.timestamp,\r\n            \"NFT is not ready\"\r\n        );*/\r\n        return tokenInfo[_tokenId].color;\r\n    }\r\n\r\n    function getTokenNumber(uint256 _tokenId) public view returns (uint256) {\r\n        /*provisional\r\n        require(\r\n            tokenInfo[_tokenId].timeToClaim < block.timestamp,\r\n            \"NFT is not ready\"\r\n        );*/\r\n        return tokenInfo[_tokenId].number;\r\n    }\r\n\r\n    function getTokenPurity(uint256 _tokenId) public view returns (uint256) {\r\n        /*require(\r\n            tokenInfo[_tokenId].timeToClaim < block.timestamp,\r\n            \"NFT is not ready\"\r\n        );*/\r\n        return tokenInfo[_tokenId].purity;\r\n    }\r\n}\r\n",
  "sourcePath": "D:\\ProyectoGenesis\\genesis\\contracts\\NFT.sol",
  "compiler": {
    "name": "solc",
    "version": "0.8.11+commit.d7f03943.Emscripten.clang"
  },
  "schemaVersion": "3.4.4",
  "updatedAt": "2022-06-16T21:28:11.253Z",
  "networkType": "ethereum",
  "devdoc": {
    "kind": "dev",
    "methods": {
      "approve(address,uint256)": {
        "details": "See {IERC721-approve}."
      },
      "balanceOf(address)": {
        "details": "See {IERC721-balanceOf}."
      },
      "getApproved(uint256)": {
        "details": "See {IERC721-getApproved}."
      },
      "isApprovedForAll(address,address)": {
        "details": "See {IERC721-isApprovedForAll}."
      },
      "name()": {
        "details": "See {IERC721Metadata-name}."
      },
      "owner()": {
        "details": "Returns the address of the current owner."
      },
      "ownerOf(uint256)": {
        "details": "See {IERC721-ownerOf}."
      },
      "renounceOwnership()": {
        "details": "Leaves the contract without owner. It will not be possible to call `onlyOwner` functions anymore. Can only be called by the current owner. NOTE: Renouncing ownership will leave the contract without an owner, thereby removing any functionality that is only available to the owner."
      },
      "safeTransferFrom(address,address,uint256)": {
        "details": "See {IERC721-safeTransferFrom}."
      },
      "safeTransferFrom(address,address,uint256,bytes)": {
        "details": "See {IERC721-safeTransferFrom}."
      },
      "setApprovalForAll(address,bool)": {
        "details": "See {IERC721-setApprovalForAll}."
      },
      "symbol()": {
        "details": "See {IERC721Metadata-symbol}."
      },
      "tokenByIndex(uint256)": {
        "details": "See {IERC721Enumerable-tokenByIndex}."
      },
      "tokenOfOwnerByIndex(address,uint256)": {
        "details": "See {IERC721Enumerable-tokenOfOwnerByIndex}."
      },
      "totalSupply()": {
        "details": "See {IERC721Enumerable-totalSupply}."
      },
      "transferFrom(address,address,uint256)": {
        "details": "See {IERC721-transferFrom}."
      },
      "transferOwnership(address)": {
        "details": "Transfers ownership of the contract to a new account (`newOwner`). Can only be called by the current owner."
      }
    },
    "version": 1
  },
  "userdoc": {
    "kind": "user",
    "methods": {},
    "version": 1
  }
}