{
  "contractName": "NFT",
  "abi": [
    {
      "inputs": [],
      "stateMutability": "nonpayable",
      "type": "constructor"
    },
    {
      "anonymous": false,
      "inputs": [
        {
          "indexed": true,
          "internalType": "address",
          "name": "owner",
          "type": "address"
        },
        {
          "indexed": true,
          "internalType": "address",
          "name": "approved",
          "type": "address"
        },
        {
          "indexed": true,
          "internalType": "uint256",
          "name": "tokenId",
          "type": "uint256"
        }
      ],
      "name": "Approval",
      "type": "event"
    },
    {
      "anonymous": false,
      "inputs": [
        {
          "indexed": true,
          "internalType": "address",
          "name": "owner",
          "type": "address"
        },
        {
          "indexed": true,
          "internalType": "address",
          "name": "operator",
          "type": "address"
        },
        {
          "indexed": false,
          "internalType": "bool",
          "name": "approved",
          "type": "bool"
        }
      ],
      "name": "ApprovalForAll",
      "type": "event"
    },
    {
      "anonymous": false,
      "inputs": [
        {
          "indexed": true,
          "internalType": "address",
          "name": "previousOwner",
          "type": "address"
        },
        {
          "indexed": true,
          "internalType": "address",
          "name": "newOwner",
          "type": "address"
        }
      ],
      "name": "OwnershipTransferred",
      "type": "event"
    },
    {
      "anonymous": false,
      "inputs": [
        {
          "indexed": true,
          "internalType": "address",
          "name": "from",
          "type": "address"
        },
        {
          "indexed": true,
          "internalType": "address",
          "name": "to",
          "type": "address"
        },
        {
          "indexed": true,
          "internalType": "uint256",
          "name": "tokenId",
          "type": "uint256"
        }
      ],
      "name": "Transfer",
      "type": "event"
    },
    {
      "inputs": [
        {
          "internalType": "address",
          "name": "to",
          "type": "address"
        },
        {
          "internalType": "uint256",
          "name": "tokenId",
          "type": "uint256"
        }
      ],
      "name": "approve",
      "outputs": [],
      "stateMutability": "nonpayable",
      "type": "function"
    },
    {
      "inputs": [
        {
          "internalType": "address",
          "name": "owner",
          "type": "address"
        }
      ],
      "name": "balanceOf",
      "outputs": [
        {
          "internalType": "uint256",
          "name": "",
          "type": "uint256"
        }
      ],
      "stateMutability": "view",
      "type": "function",
      "constant": true
    },
    {
      "inputs": [
        {
          "internalType": "uint256",
          "name": "tokenId",
          "type": "uint256"
        }
      ],
      "name": "getApproved",
      "outputs": [
        {
          "internalType": "address",
          "name": "",
          "type": "address"
        }
      ],
      "stateMutability": "view",
      "type": "function",
      "constant": true
    },
    {
      "inputs": [
        {
          "internalType": "address",
          "name": "owner",
          "type": "address"
        },
        {
          "internalType": "address",
          "name": "operator",
          "type": "address"
        }
      ],
      "name": "isApprovedForAll",
      "outputs": [
        {
          "internalType": "bool",
          "name": "",
          "type": "bool"
        }
      ],
      "stateMutability": "view",
      "type": "function",
      "constant": true
    },
    {
      "inputs": [],
      "name": "name",
      "outputs": [
        {
          "internalType": "string",
          "name": "",
          "type": "string"
        }
      ],
      "stateMutability": "view",
      "type": "function",
      "constant": true
    },
    {
      "inputs": [],
      "name": "owner",
      "outputs": [
        {
          "internalType": "address",
          "name": "",
          "type": "address"
        }
      ],
      "stateMutability": "view",
      "type": "function",
      "constant": true
    },
    {
      "inputs": [
        {
          "internalType": "uint256",
          "name": "tokenId",
          "type": "uint256"
        }
      ],
      "name": "ownerOf",
      "outputs": [
        {
          "internalType": "address",
          "name": "",
          "type": "address"
        }
      ],
      "stateMutability": "view",
      "type": "function",
      "constant": true
    },
    {
      "inputs": [],
      "name": "renounceOwnership",
      "outputs": [],
      "stateMutability": "nonpayable",
      "type": "function"
    },
    {
      "inputs": [
        {
          "internalType": "address",
          "name": "from",
          "type": "address"
        },
        {
          "internalType": "address",
          "name": "to",
          "type": "address"
        },
        {
          "internalType": "uint256",
          "name": "tokenId",
          "type": "uint256"
        }
      ],
      "name": "safeTransferFrom",
      "outputs": [],
      "stateMutability": "nonpayable",
      "type": "function"
    },
    {
      "inputs": [
        {
          "internalType": "address",
          "name": "from",
          "type": "address"
        },
        {
          "internalType": "address",
          "name": "to",
          "type": "address"
        },
        {
          "internalType": "uint256",
          "name": "tokenId",
          "type": "uint256"
        },
        {
          "internalType": "bytes",
          "name": "_data",
          "type": "bytes"
        }
      ],
      "name": "safeTransferFrom",
      "outputs": [],
      "stateMutability": "nonpayable",
      "type": "function"
    },
    {
      "inputs": [
        {
          "internalType": "address",
          "name": "operator",
          "type": "address"
        },
        {
          "internalType": "bool",
          "name": "approved",
          "type": "bool"
        }
      ],
      "name": "setApprovalForAll",
      "outputs": [],
      "stateMutability": "nonpayable",
      "type": "function"
    },
    {
      "inputs": [],
      "name": "symbol",
      "outputs": [
        {
          "internalType": "string",
          "name": "",
          "type": "string"
        }
      ],
      "stateMutability": "view",
      "type": "function",
      "constant": true
    },
    {
      "inputs": [
        {
          "internalType": "uint256",
          "name": "index",
          "type": "uint256"
        }
      ],
      "name": "tokenByIndex",
      "outputs": [
        {
          "internalType": "uint256",
          "name": "",
          "type": "uint256"
        }
      ],
      "stateMutability": "view",
      "type": "function",
      "constant": true
    },
    {
      "inputs": [
        {
          "internalType": "address",
          "name": "owner",
          "type": "address"
        },
        {
          "internalType": "uint256",
          "name": "index",
          "type": "uint256"
        }
      ],
      "name": "tokenOfOwnerByIndex",
      "outputs": [
        {
          "internalType": "uint256",
          "name": "",
          "type": "uint256"
        }
      ],
      "stateMutability": "view",
      "type": "function",
      "constant": true
    },
    {
      "inputs": [],
      "name": "totalSupply",
      "outputs": [
        {
          "internalType": "uint256",
          "name": "",
          "type": "uint256"
        }
      ],
      "stateMutability": "view",
      "type": "function",
      "constant": true
    },
    {
      "inputs": [
        {
          "internalType": "address",
          "name": "from",
          "type": "address"
        },
        {
          "internalType": "address",
          "name": "to",
          "type": "address"
        },
        {
          "internalType": "uint256",
          "name": "tokenId",
          "type": "uint256"
        }
      ],
      "name": "transferFrom",
      "outputs": [],
      "stateMutability": "nonpayable",
      "type": "function"
    },
    {
      "inputs": [
        {
          "internalType": "address",
          "name": "newOwner",
          "type": "address"
        }
      ],
      "name": "transferOwnership",
      "outputs": [],
      "stateMutability": "nonpayable",
      "type": "function"
    },
    {
      "inputs": [
        {
          "internalType": "uint256",
          "name": "_idToken1",
          "type": "uint256"
        },
        {
          "internalType": "uint256",
          "name": "_idToken2",
          "type": "uint256"
        }
      ],
      "name": "breed",
      "outputs": [],
      "stateMutability": "nonpayable",
      "type": "function"
    },
    {
      "inputs": [
        {
          "internalType": "uint256",
          "name": "_tokenId",
          "type": "uint256"
        }
      ],
      "name": "claimNFT",
      "outputs": [],
      "stateMutability": "nonpayable",
      "type": "function"
    },
    {
      "inputs": [
        {
          "internalType": "uint256",
          "name": "_tokenId",
          "type": "uint256"
        }
      ],
      "name": "getTokenName",
      "outputs": [
        {
          "internalType": "string",
          "name": "",
          "type": "string"
        }
      ],
      "stateMutability": "view",
      "type": "function",
      "constant": true
    },
    {
      "inputs": [
        {
          "internalType": "uint256",
          "name": "_tokenId",
          "type": "uint256"
        }
      ],
      "name": "getMinPurity",
      "outputs": [
        {
          "internalType": "uint256",
          "name": "",
          "type": "uint256"
        }
      ],
      "stateMutability": "view",
      "type": "function",
      "constant": true
    },
    {
      "inputs": [
        {
          "internalType": "uint256",
          "name": "_tokenId",
          "type": "uint256"
        }
      ],
      "name": "getTokenBackground",
      "outputs": [
        {
          "internalType": "uint256",
          "name": "",
          "type": "uint256"
        }
      ],
      "stateMutability": "view",
      "type": "function",
      "constant": true
    },
    {
      "inputs": [
        {
          "internalType": "uint256",
          "name": "_tokenId",
          "type": "uint256"
        }
      ],
      "name": "getTokenBreeding",
      "outputs": [
        {
          "internalType": "uint256",
          "name": "",
          "type": "uint256"
        }
      ],
      "stateMutability": "view",
      "type": "function",
      "constant": true
    },
    {
      "inputs": [
        {
          "internalType": "uint256",
          "name": "_tokenId",
          "type": "uint256"
        }
      ],
      "name": "getTokenColor",
      "outputs": [
        {
          "internalType": "string",
          "name": "",
          "type": "string"
        }
      ],
      "stateMutability": "view",
      "type": "function",
      "constant": true
    },
    {
      "inputs": [
        {
          "internalType": "uint256",
          "name": "_tokenId",
          "type": "uint256"
        }
      ],
      "name": "getTokenNumber",
      "outputs": [
        {
          "internalType": "uint256",
          "name": "",
          "type": "uint256"
        }
      ],
      "stateMutability": "view",
      "type": "function",
      "constant": true
    },
    {
      "inputs": [
        {
          "internalType": "uint256",
          "name": "_tokenId",
          "type": "uint256"
        }
      ],
      "name": "getTokenPurity",
      "outputs": [
        {
          "internalType": "uint256",
          "name": "",
          "type": "uint256"
        }
      ],
      "stateMutability": "view",
      "type": "function",
      "constant": true
    },
    {
      "inputs": [
        {
          "internalType": "uint256",
          "name": "_tokenId",
          "type": "uint256"
        }
      ],
      "name": "getTokenTimeToClaim",
      "outputs": [
        {
          "internalType": "uint256",
          "name": "",
          "type": "uint256"
        }
      ],
      "stateMutability": "view",
      "type": "function",
      "constant": true
    },
    {
      "inputs": [],
      "name": "withdraw",
      "outputs": [],
      "stateMutability": "nonpayable",
      "type": "function"
    },
    {
      "inputs": [
        {
          "internalType": "address",
          "name": "to",
          "type": "address"
        }
      ],
      "name": "safeMint",
      "outputs": [],
      "stateMutability": "nonpayable",
      "type": "function"
    },
    {
      "inputs": [
        {
          "internalType": "uint256[]",
          "name": "_ids",
          "type": "uint256[]"
        }
      ],
      "name": "multipleburn",
      "outputs": [],
      "stateMutability": "nonpayable",
      "type": "function"
    },
    {
      "inputs": [
        {
          "internalType": "uint256",
          "name": "_id",
          "type": "uint256"
        }
      ],
      "name": "simpleburn",
      "outputs": [],
      "stateMutability": "nonpayable",
      "type": "function"
    },
    {
      "inputs": [
        {
          "internalType": "uint256",
          "name": "tokenId",
          "type": "uint256"
        }
      ],
      "name": "tokenURI",
      "outputs": [
        {
          "internalType": "string",
          "name": "",
          "type": "string"
        }
      ],
      "stateMutability": "view",
      "type": "function",
      "constant": true
    },
    {
      "inputs": [
        {
          "internalType": "bytes4",
          "name": "interfaceId",
          "type": "bytes4"
        }
      ],
      "name": "supportsInterface",
      "outputs": [
        {
          "internalType": "bool",
          "name": "",
          "type": "bool"
        }
      ],
      "stateMutability": "view",
      "type": "function",
      "constant": true
    }
  ],
  "bytecode": "0x6080604052678ac7230489e80000600d5560405180608001604052806040518060400160405280600481526020017f617a756c0000000000000000000000000000000000000000000000000000000081525081526020016040518060400160405280600581526020017f766572646500000000000000000000000000000000000000000000000000000081525081526020016040518060400160405280600481526020017f726f73610000000000000000000000000000000000000000000000000000000081525081526020016040518060400160405280600681526020017f6d6172726f6e0000000000000000000000000000000000000000000000000000815250815250600e90600462000117929190620006a8565b506040518061014001604052806040518060400160405280600181526020017f300000000000000000000000000000000000000000000000000000000000000081525081526020016040518060400160405280600181526020017f310000000000000000000000000000000000000000000000000000000000000081525081526020016040518060400160405280600181526020017f320000000000000000000000000000000000000000000000000000000000000081525081526020016040518060400160405280600181526020017f330000000000000000000000000000000000000000000000000000000000000081525081526020016040518060400160405280600181526020017f340000000000000000000000000000000000000000000000000000000000000081525081526020016040518060400160405280600181526020017f350000000000000000000000000000000000000000000000000000000000000081525081526020016040518060400160405280600181526020017f360000000000000000000000000000000000000000000000000000000000000081525081526020016040518060400160405280600181526020017f370000000000000000000000000000000000000000000000000000000000000081525081526020016040518060400160405280600181526020017f380000000000000000000000000000000000000000000000000000000000000081525081526020016040518060400160405280600181526020017f3900000000000000000000000000000000000000000000000000000000000000815250815250601290600a6200038292919062000702565b506040518060c001604052806040518060400160405280600181526020017f310000000000000000000000000000000000000000000000000000000000000081525081526020016040518060400160405280600181526020017f320000000000000000000000000000000000000000000000000000000000000081525081526020016040518060400160405280600181526020017f330000000000000000000000000000000000000000000000000000000000000081525081526020016040518060400160405280600181526020017f340000000000000000000000000000000000000000000000000000000000000081525081526020016040518060400160405280600181526020017f350000000000000000000000000000000000000000000000000000000000000081525081526020016040518060400160405280600181526020017f3600000000000000000000000000000000000000000000000000000000000000815250815250601d906006620005009291906200075c565b5060006025553480156200051357600080fd5b506040518060400160405280600781526020017f4d79546f6b656e000000000000000000000000000000000000000000000000008152506040518060400160405280600381526020017f4d544b0000000000000000000000000000000000000000000000000000000000815250816000908051906020019062000598929190620007b6565b508060019080519060200190620005b1929190620007b6565b505050620005d4620005c8620005da60201b60201c565b620005e260201b60201c565b62000939565b600033905090565b6000600660009054906101000a900473ffffffffffffffffffffffffffffffffffffffff16905081600660006101000a81548173ffffffffffffffffffffffffffffffffffffffff021916908373ffffffffffffffffffffffffffffffffffffffff1602179055508173ffffffffffffffffffffffffffffffffffffffff168173ffffffffffffffffffffffffffffffffffffffff167f8be0079c531659141344cd1fd0a4f28419497f9722a3daafe3b4186f6b6457e060405160405180910390a35050565b8260048101928215620006ef579160200282015b82811115620006ee578251829080519060200190620006dd929190620007b6565b5091602001919060010190620006bc565b5b509050620006fe919062000847565b5090565b82600b810192821562000749579160200282015b828111156200074857825182908051906020019062000737929190620007b6565b509160200191906001019062000716565b5b50905062000758919062000847565b5090565b8260068101928215620007a3579160200282015b82811115620007a257825182908051906020019062000791929190620007b6565b509160200191906001019062000770565b5b509050620007b2919062000847565b5090565b828054620007c49062000903565b90600052602060002090601f016020900481019282620007e8576000855562000834565b82601f106200080357805160ff191683800117855562000834565b8280016001018555821562000834579182015b828111156200083357825182559160200191906001019062000816565b5b5090506200084391906200086f565b5090565b5b808211156200086b57600081816200086191906200088e565b5060010162000848565b5090565b5b808211156200088a57600081600090555060010162000870565b5090565b5080546200089c9062000903565b6000825580601f10620008b05750620008d1565b601f016020900490600052602060002090810190620008d091906200086f565b5b50565b7f4e487b7100000000000000000000000000000000000000000000000000000000600052602260045260246000fd5b600060028204905060018216806200091c57607f821691505b60208210811415620009335762000932620008d4565b5b50919050565b614e8080620009496000396000f3fe608060405234801561001057600080fd5b50600436106101fb5760003560e01c80638cfe96651161011a578063c97e3bef116100ad578063e6c08dc81161007c578063e6c08dc8146105f8578063e8952fad14610628578063e985e9c514610658578063f2fde38b14610688578063fe5c873a146106a4576101fb565b8063c97e3bef14610560578063d52f09041461057c578063d9ecad7b146105ac578063dbe16c07146105c8576101fb565b8063a22cb465116100e9578063a22cb465146104dc578063a59f7e2c146104f8578063b88d4fde14610514578063c87b56dd14610530576101fb565b80638cfe9665146104405780638da5cb5b14610470578063934f30d31461048e57806395d89b41146104be576101fb565b806332c70db7116101925780634f6ccce7116101615780634f6ccce7146103a65780636352211e146103d657806370a0823114610406578063715018a614610436576101fb565b806332c70db7146103345780633ccfd60b1461036457806340d097c31461036e57806342842e0e1461038a576101fb565b806318160ddd116101ce57806318160ddd1461029a578063191e2724146102b857806323b872dd146102e85780632f745c5914610304576101fb565b806301ffc9a71461020057806306fdde0314610230578063081812fc1461024e578063095ea7b31461027e575b600080fd5b61021a60048036038101906102159190613400565b6106c0565b6040516102279190613448565b60405180910390f35b6102386106d2565b60405161024591906134fc565b60405180910390f35b61026860048036038101906102639190613554565b610764565b60405161027591906135c2565b60405180910390f35b61029860048036038101906102939190613609565b6107e9565b005b6102a2610901565b6040516102af9190613658565b60405180910390f35b6102d260048036038101906102cd9190613554565b61090e565b6040516102df9190613658565b60405180910390f35b61030260048036038101906102fd9190613673565b610986565b005b61031e60048036038101906103199190613609565b6109e6565b60405161032b9190613658565b60405180910390f35b61034e60048036038101906103499190613554565b610a8b565b60405161035b9190613658565b60405180910390f35b61036c610aa8565b005b610388600480360381019061038391906136c6565b610bb7565b005b6103a4600480360381019061039f9190613673565b610e3e565b005b6103c060048036038101906103bb9190613554565b610e5e565b6040516103cd9190613658565b60405180910390f35b6103f060048036038101906103eb9190613554565b610ecf565b6040516103fd91906135c2565b60405180910390f35b610420600480360381019061041b91906136c6565b610f81565b60405161042d9190613658565b60405180910390f35b61043e611039565b005b61045a60048036038101906104559190613554565b6110c1565b60405161046791906134fc565b60405180910390f35b6104786111c1565b60405161048591906135c2565b60405180910390f35b6104a860048036038101906104a39190613554565b6111eb565b6040516104b59190613658565b60405180910390f35b6104c661120b565b6040516104d391906134fc565b60405180910390f35b6104f660048036038101906104f1919061371f565b61129d565b005b610512600480360381019061050d91906138a7565b6112b3565b005b61052e600480360381019061052991906139a5565b611305565b005b61054a60048036038101906105459190613554565b611367565b60405161055791906134fc565b60405180910390f35b61057a60048036038101906105759190613554565b6113b4565b005b61059660048036038101906105919190613554565b6113cc565b6040516105a39190613658565b60405180910390f35b6105c660048036038101906105c19190613a28565b611444565b005b6105e260048036038101906105dd9190613554565b6118d6565b6040516105ef91906134fc565b60405180910390f35b610612600480360381019061060d9190613554565b61197e565b60405161061f9190613658565b60405180910390f35b610642600480360381019061063d9190613554565b61199e565b60405161064f9190613658565b60405180910390f35b610672600480360381019061066d9190613a68565b6119be565b60405161067f9190613448565b60405180910390f35b6106a2600480360381019061069d91906136c6565b611a52565b005b6106be60048036038101906106b99190613554565b611b4a565b005b60006106cb82611d04565b9050919050565b6060600080546106e190613ad7565b80601f016020809104026020016040519081016040528092919081815260200182805461070d90613ad7565b801561075a5780601f1061072f5761010080835404028352916020019161075a565b820191906000526020600020905b81548152906001019060200180831161073d57829003601f168201915b5050505050905090565b600061076f82611d7e565b6107ae576040517f08c379a00000000000000000000000000000000000000000000000000000000081526004016107a590613b7b565b60405180910390fd5b6004600083815260200190815260200160002060009054906101000a900473ffffffffffffffffffffffffffffffffffffffff169050919050565b60006107f482610ecf565b90508073ffffffffffffffffffffffffffffffffffffffff168373ffffffffffffffffffffffffffffffffffffffff161415610865576040517f08c379a000000000000000000000000000000000000000000000000000000000815260040161085c90613c0d565b60405180910390fd5b8073ffffffffffffffffffffffffffffffffffffffff16610884611dea565b73ffffffffffffffffffffffffffffffffffffffff1614806108b357506108b2816108ad611dea565b6119be565b5b6108f2576040517f08c379a00000000000000000000000000000000000000000000000000000000081526004016108e990613c9f565b60405180910390fd5b6108fc8383611df2565b505050565b6000600a80549050905090565b600042602360008481526020019081526020016000206006015410610968576040517f08c379a000000000000000000000000000000000000000000000000000000000815260040161095f90613d0b565b60405180910390fd5b60236000838152602001908152602001600020600501549050919050565b610997610991611dea565b82611eab565b6109d6576040517f08c379a00000000000000000000000000000000000000000000000000000000081526004016109cd90613d9d565b60405180910390fd5b6109e1838383611f89565b505050565b60006109f183610f81565b8210610a32576040517f08c379a0000000000000000000000000000000000000000000000000000000008152600401610a2990613e2f565b60405180910390fd5b600860008473ffffffffffffffffffffffffffffffffffffffff1673ffffffffffffffffffffffffffffffffffffffff168152602001908152602001600020600083815260200190815260200160002054905092915050565b600060246000838152602001908152602001600020549050919050565b610ab0611dea565b73ffffffffffffffffffffffffffffffffffffffff16610ace6111c1565b73ffffffffffffffffffffffffffffffffffffffff1614610b24576040517f08c379a0000000000000000000000000000000000000000000000000000000008152600401610b1b90613e9b565b60405180910390fd5b60004711610b67576040517f08c379a0000000000000000000000000000000000000000000000000000000008152600401610b5e90613f07565b60405180910390fd5b610b6f6111c1565b73ffffffffffffffffffffffffffffffffffffffff166108fc479081150290604051600060405180830381858888f19350505050158015610bb4573d6000803e3d6000fd5b50565b6000610bc3600c6121f0565b90506000610bd36001600b6121fe565b90506000610be3600060066121fe565b90506000600e610bf5600060046121fe565b60048110610c0657610c05613f27565b5b018054610c1290613ad7565b80601f0160208091040260200160405190810160405280929190818152602001828054610c3e90613ad7565b8015610c8b5780601f10610c6057610100808354040283529160200191610c8b565b820191906000526020600020905b815481529060010190602001808311610c6e57829003601f168201915b505050505090506000601d8360068110610ca857610ca7613f27565b5b01826012606487610cb99190613fb4565b600b8110610cca57610cc9613f27565b5b016012600a88610cda9190613fb4565b600b8110610ceb57610cea613f27565b5b016012600a808a610cfc9190613fb4565b610d069190613fe5565b89610d11919061403f565b600b8110610d2257610d21613f27565b5b01604051602001610d37959493929190614227565b604051602081830303815290604052905080602360008781526020019081526020016000206000019080519060200190610d729291906132b1565b506004602360008781526020019081526020016000206001018190555083602360008781526020019081526020016000206004018190555081602360008781526020019081526020016000206002019080519060200190610dd49291906132b1565b508260236000878152602001908152602001600020600501819055506001602554610dff9190614293565b6025819055506025546023600087815260200190815260200160002060030181905550610e2c600c61225c565b610e368686612272565b505050505050565b610e5983838360405180602001604052806000815250611305565b505050565b6000610e68610901565b8210610ea9576040517f08c379a0000000000000000000000000000000000000000000000000000000008152600401610ea09061435b565b60405180910390fd5b600a8281548110610ebd57610ebc613f27565b5b90600052602060002001549050919050565b6000806002600084815260200190815260200160002060009054906101000a900473ffffffffffffffffffffffffffffffffffffffff169050600073ffffffffffffffffffffffffffffffffffffffff168173ffffffffffffffffffffffffffffffffffffffff161415610f78576040517f08c379a0000000000000000000000000000000000000000000000000000000008152600401610f6f906143ed565b60405180910390fd5b80915050919050565b60008073ffffffffffffffffffffffffffffffffffffffff168273ffffffffffffffffffffffffffffffffffffffff161415610ff2576040517f08c379a0000000000000000000000000000000000000000000000000000000008152600401610fe99061447f565b60405180910390fd5b600360008373ffffffffffffffffffffffffffffffffffffffff1673ffffffffffffffffffffffffffffffffffffffff168152602001908152602001600020549050919050565b611041611dea565b73ffffffffffffffffffffffffffffffffffffffff1661105f6111c1565b73ffffffffffffffffffffffffffffffffffffffff16146110b5576040517f08c379a00000000000000000000000000000000000000000000000000000000081526004016110ac90613e9b565b60405180910390fd5b6110bf6000612290565b565b60604260236000848152602001908152602001600020600601541061111b576040517f08c379a000000000000000000000000000000000000000000000000000000000815260040161111290613d0b565b60405180910390fd5b60236000838152602001908152602001600020600201805461113c90613ad7565b80601f016020809104026020016040519081016040528092919081815260200182805461116890613ad7565b80156111b55780601f1061118a576101008083540402835291602001916111b5565b820191906000526020600020905b81548152906001019060200180831161119857829003601f168201915b50505050509050919050565b6000600660009054906101000a900473ffffffffffffffffffffffffffffffffffffffff16905090565b600060236000838152602001908152602001600020600601549050919050565b60606001805461121a90613ad7565b80601f016020809104026020016040519081016040528092919081815260200182805461124690613ad7565b80156112935780601f1061126857610100808354040283529160200191611293565b820191906000526020600020905b81548152906001019060200180831161127657829003601f168201915b5050505050905090565b6112af6112a8611dea565b8383612356565b5050565b60005b8151811015611301576112ee60018383815181106112d7576112d6613f27565b5b60200260200101516112e9919061403f565b6124c3565b80806112f99061449f565b9150506112b6565b5050565b611316611310611dea565b83611eab565b611355576040517f08c379a000000000000000000000000000000000000000000000000000000000815260040161134c90613d9d565b60405180910390fd5b611361848484846124cf565b50505050565b6060600061137361252b565b9050806023600085815260200190815260200160002060000160405160200161139d929190614534565b604051602081830303815290604052915050919050565b6113c96001826113c4919061403f565b6124c3565b50565b600042602360008481526020019081526020016000206006015410611426576040517f08c379a000000000000000000000000000000000000000000000000000000000815260040161141d90613d0b565b60405180910390fd5b60236000838152602001908152602001600020600401549050919050565b80821415611487576040517f08c379a000000000000000000000000000000000000000000000000000000000815260040161147e906145af565b60405180910390fd5b3373ffffffffffffffffffffffffffffffffffffffff166114a783610ecf565b73ffffffffffffffffffffffffffffffffffffffff16146114fd576040517f08c379a00000000000000000000000000000000000000000000000000000000081526004016114f49061461b565b60405180910390fd5b3373ffffffffffffffffffffffffffffffffffffffff1661151d82610ecf565b73ffffffffffffffffffffffffffffffffffffffff1614611573576040517f08c379a000000000000000000000000000000000000000000000000000000000815260040161156a9061461b565b60405180910390fd5b60236000828152602001908152602001600020600201604051602001611599919061463b565b60405160208183030381529060405280519060200120602360008481526020019081526020016000206002016040516020016115d5919061463b565b604051602081830303815290604052805190602001201461162b576040517f08c379a0000000000000000000000000000000000000000000000000000000008152600401611622906146c4565b60405180910390fd5b6000602360008481526020019081526020016000206001015411611684576040517f08c379a000000000000000000000000000000000000000000000000000000000815260040161167b90614756565b60405180910390fd5b60006023600083815260200190815260200160002060010154116116dd576040517f08c379a00000000000000000000000000000000000000000000000000000000081526004016116d490614756565b60405180910390fd5b6040516020016116ec906147c2565b6040516020818303038152906040528051906020012060236000848152602001908152602001600020600001604051602001611728919061463b565b60405160208183030381529060405280519060200120141561177f576040517f08c379a000000000000000000000000000000000000000000000000000000000815260040161177690613d0b565b60405180910390fd5b60405160200161178e906147c2565b60405160208183030381529060405280519060200120602360008381526020019081526020016000206000016040516020016117ca919061463b565b604051602081830303815290604052805190602001201415611821576040517f08c379a000000000000000000000000000000000000000000000000000000000815260040161181890613d0b565b60405180910390fd5b60016023600084815260200190815260200160002060010154611844919061403f565b602360008481526020019081526020016000206001018190555060016023600083815260200190815260200160002060010154611881919061403f565b60236000838152602001908152602001600020600101819055506118d23360236000858152602001908152602001600020600401546023600085815260200190815260200160002060040154612568565b5050565b60606023600083815260200190815260200160002060000180546118f990613ad7565b80601f016020809104026020016040519081016040528092919081815260200182805461192590613ad7565b80156119725780601f1061194757610100808354040283529160200191611972565b820191906000526020600020905b81548152906001019060200180831161195557829003601f168201915b50505050509050919050565b600060236000838152602001908152602001600020600101549050919050565b600060236000838152602001908152602001600020600301549050919050565b6000600560008473ffffffffffffffffffffffffffffffffffffffff1673ffffffffffffffffffffffffffffffffffffffff16815260200190815260200160002060008373ffffffffffffffffffffffffffffffffffffffff1673ffffffffffffffffffffffffffffffffffffffff16815260200190815260200160002060009054906101000a900460ff16905092915050565b611a5a611dea565b73ffffffffffffffffffffffffffffffffffffffff16611a786111c1565b73ffffffffffffffffffffffffffffffffffffffff1614611ace576040517f08c379a0000000000000000000000000000000000000000000000000000000008152600401611ac590613e9b565b60405180910390fd5b600073ffffffffffffffffffffffffffffffffffffffff168173ffffffffffffffffffffffffffffffffffffffff161415611b3e576040517f08c379a0000000000000000000000000000000000000000000000000000000008152600401611b3590614849565b60405180910390fd5b611b4781612290565b50565b42602360008381526020019081526020016000206006015410611ba2576040517f08c379a0000000000000000000000000000000000000000000000000000000008152600401611b9990613d0b565b60405180910390fd5b601d602360008381526020019081526020016000206005015460068110611bcc57611bcb613f27565b5b0160236000838152602001908152602001600020600201601260646023600086815260200190815260200160002060040154611c089190613fb4565b600b8110611c1957611c18613f27565b5b016012600a6023600087815260200190815260200160002060040154611c3f9190613fb4565b600b8110611c5057611c4f613f27565b5b016012600a806023600089815260200190815260200160002060040154611c779190613fb4565b611c819190613fe5565b6023600088815260200190815260200160002060040154611ca2919061403f565b600b8110611cb357611cb2613f27565b5b01604051602001611cc8959493929190614869565b604051602081830303815290604052602360008381526020019081526020016000206000019080519060200190611d009291906132b1565b5050565b60007f780e9d63000000000000000000000000000000000000000000000000000000007bffffffffffffffffffffffffffffffffffffffffffffffffffffffff1916827bffffffffffffffffffffffffffffffffffffffffffffffffffffffff19161480611d775750611d76826127e1565b5b9050919050565b60008073ffffffffffffffffffffffffffffffffffffffff166002600084815260200190815260200160002060009054906101000a900473ffffffffffffffffffffffffffffffffffffffff1673ffffffffffffffffffffffffffffffffffffffff1614159050919050565b600033905090565b816004600083815260200190815260200160002060006101000a81548173ffffffffffffffffffffffffffffffffffffffff021916908373ffffffffffffffffffffffffffffffffffffffff160217905550808273ffffffffffffffffffffffffffffffffffffffff16611e6583610ecf565b73ffffffffffffffffffffffffffffffffffffffff167f8c5be1e5ebec7d5bd14f71427d1e84f3dd0314c0f7b2291e5b200ac8c7c3b92560405160405180910390a45050565b6000611eb682611d7e565b611ef5576040517f08c379a0000000000000000000000000000000000000000000000000000000008152600401611eec90614947565b60405180910390fd5b6000611f0083610ecf565b90508073ffffffffffffffffffffffffffffffffffffffff168473ffffffffffffffffffffffffffffffffffffffff161480611f6f57508373ffffffffffffffffffffffffffffffffffffffff16611f5784610764565b73ffffffffffffffffffffffffffffffffffffffff16145b80611f805750611f7f81856119be565b5b91505092915050565b8273ffffffffffffffffffffffffffffffffffffffff16611fa982610ecf565b73ffffffffffffffffffffffffffffffffffffffff1614611fff576040517f08c379a0000000000000000000000000000000000000000000000000000000008152600401611ff6906149d9565b60405180910390fd5b600073ffffffffffffffffffffffffffffffffffffffff168273ffffffffffffffffffffffffffffffffffffffff16141561206f576040517f08c379a000000000000000000000000000000000000000000000000000000000815260040161206690614a6b565b60405180910390fd5b61207a8383836128c3565b612085600082611df2565b6001600360008573ffffffffffffffffffffffffffffffffffffffff1673ffffffffffffffffffffffffffffffffffffffff16815260200190815260200160002060008282546120d5919061403f565b925050819055506001600360008473ffffffffffffffffffffffffffffffffffffffff1673ffffffffffffffffffffffffffffffffffffffff168152602001908152602001600020600082825461212c9190614293565b92505081905550816002600083815260200190815260200160002060006101000a81548173ffffffffffffffffffffffffffffffffffffffff021916908373ffffffffffffffffffffffffffffffffffffffff160217905550808273ffffffffffffffffffffffffffffffffffffffff168473ffffffffffffffffffffffffffffffffffffffff167fddf252ad1be2c89b69c2b068fc378daa952ba7f163c4a11628f55a4df523b3ef60405160405180910390a46121eb8383836128d3565b505050565b600081600001549050919050565b600080838361220d919061403f565b42443360405160200161222293929190614af4565b6040516020818303038152906040528051906020012060001c6122459190614b31565b905083816122539190614293565b91505092915050565b6001816000016000828254019250508190555050565b61228c8282604051806020016040528060008152506128d8565b5050565b6000600660009054906101000a900473ffffffffffffffffffffffffffffffffffffffff16905081600660006101000a81548173ffffffffffffffffffffffffffffffffffffffff021916908373ffffffffffffffffffffffffffffffffffffffff1602179055508173ffffffffffffffffffffffffffffffffffffffff168173ffffffffffffffffffffffffffffffffffffffff167f8be0079c531659141344cd1fd0a4f28419497f9722a3daafe3b4186f6b6457e060405160405180910390a35050565b8173ffffffffffffffffffffffffffffffffffffffff168373ffffffffffffffffffffffffffffffffffffffff1614156123c5576040517f08c379a00000000000000000000000000000000000000000000000000000000081526004016123bc90614bae565b60405180910390fd5b80600560008573ffffffffffffffffffffffffffffffffffffffff1673ffffffffffffffffffffffffffffffffffffffff16815260200190815260200160002060008473ffffffffffffffffffffffffffffffffffffffff1673ffffffffffffffffffffffffffffffffffffffff16815260200190815260200160002060006101000a81548160ff0219169083151502179055508173ffffffffffffffffffffffffffffffffffffffff168373ffffffffffffffffffffffffffffffffffffffff167f17307eab39ab6107e8899845ad3d59bd9653f200f220920489ca2b5937696c31836040516124b69190613448565b60405180910390a3505050565b6124cc81612933565b50565b6124da848484611f89565b6124e684848484612986565b612525576040517f08c379a000000000000000000000000000000000000000000000000000000000815260040161251c90614c40565b60405180910390fd5b50505050565b60606040518060400160405280600781526020017f2e2f4e4654732f00000000000000000000000000000000000000000000000000815250905090565b6000600282846125789190614293565b6125829190613fb4565b90506000612590600c6121f0565b905060006125aa83600b856125a59190614293565b6121fe565b905060006125ba600060066121fe565b90506000600e6125cc600060046121fe565b600481106125dd576125dc613f27565b5b0180546125e990613ad7565b80601f016020809104026020016040519081016040528092919081815260200182805461261590613ad7565b80156126625780601f1061263757610100808354040283529160200191612662565b820191906000526020600020905b81548152906001019060200180831161264557829003601f168201915b5050505050905060006040518060400160405280600981526020017f496e50726f636573730000000000000000000000000000000000000000000000815250905060006078426126b29190614293565b9050866024600088815260200190815260200160002081905550806023600088815260200190815260200160002060060181905550816023600088815260200190815260200160002060000190805190602001906127119291906132b1565b5060046023600088815260200190815260200160002060010181905550846023600088815260200190815260200160002060040181905550826023600088815260200190815260200160002060020190805190602001906127739291906132b1565b50836023600088815260200190815260200160002060050181905550600160255461279e9190614293565b60258190555060255460236000888152602001908152602001600020600301819055506127cb600c61225c565b6127d58a87612272565b50505050505050505050565b60007f80ac58cd000000000000000000000000000000000000000000000000000000007bffffffffffffffffffffffffffffffffffffffffffffffffffffffff1916827bffffffffffffffffffffffffffffffffffffffffffffffffffffffff191614806128ac57507f5b5e139f000000000000000000000000000000000000000000000000000000007bffffffffffffffffffffffffffffffffffffffffffffffffffffffff1916827bffffffffffffffffffffffffffffffffffffffffffffffffffffffff1916145b806128bc57506128bb82612b0e565b5b9050919050565b6128ce838383612b78565b505050565b505050565b6128e28383612c8c565b6128ef6000848484612986565b61292e576040517f08c379a000000000000000000000000000000000000000000000000000000000815260040161292590614c40565b60405180910390fd5b505050565b61293c81612e66565b600060076000838152602001908152602001600020805461295c90613ad7565b905014612983576007600082815260200190815260200160002060006129829190613337565b5b50565b60006129a78473ffffffffffffffffffffffffffffffffffffffff16612f83565b15612b01578373ffffffffffffffffffffffffffffffffffffffff1663150b7a026129d0611dea565b8786866040518563ffffffff1660e01b81526004016129f29493929190614cb5565b6020604051808303816000875af1925050508015612a2e57506040513d601f19601f82011682018060405250810190612a2b9190614d16565b60015b612ab1573d8060008114612a5e576040519150601f19603f3d011682016040523d82523d6000602084013e612a63565b606091505b50600081511415612aa9576040517f08c379a0000000000000000000000000000000000000000000000000000000008152600401612aa090614c40565b60405180910390fd5b805181602001fd5b63150b7a0260e01b7bffffffffffffffffffffffffffffffffffffffffffffffffffffffff1916817bffffffffffffffffffffffffffffffffffffffffffffffffffffffff191614915050612b06565b600190505b949350505050565b60007f01ffc9a7000000000000000000000000000000000000000000000000000000007bffffffffffffffffffffffffffffffffffffffffffffffffffffffff1916827bffffffffffffffffffffffffffffffffffffffffffffffffffffffff1916149050919050565b612b83838383612fa6565b600073ffffffffffffffffffffffffffffffffffffffff168373ffffffffffffffffffffffffffffffffffffffff161415612bc657612bc181612fab565b612c05565b8173ffffffffffffffffffffffffffffffffffffffff168373ffffffffffffffffffffffffffffffffffffffff1614612c0457612c038382612ff4565b5b5b600073ffffffffffffffffffffffffffffffffffffffff168273ffffffffffffffffffffffffffffffffffffffff161415612c4857612c4381613161565b612c87565b8273ffffffffffffffffffffffffffffffffffffffff168273ffffffffffffffffffffffffffffffffffffffff1614612c8657612c858282613232565b5b5b505050565b600073ffffffffffffffffffffffffffffffffffffffff168273ffffffffffffffffffffffffffffffffffffffff161415612cfc576040517f08c379a0000000000000000000000000000000000000000000000000000000008152600401612cf390614d8f565b60405180910390fd5b612d0581611d7e565b15612d45576040517f08c379a0000000000000000000000000000000000000000000000000000000008152600401612d3c90614dfb565b60405180910390fd5b612d51600083836128c3565b6001600360008473ffffffffffffffffffffffffffffffffffffffff1673ffffffffffffffffffffffffffffffffffffffff1681526020019081526020016000206000828254612da19190614293565b92505081905550816002600083815260200190815260200160002060006101000a81548173ffffffffffffffffffffffffffffffffffffffff021916908373ffffffffffffffffffffffffffffffffffffffff160217905550808273ffffffffffffffffffffffffffffffffffffffff16600073ffffffffffffffffffffffffffffffffffffffff167fddf252ad1be2c89b69c2b068fc378daa952ba7f163c4a11628f55a4df523b3ef60405160405180910390a4612e62600083836128d3565b5050565b6000612e7182610ecf565b9050612e7f816000846128c3565b612e8a600083611df2565b6001600360008373ffffffffffffffffffffffffffffffffffffffff1673ffffffffffffffffffffffffffffffffffffffff1681526020019081526020016000206000828254612eda919061403f565b925050819055506002600083815260200190815260200160002060006101000a81549073ffffffffffffffffffffffffffffffffffffffff021916905581600073ffffffffffffffffffffffffffffffffffffffff168273ffffffffffffffffffffffffffffffffffffffff167fddf252ad1be2c89b69c2b068fc378daa952ba7f163c4a11628f55a4df523b3ef60405160405180910390a4612f7f816000846128d3565b5050565b6000808273ffffffffffffffffffffffffffffffffffffffff163b119050919050565b505050565b600a80549050600b600083815260200190815260200160002081905550600a81908060018154018082558091505060019003906000526020600020016000909190919091505550565b6000600161300184610f81565b61300b919061403f565b90506000600960008481526020019081526020016000205490508181146130f0576000600860008673ffffffffffffffffffffffffffffffffffffffff1673ffffffffffffffffffffffffffffffffffffffff168152602001908152602001600020600084815260200190815260200160002054905080600860008773ffffffffffffffffffffffffffffffffffffffff1673ffffffffffffffffffffffffffffffffffffffff168152602001908152602001600020600084815260200190815260200160002081905550816009600083815260200190815260200160002081905550505b6009600084815260200190815260200160002060009055600860008573ffffffffffffffffffffffffffffffffffffffff1673ffffffffffffffffffffffffffffffffffffffff16815260200190815260200160002060008381526020019081526020016000206000905550505050565b60006001600a80549050613175919061403f565b90506000600b60008481526020019081526020016000205490506000600a83815481106131a5576131a4613f27565b5b9060005260206000200154905080600a83815481106131c7576131c6613f27565b5b906000526020600020018190555081600b600083815260200190815260200160002081905550600b600085815260200190815260200160002060009055600a80548061321657613215614e1b565b5b6001900381819060005260206000200160009055905550505050565b600061323d83610f81565b905081600860008573ffffffffffffffffffffffffffffffffffffffff1673ffffffffffffffffffffffffffffffffffffffff168152602001908152602001600020600083815260200190815260200160002081905550806009600084815260200190815260200160002081905550505050565b8280546132bd90613ad7565b90600052602060002090601f0160209004810192826132df5760008555613326565b82601f106132f857805160ff1916838001178555613326565b82800160010185558215613326579182015b8281111561332557825182559160200191906001019061330a565b5b5090506133339190613377565b5090565b50805461334390613ad7565b6000825580601f106133555750613374565b601f0160209004906000526020600020908101906133739190613377565b5b50565b5b80821115613390576000816000905550600101613378565b5090565b6000604051905090565b600080fd5b600080fd5b60007fffffffff0000000000000000000000000000000000000000000000000000000082169050919050565b6133dd816133a8565b81146133e857600080fd5b50565b6000813590506133fa816133d4565b92915050565b6000602082840312156134165761341561339e565b5b6000613424848285016133eb565b91505092915050565b60008115159050919050565b6134428161342d565b82525050565b600060208201905061345d6000830184613439565b92915050565b600081519050919050565b600082825260208201905092915050565b60005b8381101561349d578082015181840152602081019050613482565b838111156134ac576000848401525b50505050565b6000601f19601f8301169050919050565b60006134ce82613463565b6134d8818561346e565b93506134e881856020860161347f565b6134f1816134b2565b840191505092915050565b6000602082019050818103600083015261351681846134c3565b905092915050565b6000819050919050565b6135318161351e565b811461353c57600080fd5b50565b60008135905061354e81613528565b92915050565b60006020828403121561356a5761356961339e565b5b60006135788482850161353f565b91505092915050565b600073ffffffffffffffffffffffffffffffffffffffff82169050919050565b60006135ac82613581565b9050919050565b6135bc816135a1565b82525050565b60006020820190506135d760008301846135b3565b92915050565b6135e6816135a1565b81146135f157600080fd5b50565b600081359050613603816135dd565b92915050565b600080604083850312156136205761361f61339e565b5b600061362e858286016135f4565b925050602061363f8582860161353f565b9150509250929050565b6136528161351e565b82525050565b600060208201905061366d6000830184613649565b92915050565b60008060006060848603121561368c5761368b61339e565b5b600061369a868287016135f4565b93505060206136ab868287016135f4565b92505060406136bc8682870161353f565b9150509250925092565b6000602082840312156136dc576136db61339e565b5b60006136ea848285016135f4565b91505092915050565b6136fc8161342d565b811461370757600080fd5b50565b600081359050613719816136f3565b92915050565b600080604083850312156137365761373561339e565b5b6000613744858286016135f4565b92505060206137558582860161370a565b9150509250929050565b600080fd5b7f4e487b7100000000000000000000000000000000000000000000000000000000600052604160045260246000fd5b61379c826134b2565b810181811067ffffffffffffffff821117156137bb576137ba613764565b5b80604052505050565b60006137ce613394565b90506137da8282613793565b919050565b600067ffffffffffffffff8211156137fa576137f9613764565b5b602082029050602081019050919050565b600080fd5b600061382361381e846137df565b6137c4565b905080838252602082019050602084028301858111156138465761384561380b565b5b835b8181101561386f578061385b888261353f565b845260208401935050602081019050613848565b5050509392505050565b600082601f83011261388e5761388d61375f565b5b813561389e848260208601613810565b91505092915050565b6000602082840312156138bd576138bc61339e565b5b600082013567ffffffffffffffff8111156138db576138da6133a3565b5b6138e784828501613879565b91505092915050565b600080fd5b600067ffffffffffffffff8211156139105761390f613764565b5b613919826134b2565b9050602081019050919050565b82818337600083830152505050565b6000613948613943846138f5565b6137c4565b905082815260208101848484011115613964576139636138f0565b5b61396f848285613926565b509392505050565b600082601f83011261398c5761398b61375f565b5b813561399c848260208601613935565b91505092915050565b600080600080608085870312156139bf576139be61339e565b5b60006139cd878288016135f4565b94505060206139de878288016135f4565b93505060406139ef8782880161353f565b925050606085013567ffffffffffffffff811115613a1057613a0f6133a3565b5b613a1c87828801613977565b91505092959194509250565b60008060408385031215613a3f57613a3e61339e565b5b6000613a4d8582860161353f565b9250506020613a5e8582860161353f565b9150509250929050565b60008060408385031215613a7f57613a7e61339e565b5b6000613a8d858286016135f4565b9250506020613a9e858286016135f4565b9150509250929050565b7f4e487b7100000000000000000000000000000000000000000000000000000000600052602260045260246000fd5b60006002820490506001821680613aef57607f821691505b60208210811415613b0357613b02613aa8565b5b50919050565b7f4552433732313a20617070726f76656420717565727920666f72206e6f6e657860008201527f697374656e7420746f6b656e0000000000000000000000000000000000000000602082015250565b6000613b65602c8361346e565b9150613b7082613b09565b604082019050919050565b60006020820190508181036000830152613b9481613b58565b9050919050565b7f4552433732313a20617070726f76616c20746f2063757272656e74206f776e6560008201527f7200000000000000000000000000000000000000000000000000000000000000602082015250565b6000613bf760218361346e565b9150613c0282613b9b565b604082019050919050565b60006020820190508181036000830152613c2681613bea565b9050919050565b7f4552433732313a20617070726f76652063616c6c6572206973206e6f74206f7760008201527f6e6572206e6f7220617070726f76656420666f7220616c6c0000000000000000602082015250565b6000613c8960388361346e565b9150613c9482613c2d565b604082019050919050565b60006020820190508181036000830152613cb881613c7c565b9050919050565b7f4e4654206973206e6f7420726561647900000000000000000000000000000000600082015250565b6000613cf560108361346e565b9150613d0082613cbf565b602082019050919050565b60006020820190508181036000830152613d2481613ce8565b9050919050565b7f4552433732313a207472616e736665722063616c6c6572206973206e6f74206f60008201527f776e6572206e6f7220617070726f766564000000000000000000000000000000602082015250565b6000613d8760318361346e565b9150613d9282613d2b565b604082019050919050565b60006020820190508181036000830152613db681613d7a565b9050919050565b7f455243373231456e756d657261626c653a206f776e657220696e646578206f7560008201527f74206f6620626f756e6473000000000000000000000000000000000000000000602082015250565b6000613e19602b8361346e565b9150613e2482613dbd565b604082019050919050565b60006020820190508181036000830152613e4881613e0c565b9050919050565b7f4f776e61626c653a2063616c6c6572206973206e6f7420746865206f776e6572600082015250565b6000613e8560208361346e565b9150613e9082613e4f565b602082019050919050565b60006020820190508181036000830152613eb481613e78565b9050919050565b7f42616c616e6365206973207a65726f0000000000000000000000000000000000600082015250565b6000613ef1600f8361346e565b9150613efc82613ebb565b602082019050919050565b60006020820190508181036000830152613f2081613ee4565b9050919050565b7f4e487b7100000000000000000000000000000000000000000000000000000000600052603260045260246000fd5b7f4e487b7100000000000000000000000000000000000000000000000000000000600052601260045260246000fd5b7f4e487b7100000000000000000000000000000000000000000000000000000000600052601160045260246000fd5b6000613fbf8261351e565b9150613fca8361351e565b925082613fda57613fd9613f56565b5b828204905092915050565b6000613ff08261351e565b9150613ffb8361351e565b9250817fffffffffffffffffffffffffffffffffffffffffffffffffffffffffffffffff048311821515161561403457614033613f85565b5b828202905092915050565b600061404a8261351e565b91506140558361351e565b92508282101561406857614067613f85565b5b828203905092915050565b600081905092915050565b7f6600000000000000000000000000000000000000000000000000000000000000600082015250565b60006140b4600183614073565b91506140bf8261407e565b600182019050919050565b60008190508160005260206000209050919050565b600081546140ec81613ad7565b6140f68186614073565b94506001821660008114614111576001811461412257614155565b60ff19831686528186019350614155565b61412b856140ca565b60005b8381101561414d5781548189015260018201915060208101905061412e565b838801955050505b50505092915050565b7f7065720000000000000000000000000000000000000000000000000000000000600082015250565b6000614194600383614073565b915061419f8261415e565b600382019050919050565b60006141b582613463565b6141bf8185614073565b93506141cf81856020860161347f565b80840191505092915050565b7f7075720000000000000000000000000000000000000000000000000000000000600082015250565b6000614211600383614073565b915061421c826141db565b600382019050919050565b6000614232826140a7565b915061423e82886140df565b915061424982614187565b915061425582876141aa565b915061426082614204565b915061426c82866140df565b915061427882856140df565b915061428482846140df565b91508190509695505050505050565b600061429e8261351e565b91506142a98361351e565b9250827fffffffffffffffffffffffffffffffffffffffffffffffffffffffffffffffff038211156142de576142dd613f85565b5b828201905092915050565b7f455243373231456e756d657261626c653a20676c6f62616c20696e646578206f60008201527f7574206f6620626f756e64730000000000000000000000000000000000000000602082015250565b6000614345602c8361346e565b9150614350826142e9565b604082019050919050565b6000602082019050818103600083015261437481614338565b9050919050565b7f4552433732313a206f776e657220717565727920666f72206e6f6e657869737460008201527f656e7420746f6b656e0000000000000000000000000000000000000000000000602082015250565b60006143d760298361346e565b91506143e28261437b565b604082019050919050565b60006020820190508181036000830152614406816143ca565b9050919050565b7f4552433732313a2062616c616e636520717565727920666f7220746865207a6560008201527f726f206164647265737300000000000000000000000000000000000000000000602082015250565b6000614469602a8361346e565b91506144748261440d565b604082019050919050565b600060208201905081810360008301526144988161445c565b9050919050565b60006144aa8261351e565b91507fffffffffffffffffffffffffffffffffffffffffffffffffffffffffffffffff8214156144dd576144dc613f85565b5b600182019050919050565b7f2e706e6700000000000000000000000000000000000000000000000000000000600082015250565b600061451e600483614073565b9150614529826144e8565b600482019050919050565b600061454082856141aa565b915061454c82846140df565b915061455782614511565b91508190509392505050565b7f4e46547320617265207468652073616d65000000000000000000000000000000600082015250565b600061459960118361346e565b91506145a482614563565b602082019050919050565b600060208201905081810360008301526145c88161458c565b9050919050565b7f54686520746f6b656e206973206e6f7420796f75727300000000000000000000600082015250565b600061460560168361346e565b9150614610826145cf565b602082019050919050565b60006020820190508181036000830152614634816145f8565b9050919050565b600061464782846140df565b915081905092915050565b7f54686520746f6b656e7320617265206e6f74207468652073616d6520636f6c6f60008201527f7200000000000000000000000000000000000000000000000000000000000000602082015250565b60006146ae60218361346e565b91506146b982614652565b604082019050919050565b600060208201905081810360008301526146dd816146a1565b9050919050565b7f74686973204e465420686173206e6f206d6f7265206272656564696e67206f7060008201527f706f7274756e6974696573000000000000000000000000000000000000000000602082015250565b6000614740602b8361346e565b915061474b826146e4565b604082019050919050565b6000602082019050818103600083015261476f81614733565b9050919050565b7f496e50726f636573730000000000000000000000000000000000000000000000600082015250565b60006147ac600983614073565b91506147b782614776565b600982019050919050565b60006147cd8261479f565b9150819050919050565b7f4f776e61626c653a206e6577206f776e657220697320746865207a65726f206160008201527f6464726573730000000000000000000000000000000000000000000000000000602082015250565b600061483360268361346e565b915061483e826147d7565b604082019050919050565b6000602082019050818103600083015261486281614826565b9050919050565b6000614874826140a7565b915061488082886140df565b915061488b82614187565b915061489782876140df565b91506148a282614204565b91506148ae82866140df565b91506148ba82856140df565b91506148c682846140df565b91508190509695505050505050565b7f4552433732313a206f70657261746f7220717565727920666f72206e6f6e657860008201527f697374656e7420746f6b656e0000000000000000000000000000000000000000602082015250565b6000614931602c8361346e565b915061493c826148d5565b604082019050919050565b6000602082019050818103600083015261496081614924565b9050919050565b7f4552433732313a207472616e736665722066726f6d20696e636f72726563742060008201527f6f776e6572000000000000000000000000000000000000000000000000000000602082015250565b60006149c360258361346e565b91506149ce82614967565b604082019050919050565b600060208201905081810360008301526149f2816149b6565b9050919050565b7f4552433732313a207472616e7366657220746f20746865207a65726f2061646460008201527f7265737300000000000000000000000000000000000000000000000000000000602082015250565b6000614a5560248361346e565b9150614a60826149f9565b604082019050919050565b60006020820190508181036000830152614a8481614a48565b9050919050565b6000819050919050565b614aa6614aa18261351e565b614a8b565b82525050565b60008160601b9050919050565b6000614ac482614aac565b9050919050565b6000614ad682614ab9565b9050919050565b614aee614ae9826135a1565b614acb565b82525050565b6000614b008286614a95565b602082019150614b108285614a95565b602082019150614b208284614add565b601482019150819050949350505050565b6000614b3c8261351e565b9150614b478361351e565b925082614b5757614b56613f56565b5b828206905092915050565b7f4552433732313a20617070726f766520746f2063616c6c657200000000000000600082015250565b6000614b9860198361346e565b9150614ba382614b62565b602082019050919050565b60006020820190508181036000830152614bc781614b8b565b9050919050565b7f4552433732313a207472616e7366657220746f206e6f6e20455243373231526560008201527f63656976657220696d706c656d656e7465720000000000000000000000000000602082015250565b6000614c2a60328361346e565b9150614c3582614bce565b604082019050919050565b60006020820190508181036000830152614c5981614c1d565b9050919050565b600081519050919050565b600082825260208201905092915050565b6000614c8782614c60565b614c918185614c6b565b9350614ca181856020860161347f565b614caa816134b2565b840191505092915050565b6000608082019050614cca60008301876135b3565b614cd760208301866135b3565b614ce46040830185613649565b8181036060830152614cf68184614c7c565b905095945050505050565b600081519050614d10816133d4565b92915050565b600060208284031215614d2c57614d2b61339e565b5b6000614d3a84828501614d01565b91505092915050565b7f4552433732313a206d696e7420746f20746865207a65726f2061646472657373600082015250565b6000614d7960208361346e565b9150614d8482614d43565b602082019050919050565b60006020820190508181036000830152614da881614d6c565b9050919050565b7f4552433732313a20746f6b656e20616c7265616479206d696e74656400000000600082015250565b6000614de5601c8361346e565b9150614df082614daf565b602082019050919050565b60006020820190508181036000830152614e1481614dd8565b9050919050565b7f4e487b7100000000000000000000000000000000000000000000000000000000600052603160045260246000fdfea26469706673582212208c93c221a55c1fcf09fce4377df470441d318b0999a0a356d09c7c85fa09926a64736f6c634300080b0033",
  "immutableReferences": {},
  "source": "// SPDX-License-Identifier: MIT\r\npragma solidity ^0.8.4;\r\n\r\nimport \"@openzeppelin/contracts/token/ERC721/ERC721.sol\";\r\nimport \"@openzeppelin/contracts/access/Ownable.sol\";\r\nimport \"@openzeppelin/contracts/utils/Counters.sol\";\r\nimport \"@openzeppelin/contracts/token/ERC721/extensions/ERC721URIStorage.sol\";\r\nimport \"@openzeppelin/contracts/token/ERC721/extensions/ERC721Enumerable.sol\";\r\n\r\ncontract NFT is ERC721, Ownable, ERC721URIStorage, ERC721Enumerable {\r\n    using Counters for Counters.Counter;\r\n\r\n    Counters.Counter private _tokenIdCounter;\r\n\r\n    uint256 MINT_PRICE = 10 ether;\r\n    string[4] colors = [\"azul\", \"verde\", \"rosa\", \"marron\"];\r\n    string[11] numbers = [\"0\", \"1\", \"2\", \"3\", \"4\", \"5\", \"6\", \"7\", \"8\", \"9\"];\r\n    string[6] backgroundStrings = [\"1\", \"2\", \"3\", \"4\", \"5\", \"6\"];\r\n\r\n    struct token {\r\n        string name;\r\n        uint256 breeding;\r\n        string color;\r\n        uint256 number;\r\n        uint256 purity;\r\n        uint256 background;\r\n        uint256 timeToClaim;\r\n    }\r\n\r\n    mapping(uint256 => token) tokenInfo;\r\n    mapping(uint256 => uint256) tokenMinPurity;\r\n    uint256 actualTokenNumber = 0;\r\n\r\n    constructor() ERC721(\"MyToken\", \"MTK\") {}\r\n\r\n    function breed(uint256 _idToken1, uint256 _idToken2) public {\r\n        require(_idToken1 != _idToken2, \"NFTs are the same\");\r\n        require(ownerOf(_idToken1) == msg.sender, \"The token is not yours\");\r\n        require(ownerOf(_idToken2) == msg.sender, \"The token is not yours\");\r\n        require(\r\n            (keccak256(abi.encodePacked(tokenInfo[_idToken1].color))) ==\r\n                (keccak256(abi.encodePacked(tokenInfo[_idToken2].color))),\r\n            \"The tokens are not the same color\"\r\n        );\r\n        require(\r\n            tokenInfo[_idToken1].breeding > 0,\r\n            \"this NFT has no more breeding opportunities\"\r\n        );\r\n        require(\r\n            tokenInfo[_idToken2].breeding > 0,\r\n            \"this NFT has no more breeding opportunities\"\r\n        );\r\n        require(\r\n            (keccak256(abi.encodePacked(tokenInfo[_idToken1].name))) !=\r\n                (keccak256(abi.encodePacked(\"InProcess\"))),\r\n            \"NFT is not ready\"\r\n        );\r\n        require(\r\n            (keccak256(abi.encodePacked(tokenInfo[_idToken2].name))) !=\r\n                (keccak256(abi.encodePacked(\"InProcess\"))),\r\n            \"NFT is not ready\"\r\n        );\r\n        tokenInfo[_idToken1].breeding = tokenInfo[_idToken1].breeding - 1;\r\n        tokenInfo[_idToken2].breeding = tokenInfo[_idToken2].breeding - 1;\r\n        internalSafeMint(\r\n            msg.sender,\r\n            tokenInfo[_idToken1].purity,\r\n            tokenInfo[_idToken2].purity\r\n        );\r\n    }\r\n\r\n    function claimNFT(uint256 _tokenId) public {\r\n        require(\r\n            tokenInfo[_tokenId].timeToClaim < block.timestamp,\r\n            \"NFT is not ready\"\r\n        );\r\n        tokenInfo[_tokenId].name = string(\r\n            abi.encodePacked(\r\n                \"f\",\r\n                backgroundStrings[tokenInfo[_tokenId].background],\r\n                \"per\",\r\n                tokenInfo[_tokenId].color,\r\n                \"pur\",\r\n                numbers[tokenInfo[_tokenId].purity / 100],\r\n                numbers[tokenInfo[_tokenId].purity / 10],\r\n                numbers[\r\n                    tokenInfo[_tokenId].purity -\r\n                        ((uint256(tokenInfo[_tokenId].purity / 10)) * 10)\r\n                ]\r\n            )\r\n        );\r\n    }\r\n\r\n    function internalSafeMint(\r\n        address to,\r\n        uint256 purityToken1,\r\n        uint256 purityToken2\r\n    ) internal {\r\n        //require(msg.value >= MINT_PRICE, \"Not enough ether sent.\");\r\n        uint256 randomMin = (purityToken1 + purityToken2) / 2;\r\n        uint256 tokenId = _tokenIdCounter.current();\r\n        uint256 purity = random(randomMin, randomMin + 11);\r\n        uint256 background = random(0, 6);\r\n        string memory color = colors[random(0, 4)];\r\n        string memory name = \"InProcess\";\r\n        uint256 timeToClaim = block.timestamp + 2 minutes;\r\n\r\n        tokenMinPurity[tokenId] = randomMin;\r\n        tokenInfo[tokenId].timeToClaim = timeToClaim;\r\n        tokenInfo[tokenId].name = name;\r\n        tokenInfo[tokenId].breeding = 4;\r\n        tokenInfo[tokenId].purity = purity;\r\n        tokenInfo[tokenId].color = color;\r\n        tokenInfo[tokenId].background = background;\r\n        actualTokenNumber = actualTokenNumber + 1;\r\n        tokenInfo[tokenId].number = actualTokenNumber;\r\n        _tokenIdCounter.increment();\r\n        _safeMint(to, tokenId);\r\n    }\r\n\r\n    function getTokenName(uint256 _tokenId)\r\n        public\r\n        view\r\n        returns (string memory)\r\n    {\r\n        return tokenInfo[_tokenId].name;\r\n    }\r\n\r\n    function getMinPurity(uint256 _tokenId) public view returns (uint256) {\r\n        return tokenMinPurity[_tokenId];\r\n    }\r\n\r\n    function getTokenBackground(uint256 _tokenId)\r\n        public\r\n        view\r\n        returns (uint256)\r\n    {\r\n        require(\r\n            tokenInfo[_tokenId].timeToClaim < block.timestamp,\r\n            \"NFT is not ready\"\r\n        );\r\n        return tokenInfo[_tokenId].background;\r\n    }\r\n\r\n    function getTokenBreeding(uint256 _tokenId) public view returns (uint256) {\r\n        return tokenInfo[_tokenId].breeding;\r\n    }\r\n\r\n    function getTokenColor(uint256 _tokenId)\r\n        public\r\n        view\r\n        returns (string memory)\r\n    {\r\n        require(\r\n            tokenInfo[_tokenId].timeToClaim < block.timestamp,\r\n            \"NFT is not ready\"\r\n        );\r\n        return tokenInfo[_tokenId].color;\r\n    }\r\n\r\n    function getTokenNumber(uint256 _tokenId) public view returns (uint256) {\r\n        /*require(\r\n            tokenInfo[_tokenId].timeToClaim < block.timestamp,\r\n            \"NFT is not ready\"\r\n        );*/\r\n        return tokenInfo[_tokenId].number;\r\n    }\r\n\r\n    function getTokenPurity(uint256 _tokenId) public view returns (uint256) {\r\n        require(\r\n            tokenInfo[_tokenId].timeToClaim < block.timestamp,\r\n            \"NFT is not ready\"\r\n        );\r\n        return tokenInfo[_tokenId].purity;\r\n    }\r\n\r\n    function getTokenTimeToClaim(uint256 _tokenId)\r\n        public\r\n        view\r\n        returns (uint256)\r\n    {\r\n        return tokenInfo[_tokenId].timeToClaim;\r\n    }\r\n\r\n    function random(uint256 _numberMin, uint256 _numberMax)\r\n        internal\r\n        view\r\n        returns (uint256)\r\n    {\r\n        uint256 rodom = (uint256(\r\n            keccak256(\r\n                abi.encodePacked(block.timestamp, block.difficulty, msg.sender)\r\n            )\r\n        ) % (_numberMax - _numberMin));\r\n        return rodom + _numberMin;\r\n    }\r\n\r\n    function _baseURI() internal pure override returns (string memory) {\r\n        return \"./NFTs/\";\r\n    }\r\n\r\n    function withdraw() public onlyOwner {\r\n        require(address(this).balance > 0, \"Balance is zero\");\r\n        payable(owner()).transfer(address(this).balance);\r\n    }\r\n\r\n    function safeMint(address to) public {\r\n        //require(msg.value >= MINT_PRICE, \"Not enough ether sent.\");\r\n        uint256 tokenId = _tokenIdCounter.current();\r\n        uint256 purity = random(1, 11);\r\n        uint256 background = random(0, 6);\r\n        string memory color = colors[random(0, 4)];\r\n        string memory name = string(\r\n            abi.encodePacked(\r\n                \"f\",\r\n                backgroundStrings[background],\r\n                \"per\",\r\n                color,\r\n                \"pur\",\r\n                numbers[purity / 100],\r\n                numbers[purity / 10],\r\n                numbers[purity - ((uint256(purity / 10)) * 10)]\r\n            )\r\n        );\r\n        tokenInfo[tokenId].name = name;\r\n        tokenInfo[tokenId].breeding = 4;\r\n        tokenInfo[tokenId].purity = purity;\r\n        tokenInfo[tokenId].color = color;\r\n        tokenInfo[tokenId].background = background;\r\n        actualTokenNumber = actualTokenNumber + 1;\r\n        tokenInfo[tokenId].number = actualTokenNumber;\r\n        _tokenIdCounter.increment();\r\n        _safeMint(to, tokenId);\r\n    }\r\n\r\n    function _burn(uint256 tokenId)\r\n        internal\r\n        override(ERC721, ERC721URIStorage)\r\n    {\r\n        super._burn(tokenId);\r\n    }\r\n\r\n    function multipleburn(uint256[] memory _ids) public {\r\n        for (uint256 i = 0; i < _ids.length; i++) {\r\n            _burn(_ids[i] - 1);\r\n        }\r\n    }\r\n\r\n    function simpleburn(uint256 _id) public {\r\n        _burn(_id - 1);\r\n    }\r\n\r\n    function tokenURI(uint256 tokenId)\r\n        public\r\n        view\r\n        virtual\r\n        override(ERC721, ERC721URIStorage)\r\n        returns (string memory)\r\n    {\r\n        string memory baseURI = _baseURI();\r\n        return\r\n            string(abi.encodePacked(baseURI, tokenInfo[tokenId].name, \".png\"));\r\n    }\r\n\r\n    function _beforeTokenTransfer(\r\n        address from,\r\n        address to,\r\n        uint256 tokenId\r\n    ) internal override(ERC721, ERC721Enumerable) {\r\n        super._beforeTokenTransfer(from, to, tokenId);\r\n    }\r\n\r\n    function supportsInterface(bytes4 interfaceId)\r\n        public\r\n        view\r\n        override(ERC721, ERC721Enumerable)\r\n        returns (bool)\r\n    {\r\n        return super.supportsInterface(interfaceId);\r\n    }\r\n}\r\n",
  "sourcePath": "D:\\ProyectoGenesis\\genesis\\contracts\\NFT.sol",
  "compiler": {
    "name": "solc",
    "version": "0.8.11+commit.d7f03943.Emscripten.clang"
  },
  "schemaVersion": "3.4.4",
  "updatedAt": "2022-06-12T16:47:06.072Z",
  "networkType": "ethereum",
  "devdoc": {
    "kind": "dev",
    "methods": {
      "approve(address,uint256)": {
        "details": "See {IERC721-approve}."
      },
      "balanceOf(address)": {
        "details": "See {IERC721-balanceOf}."
      },
      "getApproved(uint256)": {
        "details": "See {IERC721-getApproved}."
      },
      "isApprovedForAll(address,address)": {
        "details": "See {IERC721-isApprovedForAll}."
      },
      "name()": {
        "details": "See {IERC721Metadata-name}."
      },
      "owner()": {
        "details": "Returns the address of the current owner."
      },
      "ownerOf(uint256)": {
        "details": "See {IERC721-ownerOf}."
      },
      "renounceOwnership()": {
        "details": "Leaves the contract without owner. It will not be possible to call `onlyOwner` functions anymore. Can only be called by the current owner. NOTE: Renouncing ownership will leave the contract without an owner, thereby removing any functionality that is only available to the owner."
      },
      "safeTransferFrom(address,address,uint256)": {
        "details": "See {IERC721-safeTransferFrom}."
      },
      "safeTransferFrom(address,address,uint256,bytes)": {
        "details": "See {IERC721-safeTransferFrom}."
      },
      "setApprovalForAll(address,bool)": {
        "details": "See {IERC721-setApprovalForAll}."
      },
      "symbol()": {
        "details": "See {IERC721Metadata-symbol}."
      },
      "tokenByIndex(uint256)": {
        "details": "See {IERC721Enumerable-tokenByIndex}."
      },
      "tokenOfOwnerByIndex(address,uint256)": {
        "details": "See {IERC721Enumerable-tokenOfOwnerByIndex}."
      },
      "totalSupply()": {
        "details": "See {IERC721Enumerable-totalSupply}."
      },
      "transferFrom(address,address,uint256)": {
        "details": "See {IERC721-transferFrom}."
      },
      "transferOwnership(address)": {
        "details": "Transfers ownership of the contract to a new account (`newOwner`). Can only be called by the current owner."
      }
    },
    "version": 1
  },
  "userdoc": {
    "kind": "user",
    "methods": {},
    "version": 1
  }
}