{
  "contractName": "NFT",
  "abi": [
    {
      "inputs": [],
      "stateMutability": "nonpayable",
      "type": "constructor"
    },
    {
      "anonymous": false,
      "inputs": [
        {
          "indexed": true,
          "internalType": "address",
          "name": "owner",
          "type": "address"
        },
        {
          "indexed": true,
          "internalType": "address",
          "name": "approved",
          "type": "address"
        },
        {
          "indexed": true,
          "internalType": "uint256",
          "name": "tokenId",
          "type": "uint256"
        }
      ],
      "name": "Approval",
      "type": "event"
    },
    {
      "anonymous": false,
      "inputs": [
        {
          "indexed": true,
          "internalType": "address",
          "name": "owner",
          "type": "address"
        },
        {
          "indexed": true,
          "internalType": "address",
          "name": "operator",
          "type": "address"
        },
        {
          "indexed": false,
          "internalType": "bool",
          "name": "approved",
          "type": "bool"
        }
      ],
      "name": "ApprovalForAll",
      "type": "event"
    },
    {
      "anonymous": false,
      "inputs": [
        {
          "indexed": true,
          "internalType": "address",
          "name": "previousOwner",
          "type": "address"
        },
        {
          "indexed": true,
          "internalType": "address",
          "name": "newOwner",
          "type": "address"
        }
      ],
      "name": "OwnershipTransferred",
      "type": "event"
    },
    {
      "anonymous": false,
      "inputs": [
        {
          "indexed": true,
          "internalType": "address",
          "name": "from",
          "type": "address"
        },
        {
          "indexed": true,
          "internalType": "address",
          "name": "to",
          "type": "address"
        },
        {
          "indexed": true,
          "internalType": "uint256",
          "name": "tokenId",
          "type": "uint256"
        }
      ],
      "name": "Transfer",
      "type": "event"
    },
    {
      "inputs": [
        {
          "internalType": "address",
          "name": "to",
          "type": "address"
        },
        {
          "internalType": "uint256",
          "name": "tokenId",
          "type": "uint256"
        }
      ],
      "name": "approve",
      "outputs": [],
      "stateMutability": "nonpayable",
      "type": "function"
    },
    {
      "inputs": [
        {
          "internalType": "address",
          "name": "owner",
          "type": "address"
        }
      ],
      "name": "balanceOf",
      "outputs": [
        {
          "internalType": "uint256",
          "name": "",
          "type": "uint256"
        }
      ],
      "stateMutability": "view",
      "type": "function",
      "constant": true
    },
    {
      "inputs": [
        {
          "internalType": "uint256",
          "name": "tokenId",
          "type": "uint256"
        }
      ],
      "name": "getApproved",
      "outputs": [
        {
          "internalType": "address",
          "name": "",
          "type": "address"
        }
      ],
      "stateMutability": "view",
      "type": "function",
      "constant": true
    },
    {
      "inputs": [
        {
          "internalType": "address",
          "name": "owner",
          "type": "address"
        },
        {
          "internalType": "address",
          "name": "operator",
          "type": "address"
        }
      ],
      "name": "isApprovedForAll",
      "outputs": [
        {
          "internalType": "bool",
          "name": "",
          "type": "bool"
        }
      ],
      "stateMutability": "view",
      "type": "function",
      "constant": true
    },
    {
      "inputs": [],
      "name": "name",
      "outputs": [
        {
          "internalType": "string",
          "name": "",
          "type": "string"
        }
      ],
      "stateMutability": "view",
      "type": "function",
      "constant": true
    },
    {
      "inputs": [],
      "name": "owner",
      "outputs": [
        {
          "internalType": "address",
          "name": "",
          "type": "address"
        }
      ],
      "stateMutability": "view",
      "type": "function",
      "constant": true
    },
    {
      "inputs": [
        {
          "internalType": "uint256",
          "name": "tokenId",
          "type": "uint256"
        }
      ],
      "name": "ownerOf",
      "outputs": [
        {
          "internalType": "address",
          "name": "",
          "type": "address"
        }
      ],
      "stateMutability": "view",
      "type": "function",
      "constant": true
    },
    {
      "inputs": [],
      "name": "renounceOwnership",
      "outputs": [],
      "stateMutability": "nonpayable",
      "type": "function"
    },
    {
      "inputs": [
        {
          "internalType": "address",
          "name": "from",
          "type": "address"
        },
        {
          "internalType": "address",
          "name": "to",
          "type": "address"
        },
        {
          "internalType": "uint256",
          "name": "tokenId",
          "type": "uint256"
        }
      ],
      "name": "safeTransferFrom",
      "outputs": [],
      "stateMutability": "nonpayable",
      "type": "function"
    },
    {
      "inputs": [
        {
          "internalType": "address",
          "name": "from",
          "type": "address"
        },
        {
          "internalType": "address",
          "name": "to",
          "type": "address"
        },
        {
          "internalType": "uint256",
          "name": "tokenId",
          "type": "uint256"
        },
        {
          "internalType": "bytes",
          "name": "_data",
          "type": "bytes"
        }
      ],
      "name": "safeTransferFrom",
      "outputs": [],
      "stateMutability": "nonpayable",
      "type": "function"
    },
    {
      "inputs": [
        {
          "internalType": "address",
          "name": "operator",
          "type": "address"
        },
        {
          "internalType": "bool",
          "name": "approved",
          "type": "bool"
        }
      ],
      "name": "setApprovalForAll",
      "outputs": [],
      "stateMutability": "nonpayable",
      "type": "function"
    },
    {
      "inputs": [],
      "name": "symbol",
      "outputs": [
        {
          "internalType": "string",
          "name": "",
          "type": "string"
        }
      ],
      "stateMutability": "view",
      "type": "function",
      "constant": true
    },
    {
      "inputs": [
        {
          "internalType": "uint256",
          "name": "index",
          "type": "uint256"
        }
      ],
      "name": "tokenByIndex",
      "outputs": [
        {
          "internalType": "uint256",
          "name": "",
          "type": "uint256"
        }
      ],
      "stateMutability": "view",
      "type": "function",
      "constant": true
    },
    {
      "inputs": [
        {
          "internalType": "address",
          "name": "owner",
          "type": "address"
        },
        {
          "internalType": "uint256",
          "name": "index",
          "type": "uint256"
        }
      ],
      "name": "tokenOfOwnerByIndex",
      "outputs": [
        {
          "internalType": "uint256",
          "name": "",
          "type": "uint256"
        }
      ],
      "stateMutability": "view",
      "type": "function",
      "constant": true
    },
    {
      "inputs": [],
      "name": "totalSupply",
      "outputs": [
        {
          "internalType": "uint256",
          "name": "",
          "type": "uint256"
        }
      ],
      "stateMutability": "view",
      "type": "function",
      "constant": true
    },
    {
      "inputs": [
        {
          "internalType": "address",
          "name": "from",
          "type": "address"
        },
        {
          "internalType": "address",
          "name": "to",
          "type": "address"
        },
        {
          "internalType": "uint256",
          "name": "tokenId",
          "type": "uint256"
        }
      ],
      "name": "transferFrom",
      "outputs": [],
      "stateMutability": "nonpayable",
      "type": "function"
    },
    {
      "inputs": [
        {
          "internalType": "address",
          "name": "newOwner",
          "type": "address"
        }
      ],
      "name": "transferOwnership",
      "outputs": [],
      "stateMutability": "nonpayable",
      "type": "function"
    },
    {
      "inputs": [
        {
          "internalType": "uint256",
          "name": "_tokenId",
          "type": "uint256"
        }
      ],
      "name": "getTokenName",
      "outputs": [
        {
          "internalType": "string",
          "name": "",
          "type": "string"
        }
      ],
      "stateMutability": "view",
      "type": "function",
      "constant": true
    },
    {
      "inputs": [
        {
          "internalType": "uint256",
          "name": "_tokenId",
          "type": "uint256"
        }
      ],
      "name": "getTokenBreeding",
      "outputs": [
        {
          "internalType": "uint256",
          "name": "",
          "type": "uint256"
        }
      ],
      "stateMutability": "view",
      "type": "function",
      "constant": true
    },
    {
      "inputs": [
        {
          "internalType": "uint256",
          "name": "_tokenId",
          "type": "uint256"
        }
      ],
      "name": "getTokenNumber",
      "outputs": [
        {
          "internalType": "uint256",
          "name": "",
          "type": "uint256"
        }
      ],
      "stateMutability": "view",
      "type": "function",
      "constant": true
    },
    {
      "inputs": [],
      "name": "withdraw",
      "outputs": [],
      "stateMutability": "nonpayable",
      "type": "function"
    },
    {
      "inputs": [
        {
          "internalType": "address",
          "name": "to",
          "type": "address"
        }
      ],
      "name": "safeMint",
      "outputs": [],
      "stateMutability": "payable",
      "type": "function",
      "payable": true
    },
    {
      "inputs": [
        {
          "internalType": "bytes4",
          "name": "interfaceId",
          "type": "bytes4"
        }
      ],
      "name": "supportsInterface",
      "outputs": [
        {
          "internalType": "bool",
          "name": "",
          "type": "bool"
        }
      ],
      "stateMutability": "view",
      "type": "function",
      "constant": true
    },
    {
      "inputs": [
        {
          "internalType": "uint256",
          "name": "tokenId",
          "type": "uint256"
        }
      ],
      "name": "tokenURI",
      "outputs": [
        {
          "internalType": "string",
          "name": "",
          "type": "string"
        }
      ],
      "stateMutability": "view",
      "type": "function",
      "constant": true
    }
  ],
  "bytecode": "0x6080604052678ac7230489e80000600d5560405180608001604052806040518060400160405280600481526020017f617a756c0000000000000000000000000000000000000000000000000000000081525081526020016040518060400160405280600581526020017f766572646500000000000000000000000000000000000000000000000000000081525081526020016040518060400160405280600481526020017f726f73610000000000000000000000000000000000000000000000000000000081525081526020016040518060400160405280600681526020017f6d6172726f6e0000000000000000000000000000000000000000000000000000815250815250600e906004620001179291906200066d565b506040518061016001604052806040518060400160405280600381526020017f303030000000000000000000000000000000000000000000000000000000000081525081526020016040518060400160405280600381526020017f303031000000000000000000000000000000000000000000000000000000000081525081526020016040518060400160405280600381526020017f303032000000000000000000000000000000000000000000000000000000000081525081526020016040518060400160405280600381526020017f303033000000000000000000000000000000000000000000000000000000000081525081526020016040518060400160405280600381526020017f303034000000000000000000000000000000000000000000000000000000000081525081526020016040518060400160405280600381526020017f303035000000000000000000000000000000000000000000000000000000000081525081526020016040518060400160405280600381526020017f303036000000000000000000000000000000000000000000000000000000000081525081526020016040518060400160405280600381526020017f303037000000000000000000000000000000000000000000000000000000000081525081526020016040518060400160405280600381526020017f303038000000000000000000000000000000000000000000000000000000000081525081526020016040518060400160405280600381526020017f303039000000000000000000000000000000000000000000000000000000000081525081526020016040518060400160405280600381526020017f3031300000000000000000000000000000000000000000000000000000000000815250815250601290600b620003bd929190620006c7565b5060405180608001604052806040518060400160405280600181526020017f310000000000000000000000000000000000000000000000000000000000000081525081526020016040518060400160405280600181526020017f320000000000000000000000000000000000000000000000000000000000000081525081526020016040518060400160405280600181526020017f330000000000000000000000000000000000000000000000000000000000000081525081526020016040518060400160405280600181526020017f3400000000000000000000000000000000000000000000000000000000000000815250815250601d906004620004c59291906200066d565b506000602455348015620004d857600080fd5b506040518060400160405280600781526020017f4d79546f6b656e000000000000000000000000000000000000000000000000008152506040518060400160405280600381526020017f4d544b000000000000000000000000000000000000000000000000000000000081525081600090805190602001906200055d92919062000721565b5080600190805190602001906200057692919062000721565b505050620005996200058d6200059f60201b60201c565b620005a760201b60201c565b620008a4565b600033905090565b6000600a60009054906101000a900473ffffffffffffffffffffffffffffffffffffffff16905081600a60006101000a81548173ffffffffffffffffffffffffffffffffffffffff021916908373ffffffffffffffffffffffffffffffffffffffff1602179055508173ffffffffffffffffffffffffffffffffffffffff168173ffffffffffffffffffffffffffffffffffffffff167f8be0079c531659141344cd1fd0a4f28419497f9722a3daafe3b4186f6b6457e060405160405180910390a35050565b8260048101928215620006b4579160200282015b82811115620006b3578251829080519060200190620006a292919062000721565b509160200191906001019062000681565b5b509050620006c39190620007b2565b5090565b82600b81019282156200070e579160200282015b828111156200070d578251829080519060200190620006fc92919062000721565b5091602001919060010190620006db565b5b5090506200071d9190620007b2565b5090565b8280546200072f906200086e565b90600052602060002090601f0160209004810192826200075357600085556200079f565b82601f106200076e57805160ff19168380011785556200079f565b828001600101855582156200079f579182015b828111156200079e57825182559160200191906001019062000781565b5b509050620007ae9190620007da565b5090565b5b80821115620007d65760008181620007cc9190620007f9565b50600101620007b3565b5090565b5b80821115620007f5576000816000905550600101620007db565b5090565b50805462000807906200086e565b6000825580601f106200081b57506200083c565b601f0160209004906000526020600020908101906200083b9190620007da565b5b50565b7f4e487b7100000000000000000000000000000000000000000000000000000000600052602260045260246000fd5b600060028204905060018216806200088757607f821691505b602082108114156200089e576200089d6200083f565b5b50919050565b613a4680620008b46000396000f3fe60806040526004361061014b5760003560e01c806370a08231116100b6578063c87b56dd1161006f578063c87b56dd14610481578063dbe16c07146104be578063e6c08dc8146104fb578063e8952fad14610538578063e985e9c514610575578063f2fde38b146105b25761014b565b806370a0823114610385578063715018a6146103c25780638da5cb5b146103d957806395d89b4114610404578063a22cb4651461042f578063b88d4fde146104585761014b565b80632f745c59116101085780632f745c59146102725780633ccfd60b146102af57806340d097c3146102c657806342842e0e146102e25780634f6ccce71461030b5780636352211e146103485761014b565b806301ffc9a71461015057806306fdde031461018d578063081812fc146101b8578063095ea7b3146101f557806318160ddd1461021e57806323b872dd14610249575b600080fd5b34801561015c57600080fd5b5061017760048036038101906101729190612500565b6105db565b6040516101849190612548565b60405180910390f35b34801561019957600080fd5b506101a26105ed565b6040516101af91906125fc565b60405180910390f35b3480156101c457600080fd5b506101df60048036038101906101da9190612654565b61067f565b6040516101ec91906126c2565b60405180910390f35b34801561020157600080fd5b5061021c60048036038101906102179190612709565b610704565b005b34801561022a57600080fd5b5061023361081c565b6040516102409190612758565b60405180910390f35b34801561025557600080fd5b50610270600480360381019061026b9190612773565b610829565b005b34801561027e57600080fd5b5061029960048036038101906102949190612709565b610889565b6040516102a69190612758565b60405180910390f35b3480156102bb57600080fd5b506102c461092e565b005b6102e060048036038101906102db91906127c6565b610a3d565b005b3480156102ee57600080fd5b5061030960048036038101906103049190612773565b610c06565b005b34801561031757600080fd5b50610332600480360381019061032d9190612654565b610c26565b60405161033f9190612758565b60405180910390f35b34801561035457600080fd5b5061036f600480360381019061036a9190612654565b610c97565b60405161037c91906126c2565b60405180910390f35b34801561039157600080fd5b506103ac60048036038101906103a791906127c6565b610d49565b6040516103b99190612758565b60405180910390f35b3480156103ce57600080fd5b506103d7610e01565b005b3480156103e557600080fd5b506103ee610e89565b6040516103fb91906126c2565b60405180910390f35b34801561041057600080fd5b50610419610eb3565b60405161042691906125fc565b60405180910390f35b34801561043b57600080fd5b506104566004803603810190610451919061281f565b610f45565b005b34801561046457600080fd5b5061047f600480360381019061047a9190612994565b610f5b565b005b34801561048d57600080fd5b506104a860048036038101906104a39190612654565b610fbd565b6040516104b591906125fc565b60405180910390f35b3480156104ca57600080fd5b506104e560048036038101906104e09190612654565b611007565b6040516104f291906125fc565b60405180910390f35b34801561050757600080fd5b50610522600480360381019061051d9190612654565b6110ac565b60405161052f9190612758565b60405180910390f35b34801561054457600080fd5b5061055f600480360381019061055a9190612654565b6110c9565b60405161056c9190612758565b60405180910390f35b34801561058157600080fd5b5061059c60048036038101906105979190612a17565b6110e6565b6040516105a99190612548565b60405180910390f35b3480156105be57600080fd5b506105d960048036038101906105d491906127c6565b61117a565b005b60006105e682611272565b9050919050565b6060600080546105fc90612a86565b80601f016020809104026020016040519081016040528092919081815260200182805461062890612a86565b80156106755780601f1061064a57610100808354040283529160200191610675565b820191906000526020600020905b81548152906001019060200180831161065857829003601f168201915b5050505050905090565b600061068a826112ec565b6106c9576040517f08c379a00000000000000000000000000000000000000000000000000000000081526004016106c090612b2a565b60405180910390fd5b6004600083815260200190815260200160002060009054906101000a900473ffffffffffffffffffffffffffffffffffffffff169050919050565b600061070f82610c97565b90508073ffffffffffffffffffffffffffffffffffffffff168373ffffffffffffffffffffffffffffffffffffffff161415610780576040517f08c379a000000000000000000000000000000000000000000000000000000000815260040161077790612bbc565b60405180910390fd5b8073ffffffffffffffffffffffffffffffffffffffff1661079f611358565b73ffffffffffffffffffffffffffffffffffffffff1614806107ce57506107cd816107c8611358565b6110e6565b5b61080d576040517f08c379a000000000000000000000000000000000000000000000000000000000815260040161080490612c4e565b60405180910390fd5b6108178383611360565b505050565b6000600880549050905090565b61083a610834611358565b82611419565b610879576040517f08c379a000000000000000000000000000000000000000000000000000000000815260040161087090612ce0565b60405180910390fd5b6108848383836114f7565b505050565b600061089483610d49565b82106108d5576040517f08c379a00000000000000000000000000000000000000000000000000000000081526004016108cc90612d72565b60405180910390fd5b600660008473ffffffffffffffffffffffffffffffffffffffff1673ffffffffffffffffffffffffffffffffffffffff168152602001908152602001600020600083815260200190815260200160002054905092915050565b610936611358565b73ffffffffffffffffffffffffffffffffffffffff16610954610e89565b73ffffffffffffffffffffffffffffffffffffffff16146109aa576040517f08c379a00000000000000000000000000000000000000000000000000000000081526004016109a190612dde565b60405180910390fd5b600047116109ed576040517f08c379a00000000000000000000000000000000000000000000000000000000081526004016109e490612e4a565b60405180910390fd5b6109f5610e89565b73ffffffffffffffffffffffffffffffffffffffff166108fc479081150290604051600060405180830381858888f19350505050158015610a3a573d6000803e3d6000fd5b50565b6000610a49600c61175e565b90506000610a57600b61176c565b905060006001610a67600661176c565b610a719190612e99565b90506000600e6001610a83600461176c565b610a8d9190612e99565b60048110610a9e57610a9d612eef565b5b018054610aaa90612a86565b80601f0160208091040260200160405190810160405280929190818152602001828054610ad690612a86565b8015610b235780601f10610af857610100808354040283529160200191610b23565b820191906000526020600020905b815481529060010190602001808311610b0657829003601f168201915b505050505090506000601d8360048110610b4057610b3f612eef565b5b0182601286600b8110610b5657610b55612eef565b5b01604051602001610b69939291906130d2565b604051602081830303815290604052905080602160008781526020019081526020016000209080519060200190610ba19291906123f1565b50600660226000878152602001908152602001600020819055506001602454610bca9190612e99565b6024819055506024546023600087815260200190815260200160002081905550610bf4600c6117ae565b610bfe86866117c4565b505050505050565b610c2183838360405180602001604052806000815250610f5b565b505050565b6000610c3061081c565b8210610c71576040517f08c379a0000000000000000000000000000000000000000000000000000000008152600401610c6890613196565b60405180910390fd5b60088281548110610c8557610c84612eef565b5b90600052602060002001549050919050565b6000806002600084815260200190815260200160002060009054906101000a900473ffffffffffffffffffffffffffffffffffffffff169050600073ffffffffffffffffffffffffffffffffffffffff168173ffffffffffffffffffffffffffffffffffffffff161415610d40576040517f08c379a0000000000000000000000000000000000000000000000000000000008152600401610d3790613228565b60405180910390fd5b80915050919050565b60008073ffffffffffffffffffffffffffffffffffffffff168273ffffffffffffffffffffffffffffffffffffffff161415610dba576040517f08c379a0000000000000000000000000000000000000000000000000000000008152600401610db1906132ba565b60405180910390fd5b600360008373ffffffffffffffffffffffffffffffffffffffff1673ffffffffffffffffffffffffffffffffffffffff168152602001908152602001600020549050919050565b610e09611358565b73ffffffffffffffffffffffffffffffffffffffff16610e27610e89565b73ffffffffffffffffffffffffffffffffffffffff1614610e7d576040517f08c379a0000000000000000000000000000000000000000000000000000000008152600401610e7490612dde565b60405180910390fd5b610e8760006117e2565b565b6000600a60009054906101000a900473ffffffffffffffffffffffffffffffffffffffff16905090565b606060018054610ec290612a86565b80601f0160208091040260200160405190810160405280929190818152602001828054610eee90612a86565b8015610f3b5780601f10610f1057610100808354040283529160200191610f3b565b820191906000526020600020905b815481529060010190602001808311610f1e57829003601f168201915b5050505050905090565b610f57610f50611358565b83836118a8565b5050565b610f6c610f66611358565b83611419565b610fab576040517f08c379a0000000000000000000000000000000000000000000000000000000008152600401610fa290612ce0565b60405180910390fd5b610fb784848484611a15565b50505050565b60606000610fc9611a71565b90508060216000858152602001908152602001600020604051602001610ff0929190613326565b604051602081830303815290604052915050919050565b606060216000838152602001908152602001600020805461102790612a86565b80601f016020809104026020016040519081016040528092919081815260200182805461105390612a86565b80156110a05780601f10611075576101008083540402835291602001916110a0565b820191906000526020600020905b81548152906001019060200180831161108357829003601f168201915b50505050509050919050565b600060226000838152602001908152602001600020549050919050565b600060236000838152602001908152602001600020549050919050565b6000600560008473ffffffffffffffffffffffffffffffffffffffff1673ffffffffffffffffffffffffffffffffffffffff16815260200190815260200160002060008373ffffffffffffffffffffffffffffffffffffffff1673ffffffffffffffffffffffffffffffffffffffff16815260200190815260200160002060009054906101000a900460ff16905092915050565b611182611358565b73ffffffffffffffffffffffffffffffffffffffff166111a0610e89565b73ffffffffffffffffffffffffffffffffffffffff16146111f6576040517f08c379a00000000000000000000000000000000000000000000000000000000081526004016111ed90612dde565b60405180910390fd5b600073ffffffffffffffffffffffffffffffffffffffff168173ffffffffffffffffffffffffffffffffffffffff161415611266576040517f08c379a000000000000000000000000000000000000000000000000000000000815260040161125d906133c7565b60405180910390fd5b61126f816117e2565b50565b60007f780e9d63000000000000000000000000000000000000000000000000000000007bffffffffffffffffffffffffffffffffffffffffffffffffffffffff1916827bffffffffffffffffffffffffffffffffffffffffffffffffffffffff191614806112e557506112e482611a91565b5b9050919050565b60008073ffffffffffffffffffffffffffffffffffffffff166002600084815260200190815260200160002060009054906101000a900473ffffffffffffffffffffffffffffffffffffffff1673ffffffffffffffffffffffffffffffffffffffff1614159050919050565b600033905090565b816004600083815260200190815260200160002060006101000a81548173ffffffffffffffffffffffffffffffffffffffff021916908373ffffffffffffffffffffffffffffffffffffffff160217905550808273ffffffffffffffffffffffffffffffffffffffff166113d383610c97565b73ffffffffffffffffffffffffffffffffffffffff167f8c5be1e5ebec7d5bd14f71427d1e84f3dd0314c0f7b2291e5b200ac8c7c3b92560405160405180910390a45050565b6000611424826112ec565b611463576040517f08c379a000000000000000000000000000000000000000000000000000000000815260040161145a90613459565b60405180910390fd5b600061146e83610c97565b90508073ffffffffffffffffffffffffffffffffffffffff168473ffffffffffffffffffffffffffffffffffffffff1614806114dd57508373ffffffffffffffffffffffffffffffffffffffff166114c58461067f565b73ffffffffffffffffffffffffffffffffffffffff16145b806114ee57506114ed81856110e6565b5b91505092915050565b8273ffffffffffffffffffffffffffffffffffffffff1661151782610c97565b73ffffffffffffffffffffffffffffffffffffffff161461156d576040517f08c379a0000000000000000000000000000000000000000000000000000000008152600401611564906134eb565b60405180910390fd5b600073ffffffffffffffffffffffffffffffffffffffff168273ffffffffffffffffffffffffffffffffffffffff1614156115dd576040517f08c379a00000000000000000000000000000000000000000000000000000000081526004016115d49061357d565b60405180910390fd5b6115e8838383611b73565b6115f3600082611360565b6001600360008573ffffffffffffffffffffffffffffffffffffffff1673ffffffffffffffffffffffffffffffffffffffff1681526020019081526020016000206000828254611643919061359d565b925050819055506001600360008473ffffffffffffffffffffffffffffffffffffffff1673ffffffffffffffffffffffffffffffffffffffff168152602001908152602001600020600082825461169a9190612e99565b92505081905550816002600083815260200190815260200160002060006101000a81548173ffffffffffffffffffffffffffffffffffffffff021916908373ffffffffffffffffffffffffffffffffffffffff160217905550808273ffffffffffffffffffffffffffffffffffffffff168473ffffffffffffffffffffffffffffffffffffffff167fddf252ad1be2c89b69c2b068fc378daa952ba7f163c4a11628f55a4df523b3ef60405160405180910390a4611759838383611b83565b505050565b600081600001549050919050565b6000814244336040516020016117849392919061363a565b6040516020818303038152906040528051906020012060001c6117a791906136a6565b9050919050565b6001816000016000828254019250508190555050565b6117de828260405180602001604052806000815250611b88565b5050565b6000600a60009054906101000a900473ffffffffffffffffffffffffffffffffffffffff16905081600a60006101000a81548173ffffffffffffffffffffffffffffffffffffffff021916908373ffffffffffffffffffffffffffffffffffffffff1602179055508173ffffffffffffffffffffffffffffffffffffffff168173ffffffffffffffffffffffffffffffffffffffff167f8be0079c531659141344cd1fd0a4f28419497f9722a3daafe3b4186f6b6457e060405160405180910390a35050565b8173ffffffffffffffffffffffffffffffffffffffff168373ffffffffffffffffffffffffffffffffffffffff161415611917576040517f08c379a000000000000000000000000000000000000000000000000000000000815260040161190e90613723565b60405180910390fd5b80600560008573ffffffffffffffffffffffffffffffffffffffff1673ffffffffffffffffffffffffffffffffffffffff16815260200190815260200160002060008473ffffffffffffffffffffffffffffffffffffffff1673ffffffffffffffffffffffffffffffffffffffff16815260200190815260200160002060006101000a81548160ff0219169083151502179055508173ffffffffffffffffffffffffffffffffffffffff168373ffffffffffffffffffffffffffffffffffffffff167f17307eab39ab6107e8899845ad3d59bd9653f200f220920489ca2b5937696c3183604051611a089190612548565b60405180910390a3505050565b611a208484846114f7565b611a2c84848484611be3565b611a6b576040517f08c379a0000000000000000000000000000000000000000000000000000000008152600401611a62906137b5565b60405180910390fd5b50505050565b60606040518060800160405280605181526020016139c060519139905090565b60007f80ac58cd000000000000000000000000000000000000000000000000000000007bffffffffffffffffffffffffffffffffffffffffffffffffffffffff1916827bffffffffffffffffffffffffffffffffffffffffffffffffffffffff19161480611b5c57507f5b5e139f000000000000000000000000000000000000000000000000000000007bffffffffffffffffffffffffffffffffffffffffffffffffffffffff1916827bffffffffffffffffffffffffffffffffffffffffffffffffffffffff1916145b80611b6c5750611b6b82611d6b565b5b9050919050565b611b7e838383611dd5565b505050565b505050565b611b928383611ee9565b611b9f6000848484611be3565b611bde576040517f08c379a0000000000000000000000000000000000000000000000000000000008152600401611bd5906137b5565b60405180910390fd5b505050565b6000611c048473ffffffffffffffffffffffffffffffffffffffff166120c3565b15611d5e578373ffffffffffffffffffffffffffffffffffffffff1663150b7a02611c2d611358565b8786866040518563ffffffff1660e01b8152600401611c4f949392919061382a565b6020604051808303816000875af1925050508015611c8b57506040513d601f19601f82011682018060405250810190611c88919061388b565b60015b611d0e573d8060008114611cbb576040519150601f19603f3d011682016040523d82523d6000602084013e611cc0565b606091505b50600081511415611d06576040517f08c379a0000000000000000000000000000000000000000000000000000000008152600401611cfd906137b5565b60405180910390fd5b805181602001fd5b63150b7a0260e01b7bffffffffffffffffffffffffffffffffffffffffffffffffffffffff1916817bffffffffffffffffffffffffffffffffffffffffffffffffffffffff191614915050611d63565b600190505b949350505050565b60007f01ffc9a7000000000000000000000000000000000000000000000000000000007bffffffffffffffffffffffffffffffffffffffffffffffffffffffff1916827bffffffffffffffffffffffffffffffffffffffffffffffffffffffff1916149050919050565b611de08383836120e6565b600073ffffffffffffffffffffffffffffffffffffffff168373ffffffffffffffffffffffffffffffffffffffff161415611e2357611e1e816120eb565b611e62565b8173ffffffffffffffffffffffffffffffffffffffff168373ffffffffffffffffffffffffffffffffffffffff1614611e6157611e608382612134565b5b5b600073ffffffffffffffffffffffffffffffffffffffff168273ffffffffffffffffffffffffffffffffffffffff161415611ea557611ea0816122a1565b611ee4565b8273ffffffffffffffffffffffffffffffffffffffff168273ffffffffffffffffffffffffffffffffffffffff1614611ee357611ee28282612372565b5b5b505050565b600073ffffffffffffffffffffffffffffffffffffffff168273ffffffffffffffffffffffffffffffffffffffff161415611f59576040517f08c379a0000000000000000000000000000000000000000000000000000000008152600401611f5090613904565b60405180910390fd5b611f62816112ec565b15611fa2576040517f08c379a0000000000000000000000000000000000000000000000000000000008152600401611f9990613970565b60405180910390fd5b611fae60008383611b73565b6001600360008473ffffffffffffffffffffffffffffffffffffffff1673ffffffffffffffffffffffffffffffffffffffff1681526020019081526020016000206000828254611ffe9190612e99565b92505081905550816002600083815260200190815260200160002060006101000a81548173ffffffffffffffffffffffffffffffffffffffff021916908373ffffffffffffffffffffffffffffffffffffffff160217905550808273ffffffffffffffffffffffffffffffffffffffff16600073ffffffffffffffffffffffffffffffffffffffff167fddf252ad1be2c89b69c2b068fc378daa952ba7f163c4a11628f55a4df523b3ef60405160405180910390a46120bf60008383611b83565b5050565b6000808273ffffffffffffffffffffffffffffffffffffffff163b119050919050565b505050565b6008805490506009600083815260200190815260200160002081905550600881908060018154018082558091505060019003906000526020600020016000909190919091505550565b6000600161214184610d49565b61214b919061359d565b9050600060076000848152602001908152602001600020549050818114612230576000600660008673ffffffffffffffffffffffffffffffffffffffff1673ffffffffffffffffffffffffffffffffffffffff168152602001908152602001600020600084815260200190815260200160002054905080600660008773ffffffffffffffffffffffffffffffffffffffff1673ffffffffffffffffffffffffffffffffffffffff168152602001908152602001600020600084815260200190815260200160002081905550816007600083815260200190815260200160002081905550505b6007600084815260200190815260200160002060009055600660008573ffffffffffffffffffffffffffffffffffffffff1673ffffffffffffffffffffffffffffffffffffffff16815260200190815260200160002060008381526020019081526020016000206000905550505050565b600060016008805490506122b5919061359d565b90506000600960008481526020019081526020016000205490506000600883815481106122e5576122e4612eef565b5b90600052602060002001549050806008838154811061230757612306612eef565b5b90600052602060002001819055508160096000838152602001908152602001600020819055506009600085815260200190815260200160002060009055600880548061235657612355613990565b5b6001900381819060005260206000200160009055905550505050565b600061237d83610d49565b905081600660008573ffffffffffffffffffffffffffffffffffffffff1673ffffffffffffffffffffffffffffffffffffffff168152602001908152602001600020600083815260200190815260200160002081905550806007600084815260200190815260200160002081905550505050565b8280546123fd90612a86565b90600052602060002090601f01602090048101928261241f5760008555612466565b82601f1061243857805160ff1916838001178555612466565b82800160010185558215612466579182015b8281111561246557825182559160200191906001019061244a565b5b5090506124739190612477565b5090565b5b80821115612490576000816000905550600101612478565b5090565b6000604051905090565b600080fd5b600080fd5b60007fffffffff0000000000000000000000000000000000000000000000000000000082169050919050565b6124dd816124a8565b81146124e857600080fd5b50565b6000813590506124fa816124d4565b92915050565b6000602082840312156125165761251561249e565b5b6000612524848285016124eb565b91505092915050565b60008115159050919050565b6125428161252d565b82525050565b600060208201905061255d6000830184612539565b92915050565b600081519050919050565b600082825260208201905092915050565b60005b8381101561259d578082015181840152602081019050612582565b838111156125ac576000848401525b50505050565b6000601f19601f8301169050919050565b60006125ce82612563565b6125d8818561256e565b93506125e881856020860161257f565b6125f1816125b2565b840191505092915050565b6000602082019050818103600083015261261681846125c3565b905092915050565b6000819050919050565b6126318161261e565b811461263c57600080fd5b50565b60008135905061264e81612628565b92915050565b60006020828403121561266a5761266961249e565b5b60006126788482850161263f565b91505092915050565b600073ffffffffffffffffffffffffffffffffffffffff82169050919050565b60006126ac82612681565b9050919050565b6126bc816126a1565b82525050565b60006020820190506126d760008301846126b3565b92915050565b6126e6816126a1565b81146126f157600080fd5b50565b600081359050612703816126dd565b92915050565b600080604083850312156127205761271f61249e565b5b600061272e858286016126f4565b925050602061273f8582860161263f565b9150509250929050565b6127528161261e565b82525050565b600060208201905061276d6000830184612749565b92915050565b60008060006060848603121561278c5761278b61249e565b5b600061279a868287016126f4565b93505060206127ab868287016126f4565b92505060406127bc8682870161263f565b9150509250925092565b6000602082840312156127dc576127db61249e565b5b60006127ea848285016126f4565b91505092915050565b6127fc8161252d565b811461280757600080fd5b50565b600081359050612819816127f3565b92915050565b600080604083850312156128365761283561249e565b5b6000612844858286016126f4565b92505060206128558582860161280a565b9150509250929050565b600080fd5b600080fd5b7f4e487b7100000000000000000000000000000000000000000000000000000000600052604160045260246000fd5b6128a1826125b2565b810181811067ffffffffffffffff821117156128c0576128bf612869565b5b80604052505050565b60006128d3612494565b90506128df8282612898565b919050565b600067ffffffffffffffff8211156128ff576128fe612869565b5b612908826125b2565b9050602081019050919050565b82818337600083830152505050565b6000612937612932846128e4565b6128c9565b90508281526020810184848401111561295357612952612864565b5b61295e848285612915565b509392505050565b600082601f83011261297b5761297a61285f565b5b813561298b848260208601612924565b91505092915050565b600080600080608085870312156129ae576129ad61249e565b5b60006129bc878288016126f4565b94505060206129cd878288016126f4565b93505060406129de8782880161263f565b925050606085013567ffffffffffffffff8111156129ff576129fe6124a3565b5b612a0b87828801612966565b91505092959194509250565b60008060408385031215612a2e57612a2d61249e565b5b6000612a3c858286016126f4565b9250506020612a4d858286016126f4565b9150509250929050565b7f4e487b7100000000000000000000000000000000000000000000000000000000600052602260045260246000fd5b60006002820490506001821680612a9e57607f821691505b60208210811415612ab257612ab1612a57565b5b50919050565b7f4552433732313a20617070726f76656420717565727920666f72206e6f6e657860008201527f697374656e7420746f6b656e0000000000000000000000000000000000000000602082015250565b6000612b14602c8361256e565b9150612b1f82612ab8565b604082019050919050565b60006020820190508181036000830152612b4381612b07565b9050919050565b7f4552433732313a20617070726f76616c20746f2063757272656e74206f776e6560008201527f7200000000000000000000000000000000000000000000000000000000000000602082015250565b6000612ba660218361256e565b9150612bb182612b4a565b604082019050919050565b60006020820190508181036000830152612bd581612b99565b9050919050565b7f4552433732313a20617070726f76652063616c6c6572206973206e6f74206f7760008201527f6e6572206e6f7220617070726f76656420666f7220616c6c0000000000000000602082015250565b6000612c3860388361256e565b9150612c4382612bdc565b604082019050919050565b60006020820190508181036000830152612c6781612c2b565b9050919050565b7f4552433732313a207472616e736665722063616c6c6572206973206e6f74206f60008201527f776e6572206e6f7220617070726f766564000000000000000000000000000000602082015250565b6000612cca60318361256e565b9150612cd582612c6e565b604082019050919050565b60006020820190508181036000830152612cf981612cbd565b9050919050565b7f455243373231456e756d657261626c653a206f776e657220696e646578206f7560008201527f74206f6620626f756e6473000000000000000000000000000000000000000000602082015250565b6000612d5c602b8361256e565b9150612d6782612d00565b604082019050919050565b60006020820190508181036000830152612d8b81612d4f565b9050919050565b7f4f776e61626c653a2063616c6c6572206973206e6f7420746865206f776e6572600082015250565b6000612dc860208361256e565b9150612dd382612d92565b602082019050919050565b60006020820190508181036000830152612df781612dbb565b9050919050565b7f42616c616e6365206973207a65726f0000000000000000000000000000000000600082015250565b6000612e34600f8361256e565b9150612e3f82612dfe565b602082019050919050565b60006020820190508181036000830152612e6381612e27565b9050919050565b7f4e487b7100000000000000000000000000000000000000000000000000000000600052601160045260246000fd5b6000612ea48261261e565b9150612eaf8361261e565b9250827fffffffffffffffffffffffffffffffffffffffffffffffffffffffffffffffff03821115612ee457612ee3612e6a565b5b828201905092915050565b7f4e487b7100000000000000000000000000000000000000000000000000000000600052603260045260246000fd5b600081905092915050565b7f6600000000000000000000000000000000000000000000000000000000000000600082015250565b6000612f5f600183612f1e565b9150612f6a82612f29565b600182019050919050565b60008190508160005260206000209050919050565b60008154612f9781612a86565b612fa18186612f1e565b94506001821660008114612fbc5760018114612fcd57613000565b60ff19831686528186019350613000565b612fd685612f75565b60005b83811015612ff857815481890152600182019150602081019050612fd9565b838801955050505b50505092915050565b7f7065720000000000000000000000000000000000000000000000000000000000600082015250565b600061303f600383612f1e565b915061304a82613009565b600382019050919050565b600061306082612563565b61306a8185612f1e565b935061307a81856020860161257f565b80840191505092915050565b7f7075720000000000000000000000000000000000000000000000000000000000600082015250565b60006130bc600383612f1e565b91506130c782613086565b600382019050919050565b60006130dd82612f52565b91506130e98286612f8a565b91506130f482613032565b91506131008285613055565b915061310b826130af565b91506131178284612f8a565b9150819050949350505050565b7f455243373231456e756d657261626c653a20676c6f62616c20696e646578206f60008201527f7574206f6620626f756e64730000000000000000000000000000000000000000602082015250565b6000613180602c8361256e565b915061318b82613124565b604082019050919050565b600060208201905081810360008301526131af81613173565b9050919050565b7f4552433732313a206f776e657220717565727920666f72206e6f6e657869737460008201527f656e7420746f6b656e0000000000000000000000000000000000000000000000602082015250565b600061321260298361256e565b915061321d826131b6565b604082019050919050565b6000602082019050818103600083015261324181613205565b9050919050565b7f4552433732313a2062616c616e636520717565727920666f7220746865207a6560008201527f726f206164647265737300000000000000000000000000000000000000000000602082015250565b60006132a4602a8361256e565b91506132af82613248565b604082019050919050565b600060208201905081810360008301526132d381613297565b9050919050565b7f2e6a736f6e000000000000000000000000000000000000000000000000000000600082015250565b6000613310600583612f1e565b915061331b826132da565b600582019050919050565b60006133328285613055565b915061333e8284612f8a565b915061334982613303565b91508190509392505050565b7f4f776e61626c653a206e6577206f776e657220697320746865207a65726f206160008201527f6464726573730000000000000000000000000000000000000000000000000000602082015250565b60006133b160268361256e565b91506133bc82613355565b604082019050919050565b600060208201905081810360008301526133e0816133a4565b9050919050565b7f4552433732313a206f70657261746f7220717565727920666f72206e6f6e657860008201527f697374656e7420746f6b656e0000000000000000000000000000000000000000602082015250565b6000613443602c8361256e565b915061344e826133e7565b604082019050919050565b6000602082019050818103600083015261347281613436565b9050919050565b7f4552433732313a207472616e736665722066726f6d20696e636f72726563742060008201527f6f776e6572000000000000000000000000000000000000000000000000000000602082015250565b60006134d560258361256e565b91506134e082613479565b604082019050919050565b60006020820190508181036000830152613504816134c8565b9050919050565b7f4552433732313a207472616e7366657220746f20746865207a65726f2061646460008201527f7265737300000000000000000000000000000000000000000000000000000000602082015250565b600061356760248361256e565b91506135728261350b565b604082019050919050565b600060208201905081810360008301526135968161355a565b9050919050565b60006135a88261261e565b91506135b38361261e565b9250828210156135c6576135c5612e6a565b5b828203905092915050565b6000819050919050565b6135ec6135e78261261e565b6135d1565b82525050565b60008160601b9050919050565b600061360a826135f2565b9050919050565b600061361c826135ff565b9050919050565b61363461362f826126a1565b613611565b82525050565b600061364682866135db565b60208201915061365682856135db565b6020820191506136668284613623565b601482019150819050949350505050565b7f4e487b7100000000000000000000000000000000000000000000000000000000600052601260045260246000fd5b60006136b18261261e565b91506136bc8361261e565b9250826136cc576136cb613677565b5b828206905092915050565b7f4552433732313a20617070726f766520746f2063616c6c657200000000000000600082015250565b600061370d60198361256e565b9150613718826136d7565b602082019050919050565b6000602082019050818103600083015261373c81613700565b9050919050565b7f4552433732313a207472616e7366657220746f206e6f6e20455243373231526560008201527f63656976657220696d706c656d656e7465720000000000000000000000000000602082015250565b600061379f60328361256e565b91506137aa82613743565b604082019050919050565b600060208201905081810360008301526137ce81613792565b9050919050565b600081519050919050565b600082825260208201905092915050565b60006137fc826137d5565b61380681856137e0565b935061381681856020860161257f565b61381f816125b2565b840191505092915050565b600060808201905061383f60008301876126b3565b61384c60208301866126b3565b6138596040830185612749565b818103606083015261386b81846137f1565b905095945050505050565b600081519050613885816124d4565b92915050565b6000602082840312156138a1576138a061249e565b5b60006138af84828501613876565b91505092915050565b7f4552433732313a206d696e7420746f20746865207a65726f2061646472657373600082015250565b60006138ee60208361256e565b91506138f9826138b8565b602082019050919050565b6000602082019050818103600083015261391d816138e1565b9050919050565b7f4552433732313a20746f6b656e20616c7265616479206d696e74656400000000600082015250565b600061395a601c8361256e565b915061396582613924565b602082019050919050565b600060208201905081810360008301526139898161394d565b9050919050565b7f4e487b7100000000000000000000000000000000000000000000000000000000600052603160045260246000fdfe68747470733a2f2f676174657761792e70696e6174612e636c6f75642f697066732f516d65705a79713666437671696164783137335a476658426e6e6d594a447465664c4e32375a505a68506671434c2fa2646970667358221220b1a9f5e88ccbdbaf363d0c282fe75c97e8074b4dd7744317c732a06261f599cb64736f6c634300080b0033",
  "immutableReferences": {},
  "source": "// SPDX-License-Identifier: MIT\r\npragma solidity ^0.8.4;\r\n\r\nimport \"@openzeppelin/contracts/token/ERC721/ERC721.sol\";\r\nimport \"@openzeppelin/contracts/token/ERC721/extensions/ERC721Enumerable.sol\";\r\nimport \"@openzeppelin/contracts/access/Ownable.sol\";\r\nimport \"@openzeppelin/contracts/utils/Counters.sol\";\r\nimport \"@openzeppelin/contracts/token/ERC721/extensions/ERC721URIStorage.sol\";\r\n\r\ncontract NFT is ERC721, ERC721Enumerable, Ownable, ERC721URIStorage {\r\n    using Counters for Counters.Counter;\r\n\r\n    Counters.Counter private _tokenIdCounter;\r\n\r\n    uint256 MINT_PRICE = 10 ether;\r\n    string[4] colors = [\"azul\", \"verde\", \"rosa\", \"marron\"];\r\n    string[11] numbers = [\r\n        \"000\",\r\n        \"001\",\r\n        \"002\",\r\n        \"003\",\r\n        \"004\",\r\n        \"005\",\r\n        \"006\",\r\n        \"007\",\r\n        \"008\",\r\n        \"009\",\r\n        \"010\"\r\n    ];\r\n    string[4] backgroundStrings = [\"1\", \"2\", \"3\", \"4\"];\r\n\r\n    mapping(uint256 => string) tokenName;\r\n    mapping(uint256 => uint256) tokenBreeding;\r\n    mapping(uint256 => uint256) tokenNumber;\r\n    uint256 actualTokenNumber = 0;\r\n\r\n    constructor() ERC721(\"MyToken\", \"MTK\") {}\r\n\r\n    function getTokenName(uint256 _tokenId)\r\n        public\r\n        view\r\n        returns (string memory)\r\n    {\r\n        return tokenName[_tokenId];\r\n    }\r\n\r\n    function getTokenBreeding(uint256 _tokenId) public view returns (uint256) {\r\n        return tokenBreeding[_tokenId];\r\n    }\r\n\r\n    function getTokenNumber(uint256 _tokenId) public view returns (uint256) {\r\n        return tokenNumber[_tokenId];\r\n    }\r\n\r\n    function random(uint256 number) internal view returns (uint256) {\r\n        return\r\n            uint256(\r\n                keccak256(\r\n                    abi.encodePacked(\r\n                        block.timestamp,\r\n                        block.difficulty,\r\n                        msg.sender\r\n                    )\r\n                )\r\n            ) % number;\r\n    }\r\n\r\n    function _baseURI() internal pure override returns (string memory) {\r\n        return\r\n            \"https://gateway.pinata.cloud/ipfs/QmepZyq6fCvqiadx173ZGfXBnnmYJDtefLN27ZPZhPfqCL/\";\r\n    }\r\n\r\n    function withdraw() public onlyOwner {\r\n        require(address(this).balance > 0, \"Balance is zero\");\r\n        payable(owner()).transfer(address(this).balance);\r\n    }\r\n\r\n    function safeMint(address to) public payable {\r\n        //require(msg.value >= MINT_PRICE, \"Not enough ether sent.\");\r\n        uint256 tokenId = _tokenIdCounter.current();\r\n        uint256 purity = random(11);\r\n        uint256 background = random(6) + 1;\r\n        string memory color = colors[random(4) + 1];\r\n        string memory name = string(\r\n            abi.encodePacked(\r\n                \"f\",\r\n                backgroundStrings[background],\r\n                \"per\",\r\n                color,\r\n                \"pur\",\r\n                numbers[purity]\r\n            )\r\n        );\r\n        tokenName[tokenId] = name;\r\n        tokenBreeding[tokenId] = 6;\r\n        actualTokenNumber = actualTokenNumber + 1;\r\n        tokenNumber[tokenId] = actualTokenNumber;\r\n        _tokenIdCounter.increment();\r\n        _safeMint(to, tokenId);\r\n    }\r\n\r\n    // The following functions are overrides required by Solidity.\r\n\r\n    function _beforeTokenTransfer(\r\n        address from,\r\n        address to,\r\n        uint256 tokenId\r\n    ) internal override(ERC721, ERC721Enumerable) {\r\n        super._beforeTokenTransfer(from, to, tokenId);\r\n    }\r\n\r\n    function supportsInterface(bytes4 interfaceId)\r\n        public\r\n        view\r\n        override(ERC721, ERC721Enumerable)\r\n        returns (bool)\r\n    {\r\n        return super.supportsInterface(interfaceId);\r\n    }\r\n\r\n    function _burn(uint256 tokenId)\r\n        internal\r\n        override(ERC721, ERC721URIStorage)\r\n    {\r\n        super._burn(tokenId);\r\n    }\r\n\r\n    function tokenURI(uint256 tokenId)\r\n        public\r\n        view\r\n        virtual\r\n        override(ERC721, ERC721URIStorage)\r\n        returns (string memory)\r\n    {\r\n        string memory baseURI = _baseURI();\r\n        return string(abi.encodePacked(baseURI, tokenName[tokenId], \".json\"));\r\n    }\r\n}\r\n",
  "sourcePath": "D:\\ProyectoGenesis\\a\\contracts\\NFT.sol",
  "compiler": {
    "name": "solc",
    "version": "0.8.11+commit.d7f03943.Emscripten.clang"
  },
  "schemaVersion": "3.4.4",
  "updatedAt": "2022-05-06T17:20:43.937Z",
  "networkType": "ethereum",
  "devdoc": {
    "kind": "dev",
    "methods": {
      "approve(address,uint256)": {
        "details": "See {IERC721-approve}."
      },
      "balanceOf(address)": {
        "details": "See {IERC721-balanceOf}."
      },
      "getApproved(uint256)": {
        "details": "See {IERC721-getApproved}."
      },
      "isApprovedForAll(address,address)": {
        "details": "See {IERC721-isApprovedForAll}."
      },
      "name()": {
        "details": "See {IERC721Metadata-name}."
      },
      "owner()": {
        "details": "Returns the address of the current owner."
      },
      "ownerOf(uint256)": {
        "details": "See {IERC721-ownerOf}."
      },
      "renounceOwnership()": {
        "details": "Leaves the contract without owner. It will not be possible to call `onlyOwner` functions anymore. Can only be called by the current owner. NOTE: Renouncing ownership will leave the contract without an owner, thereby removing any functionality that is only available to the owner."
      },
      "safeTransferFrom(address,address,uint256)": {
        "details": "See {IERC721-safeTransferFrom}."
      },
      "safeTransferFrom(address,address,uint256,bytes)": {
        "details": "See {IERC721-safeTransferFrom}."
      },
      "setApprovalForAll(address,bool)": {
        "details": "See {IERC721-setApprovalForAll}."
      },
      "symbol()": {
        "details": "See {IERC721Metadata-symbol}."
      },
      "tokenByIndex(uint256)": {
        "details": "See {IERC721Enumerable-tokenByIndex}."
      },
      "tokenOfOwnerByIndex(address,uint256)": {
        "details": "See {IERC721Enumerable-tokenOfOwnerByIndex}."
      },
      "totalSupply()": {
        "details": "See {IERC721Enumerable-totalSupply}."
      },
      "transferFrom(address,address,uint256)": {
        "details": "See {IERC721-transferFrom}."
      },
      "transferOwnership(address)": {
        "details": "Transfers ownership of the contract to a new account (`newOwner`). Can only be called by the current owner."
      }
    },
    "version": 1
  },
  "userdoc": {
    "kind": "user",
    "methods": {},
    "version": 1
  }
}